{"contracts/Tournament.sol":{"Tournament":{"abi":[{"inputs":[{"internalType":"uint256","name":"id_","type":"uint256"},{"internalType":"string","name":"name_","type":"string"},{"internalType":"uint256","name":"startTime_","type":"uint256"},{"internalType":"address","name":"gameContractAddress_","type":"address"},{"components":[{"internalType":"bool","name":"isSponsored","type":"bool"},{"internalType":"uint256","name":"prizePool","type":"uint256"},{"internalType":"uint256","name":"nWinners","type":"uint256"},{"internalType":"string","name":"sponsorMetadata","type":"string"},{"internalType":"uint256","name":"commissionPercentage","type":"uint256"}],"internalType":"struct DataTypes.RewardVars","name":"_rewardVars","type":"tuple"}],"stateMutability":"nonpayable","type":"constructor"},{"anonymous":false,"inputs":[{"indexed":true,"internalType":"address","name":"payer","type":"address"},{"indexed":true,"internalType":"uint256","name":"timestamp","type":"uint256"},{"indexed":false,"internalType":"uint256","name":"funds","type":"uint256"}],"name":"FundsAdded","type":"event"},{"anonymous":false,"inputs":[{"indexed":true,"internalType":"uint256","name":"timestamp","type":"uint256"},{"indexed":false,"internalType":"uint256","name":"funds","type":"uint256"}],"name":"FundsWithdrawn","type":"event"},{"anonymous":false,"inputs":[{"indexed":true,"internalType":"address","name":"player","type":"address"},{"indexed":true,"internalType":"uint256","name":"timestamp","type":"uint256"},{"indexed":false,"internalType":"uint256","name":"score","type":"uint256"}],"name":"ScoreRecorded","type":"event"},{"inputs":[],"name":"approvedCaller","outputs":[{"internalType":"address","name":"","type":"address"}],"stateMutability":"view","type":"function"},{"inputs":[],"name":"endTournament","outputs":[],"stateMutability":"nonpayable","type":"function"},{"inputs":[],"name":"gameContractAddress","outputs":[{"internalType":"address","name":"","type":"address"}],"stateMutability":"view","type":"function"},{"inputs":[],"name":"getLeaderBoard","outputs":[{"components":[{"internalType":"address","name":"wallet","type":"address"},{"internalType":"string","name":"username","type":"string"},{"internalType":"uint256","name":"highscore","type":"uint256"},{"internalType":"uint256","name":"prize","type":"uint256"}],"internalType":"struct DataTypes.LeaderBoardEntry[]","name":"","type":"tuple[]"}],"stateMutability":"view","type":"function"},{"inputs":[],"name":"getRewardInfo","outputs":[{"components":[{"internalType":"bool","name":"isSponsored","type":"bool"},{"internalType":"uint256","name":"prizePool","type":"uint256"},{"internalType":"uint256","name":"nWinners","type":"uint256"},{"internalType":"string","name":"sponsorMetadata","type":"string"},{"internalType":"uint256","name":"commissionPercentage","type":"uint256"}],"internalType":"struct DataTypes.RewardVars","name":"","type":"tuple"},{"internalType":"uint256","name":"","type":"uint256"},{"internalType":"uint256","name":"","type":"uint256"}],"stateMutability":"view","type":"function"},{"inputs":[],"name":"getTournamentInfo","outputs":[{"internalType":"string","name":"_name","type":"string"},{"internalType":"uint256","name":"_timeLimit","type":"uint256"},{"internalType":"uint256","name":"_startTime","type":"uint256"},{"internalType":"uint256","name":"_id","type":"uint256"},{"internalType":"uint256","name":"_joiningFees","type":"uint256"},{"components":[{"internalType":"bool","name":"isSponsored","type":"bool"},{"internalType":"uint256","name":"prizePool","type":"uint256"},{"internalType":"uint256","name":"nWinners","type":"uint256"},{"internalType":"string","name":"sponsorMetadata","type":"string"},{"internalType":"uint256","name":"commissionPercentage","type":"uint256"}],"internalType":"struct DataTypes.RewardVars","name":"_rewardVars","type":"tuple"},{"internalType":"uint256","name":"_nPlayers","type":"uint256"}],"stateMutability":"view","type":"function"},{"inputs":[],"name":"hasEnded","outputs":[{"internalType":"bool","name":"","type":"bool"}],"stateMutability":"view","type":"function"},{"inputs":[],"name":"id","outputs":[{"internalType":"uint256","name":"","type":"uint256"}],"stateMutability":"view","type":"function"},{"inputs":[],"name":"joinTournament","outputs":[],"stateMutability":"payable","type":"function"},{"inputs":[],"name":"joiningFees","outputs":[{"internalType":"uint256","name":"","type":"uint256"}],"stateMutability":"view","type":"function"},{"inputs":[],"name":"name","outputs":[{"internalType":"string","name":"","type":"string"}],"stateMutability":"view","type":"function"},{"inputs":[{"internalType":"address","name":"","type":"address"}],"name":"playerStatsMap","outputs":[{"internalType":"uint256","name":"rank","type":"uint256"},{"internalType":"uint256","name":"highscore","type":"uint256"},{"internalType":"uint256","name":"attemptsLeft","type":"uint256"},{"internalType":"uint256","name":"reFills","type":"uint256"},{"internalType":"uint256","name":"allocatedPrize","type":"uint256"},{"internalType":"uint256","name":"unclaimedPrize","type":"uint256"}],"stateMutability":"view","type":"function"},{"inputs":[],"name":"reFill","outputs":[],"stateMutability":"payable","type":"function"},{"inputs":[{"internalType":"address","name":"_player","type":"address"},{"internalType":"uint256","name":"_score","type":"uint256"}],"name":"recordScore","outputs":[],"stateMutability":"nonpayable","type":"function"},{"inputs":[],"name":"rewardVars","outputs":[{"internalType":"bool","name":"isSponsored","type":"bool"},{"internalType":"uint256","name":"prizePool","type":"uint256"},{"internalType":"uint256","name":"nWinners","type":"uint256"},{"internalType":"string","name":"sponsorMetadata","type":"string"},{"internalType":"uint256","name":"commissionPercentage","type":"uint256"}],"stateMutability":"view","type":"function"},{"inputs":[],"name":"startTime","outputs":[{"internalType":"uint256","name":"","type":"uint256"}],"stateMutability":"view","type":"function"},{"inputs":[],"name":"timeLimit","outputs":[{"internalType":"uint256","name":"","type":"uint256"}],"stateMutability":"view","type":"function"},{"inputs":[{"internalType":"uint256","name":"funds","type":"uint256"}],"name":"withdrawContractFunds","outputs":[],"stateMutability":"nonpayable","type":"function"},{"inputs":[],"name":"withdrawPrize","outputs":[],"stateMutability":"nonpayable","type":"function"},{"stateMutability":"payable","type":"receive"}],"evm":{"bytecode":{"linkReferences":{},"object":"60806040523480156200001157600080fd5b5060405162002cdd38038062002cdd8339810160408190526200003491620003fe565b6001600081905585905583516200005390600290602087019062000267565b506003839055600680546001600160a01b0319166001600160a01b0384169081179091556040805163c08d1fe560e01b8152905163c08d1fe591600480820192602092909190829003018186803b158015620000ae57600080fd5b505afa158015620000c3573d6000803e3d6000fd5b505050506040513d601f19601f82011682018060405250810190620000e99190620003e4565b600490815560065460408051634959d97760e01b815290516001600160a01b0390921692634959d977928282019260209290829003018186803b1580156200013057600080fd5b505afa15801562000145573d6000803e3d6000fd5b505050506040513d601f19601f820116820180604052508101906200016b9190620003e4565b60055560065460408051631127a41d60e31b815290516001600160a01b039092169163893d20e891600480820192602092909190829003018186803b158015620001b457600080fd5b505afa158015620001c9573d6000803e3d6000fd5b505050506040513d601f19601f82011682018060405250810190620001ef9190620003bf565b600780546001600160a01b0319166001600160a01b039290921691909117905580516008805460ff19169115159190911781556020808301516009556040830151600a55606083015180518493926200024e92600b9291019062000267565b50608082015181600401559050505050505050620005ad565b82805462000275906200055a565b90600052602060002090601f016020900481019282620002995760008555620002e4565b82601f10620002b457805160ff1916838001178555620002e4565b82800160010185558215620002e4579182015b82811115620002e4578251825591602001919060010190620002c7565b50620002f2929150620002f6565b5090565b5b80821115620002f25760008155600101620002f7565b80516001600160a01b03811681146200032557600080fd5b919050565b600082601f8301126200033c57600080fd5b81516001600160401b0381111562000358576200035862000597565b60206200036e601f8301601f1916820162000527565b82815285828487010111156200038357600080fd5b60005b83811015620003a357858101830151828201840152820162000386565b83811115620003b55760008385840101525b5095945050505050565b600060208284031215620003d257600080fd5b620003dd826200030d565b9392505050565b600060208284031215620003f757600080fd5b5051919050565b600080600080600060a086880312156200041757600080fd5b855160208701519095506001600160401b03808211156200043757600080fd5b6200044589838a016200032a565b9550604088015194506200045c606089016200030d565b935060808801519150808211156200047357600080fd5b9087019060a0828a0312156200048857600080fd5b62000492620004fc565b82518015158114620004a357600080fd5b808252506020830151602082015260408301516040820152606083015182811115620004ce57600080fd5b620004dc8b8286016200032a565b606083015250608083015160808201528093505050509295509295909350565b60405160a081016001600160401b038111828210171562000521576200052162000597565b60405290565b604051601f8201601f191681016001600160401b038111828210171562000552576200055262000597565b604052919050565b600181811c908216806200056f57607f821691505b602082108114156200059157634e487b7160e01b600052602260045260246000fd5b50919050565b634e487b7160e01b600052604160045260246000fd5b61272080620005bd6000396000f3fe6080604052600436106101185760003560e01c806378e97925116100a0578063c08d1fe511610064578063c08d1fe514610351578063c29d72bc14610367578063d829055e14610389578063ecb70fb7146103b1578063fbd53482146103e257600080fd5b806378e979251461027a5780637ce1186114610290578063858dbf7d14610298578063ab632d4a146102be578063af640d0f1461033b57600080fd5b80634959d977116100e75780634959d977146101f55780634d633a8f1461021957806350ed91931461022e57806363df0ef714610236578063699c8f331461025657600080fd5b8063069f5bf71461015b57806306fdde031461017d57806345446d71146101a857806348d37a58146101e057600080fd5b3661015657604051348152429033907f92023dd282de3eea749a3a27a58271d70f04c1f7905fce2e1996ec9bdfccf33b9060200160405180910390a3005b600080fd5b34801561016757600080fd5b5061017b61017636600461229c565b610402565b005b34801561018957600080fd5b50610192610518565b60405161019f9190612412565b60405180910390f35b3480156101b457600080fd5b506007546101c8906001600160a01b031681565b6040516001600160a01b03909116815260200161019f565b3480156101ec57600080fd5b5061017b6105a6565b34801561020157600080fd5b5061020b60055481565b60405190815260200161019f565b34801561022557600080fd5b5061017b610873565b61017b610b51565b34801561024257600080fd5b506006546101c8906001600160a01b031681565b34801561026257600080fd5b5061026b610d4c565b60405161019f93929190612499565b34801561028657600080fd5b5061020b60035481565b61017b610fe1565b3480156102a457600080fd5b506102ad611112565b60405161019f9594939291906123d9565b3480156102ca57600080fd5b5061030e6102d9366004612188565b600f60205260009081526040902080546001820154600283015460038401546004850154600590950154939492939192909186565b604080519687526020870195909552938501929092526060840152608083015260a082015260c00161019f565b34801561034757600080fd5b5061020b60015481565b34801561035d57600080fd5b5061020b60045481565b34801561037357600080fd5b5061037c6111bd565b60405161019f9190612343565b34801561039557600080fd5b5061039e6115f4565b60405161019f9796959493929190612447565b3480156103bd57600080fd5b506007546103d290600160a01b900460ff1681565b604051901515815260200161019f565b3480156103ee57600080fd5b5061017b6103fd3660046121a3565b6116ec565b60075460408051808201909152601581527410d05313115497d393d517d055551213d492569151605a1b6020820152906001600160a01b031633146104635760405162461bcd60e51b815260040161045a9190612412565b60405180910390fd5b5060408051808201909152601081526f4e4f545f454e4f5547485f46554e445360801b6020820152478211156104ac5760405162461bcd60e51b815260040161045a9190612412565b50604051339082156108fc029083906000818181858888f193505050501580156104da573d6000803e3d6000fd5b50427fd66662c0ded9e58fd31d5e44944bcfd07ffc15e6927ecc1382e7941cb7bd24c48260405161050d91815260200190565b60405180910390a250565b6002805461052590612627565b80601f016020809104026020016040519081016040528092919081815260200182805461055190612627565b801561059e5780601f106105735761010080835404028352916020019161059e565b820191906000526020600020905b81548152906001019060200180831161058157829003601f168201915b505050505081565b6105d56040518060400160405280600e81526020016d5769746864726177207072697a6560901b815250611977565b426004546003546105e691906124ff565b1060405180604001604052806012815260200171544f55524e414d454e545f49535f4c49564560701b815250906106305760405162461bcd60e51b815260040161045a9190612412565b5061066f6040518060400160405280601f81526020017f544f55524e414d454e545f4841535f454e4445442048415320454e4445442000815250611977565b600654600154604051630a62bb0b60e21b815233600482015260248101919091526000916001600160a01b03169063298aec2c9060440160206040518083038186803b1580156106be57600080fd5b505afa1580156106d2573d6000803e3d6000fd5b505050506040513d601f19601f820116820180604052508101906106f691906121cd565b905061072f6040518060400160405280601681526020017518da1958dada5b99c81c1b185e595c881a9bda5b995960521b815250611977565b60408051808201909152601181527014131056515497d393d517d293d2539151607a1b6020820152816107755760405162461bcd60e51b815260040161045a9190612412565b506107a46040518060400160405280600d81526020016c141b185e595c881a9bda5b9959609a1b815250611977565b336000908152600f60209081526040918290208251808401909352600b83526a506c61796572206865726560a81b91830191909152906107e390611977565b6108176040518060400160405280600e81526020016d756e636c61696d65645072697a6560901b81525082600501546119bd565b60058101541561086f57600581015461082f81611a02565b61083847611a02565b600060058301819055604051339183156108fc02918491818181858888f1935050505015801561086c573d6000803e3d6000fd5b50505b5050565b60075460408051808201909152601581527410d05313115497d393d517d055551213d492569151605a1b6020820152906001600160a01b031633146108cb5760405162461bcd60e51b815260040161045a9190612412565b50426004546003546108dd91906124ff565b1060405180604001604052806012815260200171544f55524e414d454e545f49535f4c49564560701b815250906109275760405162461bcd60e51b815260040161045a9190612412565b506007546040805180820190915260148152731513d55493905351539517d21054d7d15391115160621b602082015290600160a01b900460ff161561097f5760405162461bcd60e51b815260040161045a9190612412565b506007805460ff60a01b1916600160a01b179055600061099d6111bd565b905060005b6109ac600d611a47565b81101561086f576040518060c001604052808260016109cb91906124ff565b81526020018383815181106109e2576109e26126be565b6020026020010151604001518152602001600f6000858581518110610a0957610a096126be565b6020026020010151600001516001600160a01b03166001600160a01b03168152602001908152602001600020600201548152602001600f6000858581518110610a5457610a546126be565b6020026020010151600001516001600160a01b03166001600160a01b03168152602001908152602001600020600301548152602001838381518110610a9b57610a9b6126be565b6020026020010151606001518152602001838381518110610abe57610abe6126be565b602002602001015160600151815250600f6000848481518110610ae357610ae36126be565b602090810291909101810151516001600160a01b03168252818101929092526040908101600020835181559183015160018301558201516002820155606082015160038201556080820151600482015560a09091015160059091015580610b4981612682565b9150506109a2565b42600454600354610b6291906124ff565b11604051806040016040528060148152602001731513d55493905351539517d21054d7d15391115160621b81525090610bae5760405162461bcd60e51b815260040161045a9190612412565b50600654600154604051630a62bb0b60e21b815233600482015260248101919091526000916001600160a01b03169063298aec2c9060440160206040518083038186803b158015610bfe57600080fd5b505afa158015610c12573d6000803e3d6000fd5b505050506040513d601f19601f82011682018060405250810190610c3691906121cd565b9050806040518060400160405280601181526020017014131056515497d393d517d293d2539151607a1b81525090610c815760405162461bcd60e51b815260040161045a9190612412565b506005543414604051806040016040528060198152602001781393d517d15393d551d217d195539114d7d41493d592511151603a1b81525090610cd75760405162461bcd60e51b815260040161045a9190612412565b50336000908152600f6020908152604091829020600201548251808401909352600d83526c1055151153541514d7d3115195609a1b9183019190915215610d315760405162461bcd60e51b815260040161045a9190612412565b5050336000908152600f602052604090206003600290910155565b610d806040518060a00160405280600015158152602001600081526020016000815260200160608152602001600081525090565b6040805160a0810190915260085460ff16801515825260009182916020820190610df057610dca600860040154600554610dba600d611a47565b610dc49190612559565b90611a57565b600554610dd7600d611a47565b610de19190612559565b610deb91906125b7565b610df4565b6009545b8152602001610f2a610e8e600660009054906101000a90046001600160a01b03166001600160a01b0316625a0e3d6040518163ffffffff1660e01b815260040160206040518083038186803b158015610e4c57600080fd5b505afa158015610e60573d6000803e3d6000fd5b505050506040513d601f19601f82011682018060405250810190610e8491906122b5565b610dc4600d611a47565b60085460ff16610f225760065460408051625a0e3d60e01b81529051600a926001600160a01b031691625a0e3d916004808301926020929190829003018186803b158015610edb57600080fd5b505afa158015610eef573d6000803e3d6000fd5b505050506040513d601f19601f82011682018060405250810190610f1391906122b5565b610f1d9190612545565b611b20565b600a54611b20565b815260200160086003018054610f3f90612627565b80601f0160208091040260200160405190810160405280929190818152602001828054610f6b90612627565b8015610fb85780601f10610f8d57610100808354040283529160200191610fb8565b820191906000526020600020905b815481529060010190602001808311610f9b57829003601f168201915b5050509183525050600c54602090910152600554610fd6600d611a47565b925092509250909192565b42600454600354610ff291906124ff565b11604051806040016040528060148152602001731513d55493905351539517d21054d7d15391115160621b8152509061103e5760405162461bcd60e51b815260040161045a9190612412565b506005543414604051806040016040528060198152602001781393d517d15393d551d217d195539114d7d41493d592511151603a1b815250906110945760405162461bcd60e51b815260040161045a9190612412565b506110a0600d33611b38565b50336000818152600f602052604090819020600360029091015560065490516315a4c08360e31b815260048101929092526001600160a01b03169063ad26041890602401600060405180830381600087803b1580156110fe57600080fd5b505af115801561086c573d6000803e3d6000fd5b60088054600954600a54600b805460ff90941694929391929161113490612627565b80601f016020809104026020016040519081016040528092919081815260200182805461116090612627565b80156111ad5780601f10611182576101008083540402835291602001916111ad565b820191906000526020600020905b81548152906001019060200180831161119057829003601f168201915b5050505050908060040154905085565b606060006111cb600d611a47565b67ffffffffffffffff8111156111e3576111e36126d4565b60405190808252806020026020018201604052801561124857816020015b611235604051806080016040528060006001600160a01b031681526020016060815260200160008152602001600081525090565b8152602001906001900390816112015790505b509050611255600d611a47565b61125e57919050565b60005b61126b600d611a47565b81101561139d57604080516080810190915280611289600d84611b4d565b6001600160a01b0390811682526006546020909201911663d84f55ee6112b0600d86611b4d565b6040516001600160e01b031960e084901b1681526001600160a01b03909116600482015260240160006040518083038186803b1580156112ef57600080fd5b505afa158015611303573d6000803e3d6000fd5b505050506040513d6000823e601f3d908101601f1916820160405261132b91908101906121ef565b8152602001600f600061133f600d86611b4d565b6001600160a01b03166001600160a01b03168152602001908152602001600020600101548152602001600081525082828151811061137f5761137f6126be565b6020026020010181905250808061139590612682565b915050611261565b506113bf81600060016113b0600d611a47565b6113ba91906125b7565b611b59565b905060006113cb610d4c565b5050905060006113e36113de600d611a47565b611cf8565b905061140a604051806040016040528060038152602001620391d160ed1b815250826119bd565b61143b6040518060400160405280600b81526020016a0283934bd32b837b7b61d160ad1b81525083602001516119bd565b61146b6040518060400160405280600a8152602001690372bb4b73732b9399d160b51b81525083604001516119bd565b61149f6040518060400160405280600581526020016403837bb9d160dd1b81525061149a838560400151611ed9565b6119bd565b60006114eb670de0b6b3a76400006114bb848660400151611ed9565b6114c591906125b7565b6114e56114da670de0b6b3a7640000866125b7565b602087015190611f23565b90611fd3565b9050611512604051806040016040528060038152602001620209d160ed1b815250826119bd565b60005b83604001518110156115c857611543604051806040016040528060018152602001603160f81b815250611977565b61157261156b84600184886040015161155c91906125b7565b61156691906125b7565b611ed9565b8390611f23565b858281518110611584576115846126be565b602002602001015160600181815250506115b6604051806040016040528060018152602001601960f91b815250611977565b806115c081612682565b915050611515565b506115eb604051806040016040528060018152602001603360f81b815250611977565b50919392505050565b60606000806000806116306040518060a00160405280600015158152602001600081526020016000815260200160608152602001600081525090565b600061163a610d4c565b600280549395509093509161164f9150612627565b80601f016020809104026020016040519081016040528092919081815260200182805461167b90612627565b80156116c85780601f1061169d576101008083540402835291602001916116c8565b820191906000526020600020905b8154815290600101906020018083116116ab57829003601f168201915b50505050509650600454955060035494506001549350600554925090919293949596565b60075460408051808201909152601581527410d05313115497d393d517d055551213d492569151605a1b6020820152906001600160a01b031633146117445760405162461bcd60e51b815260040161045a9190612412565b504260045460035461175691906124ff565b11604051806040016040528060148152602001731513d55493905351539517d21054d7d15391115160621b815250906117a25760405162461bcd60e51b815260040161045a9190612412565b50600654600154604051630a62bb0b60e21b81526000926001600160a01b03169163298aec2c916117eb9187916004016001600160a01b03929092168252602082015260400190565b60206040518083038186803b15801561180357600080fd5b505afa158015611817573d6000803e3d6000fd5b505050506040513d601f19601f8201168201806040525081019061183b91906121cd565b9050806040518060400160405280601181526020017014131056515497d393d517d293d2539151607a1b815250906118865760405162461bcd60e51b815260040161045a9190612412565b506000600f6000856001600160a01b03166001600160a01b0316815260200190815260200160002060020154116040518060400160405280601081526020016f1393d7d055151153541514d7d311519560821b815250906118fa5760405162461bcd60e51b815260040161045a9190612412565b506001600160a01b0383166000908152600f602052604081206001810184905560020180549161192983612618565b919050555042836001600160a01b03167f4713603fe21be537b9c9ca4c33240e81665fb6e4a681bdd1318c039f16b5aff68460405161196a91815260200190565b60405180910390a3505050565b6119ba8160405160240161198b9190612412565b60408051601f198184030181529190526020810180516001600160e01b031663104c13eb60e21b1790526120d7565b50565b61086f82826040516024016119d3929190612425565b60408051601f198184030181529190526020810180516001600160e01b0316632d839cb360e21b1790526120d7565b6119ba81604051602401611a1891815260200190565b60408051601f198184030181529190526020810180516001600160e01b031663f82c50f160e01b1790526120d7565b6000611a51825490565b92915050565b6000821580611a64575081155b15611a7157506000611a51565b81611a7f6002612710612545565b611a8b906000196125b7565b611a959190612545565b8311156040518060400160405280601c81526020017f4d4154485f4d554c5449504c49434154494f4e5f4f564552464c4f570000000081525090611aec5760405162461bcd60e51b815260040161045a9190612412565b50612710611afb600282612545565b611b058486612559565b611b0f91906124ff565b611b199190612545565b9392505050565b600081831115611b31575080611a51565b5090919050565b6000611b19836001600160a01b0384166120f8565b6000611b198383612147565b6060818312611b69575082611b19565b6000846002611b788686612578565b611b829190612517565b611b8c90866124be565b81518110611b9c57611b9c6126be565b602090810291909101015160400151905083835b808213611cc3575b82878381518110611bcb57611bcb6126be565b6020026020010151604001511115611bef5781611be781612662565b925050611bb8565b868181518110611c0157611c016126be565b602002602001015160400151831115611c265780611c1e816125fa565b915050611bef565b808213611cbe576000878381518110611c4157611c416126be565b60200260200101519050878281518110611c5d57611c5d6126be565b6020026020010151888481518110611c7757611c776126be565b602002602001018190525080888381518110611c9557611c956126be565b60200260200101819052508280611cab90612662565b9350508180611cb9906125fa565b925050505b611bb0565b80861215611cd857611cd6878783611b59565b505b84821215611ced57611ceb878387611b59565b505b509495945050505050565b6000600a821015611d8057600654604051633438d19960e21b8152600a60048201526001600160a01b039091169063d0e34664906024015b60206040518083038186803b158015611d4857600080fd5b505afa158015611d5c573d6000803e3d6000fd5b505050506040513d601f19601f82011682018060405250810190611a5191906122b5565b6014821015611dba57600654604051633438d19960e21b8152601460048201526001600160a01b039091169063d0e3466490602401611d30565b601e821015611df457600654604051633438d19960e21b8152601e60048201526001600160a01b039091169063d0e3466490602401611d30565b6028821015611e2e57600654604051633438d19960e21b8152602860048201526001600160a01b039091169063d0e3466490602401611d30565b6032821015611e6857600654604051633438d19960e21b8152603260048201526001600160a01b039091169063d0e3466490602401611d30565b6064821015611ea257600654604051633438d19960e21b8152606460048201526001600160a01b039091169063d0e3466490602401611d30565b600654604051633438d19960e21b81526103e860048201526001600160a01b039091169063d0e3466490602401611d30565b919050565b60008282611ef257670de0b6b3a7640000915050611a51565b60015b83811015611f1b57611f078286611f23565b915080611f1381612682565b915050611ef5565b509392505050565b6000821580611f30575081155b15611f3d57506000611a51565b81611f516002670de0b6b3a7640000612545565b611f5d906000196125b7565b611f679190612545565b8311156040518060400160405280601c81526020017f4d4154485f4d554c5449504c49434154494f4e5f4f564552464c4f570000000081525090611fbe5760405162461bcd60e51b815260040161045a9190612412565b50670de0b6b3a7640000611afb600282612545565b6040805180820190915260158152744d4154485f4449564953494f4e5f42595f5a45524f60581b6020820152600090826120205760405162461bcd60e51b815260040161045a9190612412565b50600061202e600284612545565b9050670de0b6b3a7640000612045826000196125b7565b61204f9190612545565b8411156040518060400160405280601c81526020017f4d4154485f4d554c5449504c49434154494f4e5f4f564552464c4f5700000000815250906120a65760405162461bcd60e51b815260040161045a9190612412565b5082816120bb670de0b6b3a764000087612559565b6120c591906124ff565b6120cf9190612545565b949350505050565b80516a636f6e736f6c652e6c6f67602083016000808483855afa5050505050565b600081815260018301602052604081205461213f57508154600181810184556000848152602080822090930184905584548482528286019093526040902091909155611a51565b506000611a51565b600082600001828154811061215e5761215e6126be565b9060005260206000200154905092915050565b80356001600160a01b0381168114611ed457600080fd5b60006020828403121561219a57600080fd5b611b1982612171565b600080604083850312156121b657600080fd5b6121bf83612171565b946020939093013593505050565b6000602082840312156121df57600080fd5b81518015158114611b1957600080fd5b60006020828403121561220157600080fd5b815167ffffffffffffffff8082111561221957600080fd5b818401915084601f83011261222d57600080fd5b81518181111561223f5761223f6126d4565b604051601f8201601f19908116603f01168101908382118183101715612267576122676126d4565b8160405282815287602084870101111561228057600080fd5b6122918360208301602088016125ce565b979650505050505050565b6000602082840312156122ae57600080fd5b5035919050565b6000602082840312156122c757600080fd5b5051919050565b600081518084526122e68160208601602086016125ce565b601f01601f19169290920160200192915050565b80511515825260208101516020830152604081015160408301526000606082015160a0606085015261232f60a08501826122ce565b608093840151949093019390935250919050565b60006020808301818452808551808352604092508286019150828160051b87010184880160005b838110156123cb57888303603f19018552815180516001600160a01b03168452878101516080898601819052906123a3828701826122ce565b838a0151878b015260609384015193909601929092525050938601939086019060010161236a565b509098975050505050505050565b851515815284602082015283604082015260a06060820152600061240060a08301856122ce565b90508260808301529695505050505050565b602081526000611b1960208301846122ce565b60408152600061243860408301856122ce565b90508260208301529392505050565b60e08152600061245a60e083018a6122ce565b88602084015287604084015286606084015285608084015282810360a084015261248481866122fa565b9150508260c083015298975050505050505050565b6060815260006124ac60608301866122fa565b60208301949094525060400152919050565b600080821280156001600160ff1b03849003851316156124e0576124e0612692565b600160ff1b83900384128116156124f9576124f9612692565b50500190565b6000821982111561251257612512612692565b500190565b600082612526576125266126a8565b600160ff1b82146000198414161561254057612540612692565b500590565b600082612554576125546126a8565b500490565b600081600019048311821515161561257357612573612692565b500290565b60008083128015600160ff1b85018412161561259657612596612692565b6001600160ff1b03840183138116156125b1576125b1612692565b50500390565b6000828210156125c9576125c9612692565b500390565b60005b838110156125e95781810151838201526020016125d1565b8381111561086c5750506000910152565b6000600160ff1b82141561261057612610612692565b506000190190565b60008161261057612610612692565b600181811c9082168061263b57607f821691505b6020821081141561265c57634e487b7160e01b600052602260045260246000fd5b50919050565b60006001600160ff1b0382141561267b5761267b612692565b5060010190565b600060001982141561267b5761267b5b634e487b7160e01b600052601160045260246000fd5b634e487b7160e01b600052601260045260246000fd5b634e487b7160e01b600052603260045260246000fd5b634e487b7160e01b600052604160045260246000fdfea26469706673582212208196eca73d3d87e95991f4475158f1a5e3177dc95720635d09672d9bf1b1dd8964736f6c63430008070033","opcodes":"PUSH1 0x80 PUSH1 0x40 MSTORE CALLVALUE DUP1 ISZERO PUSH3 0x11 JUMPI PUSH1 0x0 DUP1 REVERT JUMPDEST POP PUSH1 0x40 MLOAD PUSH3 0x2CDD CODESIZE SUB DUP1 PUSH3 0x2CDD DUP4 CODECOPY DUP2 ADD PUSH1 0x40 DUP2 SWAP1 MSTORE PUSH3 0x34 SWAP2 PUSH3 0x3FE JUMP JUMPDEST PUSH1 0x1 PUSH1 0x0 DUP2 SWAP1 SSTORE DUP6 SWAP1 SSTORE DUP4 MLOAD PUSH3 0x53 SWAP1 PUSH1 0x2 SWAP1 PUSH1 0x20 DUP8 ADD SWAP1 PUSH3 0x267 JUMP JUMPDEST POP PUSH1 0x3 DUP4 SWAP1 SSTORE PUSH1 0x6 DUP1 SLOAD PUSH1 0x1 PUSH1 0x1 PUSH1 0xA0 SHL SUB NOT AND PUSH1 0x1 PUSH1 0x1 PUSH1 0xA0 SHL SUB DUP5 AND SWAP1 DUP2 OR SWAP1 SWAP2 SSTORE PUSH1 0x40 DUP1 MLOAD PUSH4 0xC08D1FE5 PUSH1 0xE0 SHL DUP2 MSTORE SWAP1 MLOAD PUSH4 0xC08D1FE5 SWAP2 PUSH1 0x4 DUP1 DUP3 ADD SWAP3 PUSH1 0x20 SWAP3 SWAP1 SWAP2 SWAP1 DUP3 SWAP1 SUB ADD DUP2 DUP7 DUP1 EXTCODESIZE ISZERO DUP1 ISZERO PUSH3 0xAE JUMPI PUSH1 0x0 DUP1 REVERT JUMPDEST POP GAS STATICCALL ISZERO DUP1 ISZERO PUSH3 0xC3 JUMPI RETURNDATASIZE PUSH1 0x0 DUP1 RETURNDATACOPY RETURNDATASIZE PUSH1 0x0 REVERT JUMPDEST POP POP POP POP PUSH1 0x40 MLOAD RETURNDATASIZE PUSH1 0x1F NOT PUSH1 0x1F DUP3 ADD AND DUP3 ADD DUP1 PUSH1 0x40 MSTORE POP DUP2 ADD SWAP1 PUSH3 0xE9 SWAP2 SWAP1 PUSH3 0x3E4 JUMP JUMPDEST PUSH1 0x4 SWAP1 DUP2 SSTORE PUSH1 0x6 SLOAD PUSH1 0x40 DUP1 MLOAD PUSH4 0x4959D977 PUSH1 0xE0 SHL DUP2 MSTORE SWAP1 MLOAD PUSH1 0x1 PUSH1 0x1 PUSH1 0xA0 SHL SUB SWAP1 SWAP3 AND SWAP3 PUSH4 0x4959D977 SWAP3 DUP3 DUP3 ADD SWAP3 PUSH1 0x20 SWAP3 SWAP1 DUP3 SWAP1 SUB ADD DUP2 DUP7 DUP1 EXTCODESIZE ISZERO DUP1 ISZERO PUSH3 0x130 JUMPI PUSH1 0x0 DUP1 REVERT JUMPDEST POP GAS STATICCALL ISZERO DUP1 ISZERO PUSH3 0x145 JUMPI RETURNDATASIZE PUSH1 0x0 DUP1 RETURNDATACOPY RETURNDATASIZE PUSH1 0x0 REVERT JUMPDEST POP POP POP POP PUSH1 0x40 MLOAD RETURNDATASIZE PUSH1 0x1F NOT PUSH1 0x1F DUP3 ADD AND DUP3 ADD DUP1 PUSH1 0x40 MSTORE POP DUP2 ADD SWAP1 PUSH3 0x16B SWAP2 SWAP1 PUSH3 0x3E4 JUMP JUMPDEST PUSH1 0x5 SSTORE PUSH1 0x6 SLOAD PUSH1 0x40 DUP1 MLOAD PUSH4 0x1127A41D PUSH1 0xE3 SHL DUP2 MSTORE SWAP1 MLOAD PUSH1 0x1 PUSH1 0x1 PUSH1 0xA0 SHL SUB SWAP1 SWAP3 AND SWAP2 PUSH4 0x893D20E8 SWAP2 PUSH1 0x4 DUP1 DUP3 ADD SWAP3 PUSH1 0x20 SWAP3 SWAP1 SWAP2 SWAP1 DUP3 SWAP1 SUB ADD DUP2 DUP7 DUP1 EXTCODESIZE ISZERO DUP1 ISZERO PUSH3 0x1B4 JUMPI PUSH1 0x0 DUP1 REVERT JUMPDEST POP GAS STATICCALL ISZERO DUP1 ISZERO PUSH3 0x1C9 JUMPI RETURNDATASIZE PUSH1 0x0 DUP1 RETURNDATACOPY RETURNDATASIZE PUSH1 0x0 REVERT JUMPDEST POP POP POP POP PUSH1 0x40 MLOAD RETURNDATASIZE PUSH1 0x1F NOT PUSH1 0x1F DUP3 ADD AND DUP3 ADD DUP1 PUSH1 0x40 MSTORE POP DUP2 ADD SWAP1 PUSH3 0x1EF SWAP2 SWAP1 PUSH3 0x3BF JUMP JUMPDEST PUSH1 0x7 DUP1 SLOAD PUSH1 0x1 PUSH1 0x1 PUSH1 0xA0 SHL SUB NOT AND PUSH1 0x1 PUSH1 0x1 PUSH1 0xA0 SHL SUB SWAP3 SWAP1 SWAP3 AND SWAP2 SWAP1 SWAP2 OR SWAP1 SSTORE DUP1 MLOAD PUSH1 0x8 DUP1 SLOAD PUSH1 0xFF NOT AND SWAP2 ISZERO ISZERO SWAP2 SWAP1 SWAP2 OR DUP2 SSTORE PUSH1 0x20 DUP1 DUP4 ADD MLOAD PUSH1 0x9 SSTORE PUSH1 0x40 DUP4 ADD MLOAD PUSH1 0xA SSTORE PUSH1 0x60 DUP4 ADD MLOAD DUP1 MLOAD DUP5 SWAP4 SWAP3 PUSH3 0x24E SWAP3 PUSH1 0xB SWAP3 SWAP2 ADD SWAP1 PUSH3 0x267 JUMP JUMPDEST POP PUSH1 0x80 DUP3 ADD MLOAD DUP2 PUSH1 0x4 ADD SSTORE SWAP1 POP POP POP POP POP POP POP PUSH3 0x5AD JUMP JUMPDEST DUP3 DUP1 SLOAD PUSH3 0x275 SWAP1 PUSH3 0x55A JUMP JUMPDEST SWAP1 PUSH1 0x0 MSTORE PUSH1 0x20 PUSH1 0x0 KECCAK256 SWAP1 PUSH1 0x1F ADD PUSH1 0x20 SWAP1 DIV DUP2 ADD SWAP3 DUP3 PUSH3 0x299 JUMPI PUSH1 0x0 DUP6 SSTORE PUSH3 0x2E4 JUMP JUMPDEST DUP3 PUSH1 0x1F LT PUSH3 0x2B4 JUMPI DUP1 MLOAD PUSH1 0xFF NOT AND DUP4 DUP1 ADD OR DUP6 SSTORE PUSH3 0x2E4 JUMP JUMPDEST DUP3 DUP1 ADD PUSH1 0x1 ADD DUP6 SSTORE DUP3 ISZERO PUSH3 0x2E4 JUMPI SWAP2 DUP3 ADD JUMPDEST DUP3 DUP2 GT ISZERO PUSH3 0x2E4 JUMPI DUP3 MLOAD DUP3 SSTORE SWAP2 PUSH1 0x20 ADD SWAP2 SWAP1 PUSH1 0x1 ADD SWAP1 PUSH3 0x2C7 JUMP JUMPDEST POP PUSH3 0x2F2 SWAP3 SWAP2 POP PUSH3 0x2F6 JUMP JUMPDEST POP SWAP1 JUMP JUMPDEST JUMPDEST DUP1 DUP3 GT ISZERO PUSH3 0x2F2 JUMPI PUSH1 0x0 DUP2 SSTORE PUSH1 0x1 ADD PUSH3 0x2F7 JUMP JUMPDEST DUP1 MLOAD PUSH1 0x1 PUSH1 0x1 PUSH1 0xA0 SHL SUB DUP2 AND DUP2 EQ PUSH3 0x325 JUMPI PUSH1 0x0 DUP1 REVERT JUMPDEST SWAP2 SWAP1 POP JUMP JUMPDEST PUSH1 0x0 DUP3 PUSH1 0x1F DUP4 ADD SLT PUSH3 0x33C JUMPI PUSH1 0x0 DUP1 REVERT JUMPDEST DUP2 MLOAD PUSH1 0x1 PUSH1 0x1 PUSH1 0x40 SHL SUB DUP2 GT ISZERO PUSH3 0x358 JUMPI PUSH3 0x358 PUSH3 0x597 JUMP JUMPDEST PUSH1 0x20 PUSH3 0x36E PUSH1 0x1F DUP4 ADD PUSH1 0x1F NOT AND DUP3 ADD PUSH3 0x527 JUMP JUMPDEST DUP3 DUP2 MSTORE DUP6 DUP3 DUP5 DUP8 ADD ADD GT ISZERO PUSH3 0x383 JUMPI PUSH1 0x0 DUP1 REVERT JUMPDEST PUSH1 0x0 JUMPDEST DUP4 DUP2 LT ISZERO PUSH3 0x3A3 JUMPI DUP6 DUP2 ADD DUP4 ADD MLOAD DUP3 DUP3 ADD DUP5 ADD MSTORE DUP3 ADD PUSH3 0x386 JUMP JUMPDEST DUP4 DUP2 GT ISZERO PUSH3 0x3B5 JUMPI PUSH1 0x0 DUP4 DUP6 DUP5 ADD ADD MSTORE JUMPDEST POP SWAP6 SWAP5 POP POP POP POP POP JUMP JUMPDEST PUSH1 0x0 PUSH1 0x20 DUP3 DUP5 SUB SLT ISZERO PUSH3 0x3D2 JUMPI PUSH1 0x0 DUP1 REVERT JUMPDEST PUSH3 0x3DD DUP3 PUSH3 0x30D JUMP JUMPDEST SWAP4 SWAP3 POP POP POP JUMP JUMPDEST PUSH1 0x0 PUSH1 0x20 DUP3 DUP5 SUB SLT ISZERO PUSH3 0x3F7 JUMPI PUSH1 0x0 DUP1 REVERT JUMPDEST POP MLOAD SWAP2 SWAP1 POP JUMP JUMPDEST PUSH1 0x0 DUP1 PUSH1 0x0 DUP1 PUSH1 0x0 PUSH1 0xA0 DUP7 DUP9 SUB SLT ISZERO PUSH3 0x417 JUMPI PUSH1 0x0 DUP1 REVERT JUMPDEST DUP6 MLOAD PUSH1 0x20 DUP8 ADD MLOAD SWAP1 SWAP6 POP PUSH1 0x1 PUSH1 0x1 PUSH1 0x40 SHL SUB DUP1 DUP3 GT ISZERO PUSH3 0x437 JUMPI PUSH1 0x0 DUP1 REVERT JUMPDEST PUSH3 0x445 DUP10 DUP4 DUP11 ADD PUSH3 0x32A JUMP JUMPDEST SWAP6 POP PUSH1 0x40 DUP9 ADD MLOAD SWAP5 POP PUSH3 0x45C PUSH1 0x60 DUP10 ADD PUSH3 0x30D JUMP JUMPDEST SWAP4 POP PUSH1 0x80 DUP9 ADD MLOAD SWAP2 POP DUP1 DUP3 GT ISZERO PUSH3 0x473 JUMPI PUSH1 0x0 DUP1 REVERT JUMPDEST SWAP1 DUP8 ADD SWAP1 PUSH1 0xA0 DUP3 DUP11 SUB SLT ISZERO PUSH3 0x488 JUMPI PUSH1 0x0 DUP1 REVERT JUMPDEST PUSH3 0x492 PUSH3 0x4FC JUMP JUMPDEST DUP3 MLOAD DUP1 ISZERO ISZERO DUP2 EQ PUSH3 0x4A3 JUMPI PUSH1 0x0 DUP1 REVERT JUMPDEST DUP1 DUP3 MSTORE POP PUSH1 0x20 DUP4 ADD MLOAD PUSH1 0x20 DUP3 ADD MSTORE PUSH1 0x40 DUP4 ADD MLOAD PUSH1 0x40 DUP3 ADD MSTORE PUSH1 0x60 DUP4 ADD MLOAD DUP3 DUP2 GT ISZERO PUSH3 0x4CE JUMPI PUSH1 0x0 DUP1 REVERT JUMPDEST PUSH3 0x4DC DUP12 DUP3 DUP7 ADD PUSH3 0x32A JUMP JUMPDEST PUSH1 0x60 DUP4 ADD MSTORE POP PUSH1 0x80 DUP4 ADD MLOAD PUSH1 0x80 DUP3 ADD MSTORE DUP1 SWAP4 POP POP POP POP SWAP3 SWAP6 POP SWAP3 SWAP6 SWAP1 SWAP4 POP JUMP JUMPDEST PUSH1 0x40 MLOAD PUSH1 0xA0 DUP2 ADD PUSH1 0x1 PUSH1 0x1 PUSH1 0x40 SHL SUB DUP2 GT DUP3 DUP3 LT OR ISZERO PUSH3 0x521 JUMPI PUSH3 0x521 PUSH3 0x597 JUMP JUMPDEST PUSH1 0x40 MSTORE SWAP1 JUMP JUMPDEST PUSH1 0x40 MLOAD PUSH1 0x1F DUP3 ADD PUSH1 0x1F NOT AND DUP2 ADD PUSH1 0x1 PUSH1 0x1 PUSH1 0x40 SHL SUB DUP2 GT DUP3 DUP3 LT OR ISZERO PUSH3 0x552 JUMPI PUSH3 0x552 PUSH3 0x597 JUMP JUMPDEST PUSH1 0x40 MSTORE SWAP2 SWAP1 POP JUMP JUMPDEST PUSH1 0x1 DUP2 DUP2 SHR SWAP1 DUP3 AND DUP1 PUSH3 0x56F JUMPI PUSH1 0x7F DUP3 AND SWAP2 POP JUMPDEST PUSH1 0x20 DUP3 LT DUP2 EQ ISZERO PUSH3 0x591 JUMPI PUSH4 0x4E487B71 PUSH1 0xE0 SHL PUSH1 0x0 MSTORE PUSH1 0x22 PUSH1 0x4 MSTORE PUSH1 0x24 PUSH1 0x0 REVERT JUMPDEST POP SWAP2 SWAP1 POP JUMP JUMPDEST PUSH4 0x4E487B71 PUSH1 0xE0 SHL PUSH1 0x0 MSTORE PUSH1 0x41 PUSH1 0x4 MSTORE PUSH1 0x24 PUSH1 0x0 REVERT JUMPDEST PUSH2 0x2720 DUP1 PUSH3 0x5BD PUSH1 0x0 CODECOPY PUSH1 0x0 RETURN INVALID PUSH1 0x80 PUSH1 0x40 MSTORE PUSH1 0x4 CALLDATASIZE LT PUSH2 0x118 JUMPI PUSH1 0x0 CALLDATALOAD PUSH1 0xE0 SHR DUP1 PUSH4 0x78E97925 GT PUSH2 0xA0 JUMPI DUP1 PUSH4 0xC08D1FE5 GT PUSH2 0x64 JUMPI DUP1 PUSH4 0xC08D1FE5 EQ PUSH2 0x351 JUMPI DUP1 PUSH4 0xC29D72BC EQ PUSH2 0x367 JUMPI DUP1 PUSH4 0xD829055E EQ PUSH2 0x389 JUMPI DUP1 PUSH4 0xECB70FB7 EQ PUSH2 0x3B1 JUMPI DUP1 PUSH4 0xFBD53482 EQ PUSH2 0x3E2 JUMPI PUSH1 0x0 DUP1 REVERT JUMPDEST DUP1 PUSH4 0x78E97925 EQ PUSH2 0x27A JUMPI DUP1 PUSH4 0x7CE11861 EQ PUSH2 0x290 JUMPI DUP1 PUSH4 0x858DBF7D EQ PUSH2 0x298 JUMPI DUP1 PUSH4 0xAB632D4A EQ PUSH2 0x2BE JUMPI DUP1 PUSH4 0xAF640D0F EQ PUSH2 0x33B JUMPI PUSH1 0x0 DUP1 REVERT JUMPDEST DUP1 PUSH4 0x4959D977 GT PUSH2 0xE7 JUMPI DUP1 PUSH4 0x4959D977 EQ PUSH2 0x1F5 JUMPI DUP1 PUSH4 0x4D633A8F EQ PUSH2 0x219 JUMPI DUP1 PUSH4 0x50ED9193 EQ PUSH2 0x22E JUMPI DUP1 PUSH4 0x63DF0EF7 EQ PUSH2 0x236 JUMPI DUP1 PUSH4 0x699C8F33 EQ PUSH2 0x256 JUMPI PUSH1 0x0 DUP1 REVERT JUMPDEST DUP1 PUSH4 0x69F5BF7 EQ PUSH2 0x15B JUMPI DUP1 PUSH4 0x6FDDE03 EQ PUSH2 0x17D JUMPI DUP1 PUSH4 0x45446D71 EQ PUSH2 0x1A8 JUMPI DUP1 PUSH4 0x48D37A58 EQ PUSH2 0x1E0 JUMPI PUSH1 0x0 DUP1 REVERT JUMPDEST CALLDATASIZE PUSH2 0x156 JUMPI PUSH1 0x40 MLOAD CALLVALUE DUP2 MSTORE TIMESTAMP SWAP1 CALLER SWAP1 PUSH32 0x92023DD282DE3EEA749A3A27A58271D70F04C1F7905FCE2E1996EC9BDFCCF33B SWAP1 PUSH1 0x20 ADD PUSH1 0x40 MLOAD DUP1 SWAP2 SUB SWAP1 LOG3 STOP JUMPDEST PUSH1 0x0 DUP1 REVERT JUMPDEST CALLVALUE DUP1 ISZERO PUSH2 0x167 JUMPI PUSH1 0x0 DUP1 REVERT JUMPDEST POP PUSH2 0x17B PUSH2 0x176 CALLDATASIZE PUSH1 0x4 PUSH2 0x229C JUMP JUMPDEST PUSH2 0x402 JUMP JUMPDEST STOP JUMPDEST CALLVALUE DUP1 ISZERO PUSH2 0x189 JUMPI PUSH1 0x0 DUP1 REVERT JUMPDEST POP PUSH2 0x192 PUSH2 0x518 JUMP JUMPDEST PUSH1 0x40 MLOAD PUSH2 0x19F SWAP2 SWAP1 PUSH2 0x2412 JUMP JUMPDEST PUSH1 0x40 MLOAD DUP1 SWAP2 SUB SWAP1 RETURN JUMPDEST CALLVALUE DUP1 ISZERO PUSH2 0x1B4 JUMPI PUSH1 0x0 DUP1 REVERT JUMPDEST POP PUSH1 0x7 SLOAD PUSH2 0x1C8 SWAP1 PUSH1 0x1 PUSH1 0x1 PUSH1 0xA0 SHL SUB AND DUP2 JUMP JUMPDEST PUSH1 0x40 MLOAD PUSH1 0x1 PUSH1 0x1 PUSH1 0xA0 SHL SUB SWAP1 SWAP2 AND DUP2 MSTORE PUSH1 0x20 ADD PUSH2 0x19F JUMP JUMPDEST CALLVALUE DUP1 ISZERO PUSH2 0x1EC JUMPI PUSH1 0x0 DUP1 REVERT JUMPDEST POP PUSH2 0x17B PUSH2 0x5A6 JUMP JUMPDEST CALLVALUE DUP1 ISZERO PUSH2 0x201 JUMPI PUSH1 0x0 DUP1 REVERT JUMPDEST POP PUSH2 0x20B PUSH1 0x5 SLOAD DUP2 JUMP JUMPDEST PUSH1 0x40 MLOAD SWAP1 DUP2 MSTORE PUSH1 0x20 ADD PUSH2 0x19F JUMP JUMPDEST CALLVALUE DUP1 ISZERO PUSH2 0x225 JUMPI PUSH1 0x0 DUP1 REVERT JUMPDEST POP PUSH2 0x17B PUSH2 0x873 JUMP JUMPDEST PUSH2 0x17B PUSH2 0xB51 JUMP JUMPDEST CALLVALUE DUP1 ISZERO PUSH2 0x242 JUMPI PUSH1 0x0 DUP1 REVERT JUMPDEST POP PUSH1 0x6 SLOAD PUSH2 0x1C8 SWAP1 PUSH1 0x1 PUSH1 0x1 PUSH1 0xA0 SHL SUB AND DUP2 JUMP JUMPDEST CALLVALUE DUP1 ISZERO PUSH2 0x262 JUMPI PUSH1 0x0 DUP1 REVERT JUMPDEST POP PUSH2 0x26B PUSH2 0xD4C JUMP JUMPDEST PUSH1 0x40 MLOAD PUSH2 0x19F SWAP4 SWAP3 SWAP2 SWAP1 PUSH2 0x2499 JUMP JUMPDEST CALLVALUE DUP1 ISZERO PUSH2 0x286 JUMPI PUSH1 0x0 DUP1 REVERT JUMPDEST POP PUSH2 0x20B PUSH1 0x3 SLOAD DUP2 JUMP JUMPDEST PUSH2 0x17B PUSH2 0xFE1 JUMP JUMPDEST CALLVALUE DUP1 ISZERO PUSH2 0x2A4 JUMPI PUSH1 0x0 DUP1 REVERT JUMPDEST POP PUSH2 0x2AD PUSH2 0x1112 JUMP JUMPDEST PUSH1 0x40 MLOAD PUSH2 0x19F SWAP6 SWAP5 SWAP4 SWAP3 SWAP2 SWAP1 PUSH2 0x23D9 JUMP JUMPDEST CALLVALUE DUP1 ISZERO PUSH2 0x2CA JUMPI PUSH1 0x0 DUP1 REVERT JUMPDEST POP PUSH2 0x30E PUSH2 0x2D9 CALLDATASIZE PUSH1 0x4 PUSH2 0x2188 JUMP JUMPDEST PUSH1 0xF PUSH1 0x20 MSTORE PUSH1 0x0 SWAP1 DUP2 MSTORE PUSH1 0x40 SWAP1 KECCAK256 DUP1 SLOAD PUSH1 0x1 DUP3 ADD SLOAD PUSH1 0x2 DUP4 ADD SLOAD PUSH1 0x3 DUP5 ADD SLOAD PUSH1 0x4 DUP6 ADD SLOAD PUSH1 0x5 SWAP1 SWAP6 ADD SLOAD SWAP4 SWAP5 SWAP3 SWAP4 SWAP2 SWAP3 SWAP1 SWAP2 DUP7 JUMP JUMPDEST PUSH1 0x40 DUP1 MLOAD SWAP7 DUP8 MSTORE PUSH1 0x20 DUP8 ADD SWAP6 SWAP1 SWAP6 MSTORE SWAP4 DUP6 ADD SWAP3 SWAP1 SWAP3 MSTORE PUSH1 0x60 DUP5 ADD MSTORE PUSH1 0x80 DUP4 ADD MSTORE PUSH1 0xA0 DUP3 ADD MSTORE PUSH1 0xC0 ADD PUSH2 0x19F JUMP JUMPDEST CALLVALUE DUP1 ISZERO PUSH2 0x347 JUMPI PUSH1 0x0 DUP1 REVERT JUMPDEST POP PUSH2 0x20B PUSH1 0x1 SLOAD DUP2 JUMP JUMPDEST CALLVALUE DUP1 ISZERO PUSH2 0x35D JUMPI PUSH1 0x0 DUP1 REVERT JUMPDEST POP PUSH2 0x20B PUSH1 0x4 SLOAD DUP2 JUMP JUMPDEST CALLVALUE DUP1 ISZERO PUSH2 0x373 JUMPI PUSH1 0x0 DUP1 REVERT JUMPDEST POP PUSH2 0x37C PUSH2 0x11BD JUMP JUMPDEST PUSH1 0x40 MLOAD PUSH2 0x19F SWAP2 SWAP1 PUSH2 0x2343 JUMP JUMPDEST CALLVALUE DUP1 ISZERO PUSH2 0x395 JUMPI PUSH1 0x0 DUP1 REVERT JUMPDEST POP PUSH2 0x39E PUSH2 0x15F4 JUMP JUMPDEST PUSH1 0x40 MLOAD PUSH2 0x19F SWAP8 SWAP7 SWAP6 SWAP5 SWAP4 SWAP3 SWAP2 SWAP1 PUSH2 0x2447 JUMP JUMPDEST CALLVALUE DUP1 ISZERO PUSH2 0x3BD JUMPI PUSH1 0x0 DUP1 REVERT JUMPDEST POP PUSH1 0x7 SLOAD PUSH2 0x3D2 SWAP1 PUSH1 0x1 PUSH1 0xA0 SHL SWAP1 DIV PUSH1 0xFF AND DUP2 JUMP JUMPDEST PUSH1 0x40 MLOAD SWAP1 ISZERO ISZERO DUP2 MSTORE PUSH1 0x20 ADD PUSH2 0x19F JUMP JUMPDEST CALLVALUE DUP1 ISZERO PUSH2 0x3EE JUMPI PUSH1 0x0 DUP1 REVERT JUMPDEST POP PUSH2 0x17B PUSH2 0x3FD CALLDATASIZE PUSH1 0x4 PUSH2 0x21A3 JUMP JUMPDEST PUSH2 0x16EC JUMP JUMPDEST PUSH1 0x7 SLOAD PUSH1 0x40 DUP1 MLOAD DUP1 DUP3 ADD SWAP1 SWAP2 MSTORE PUSH1 0x15 DUP2 MSTORE PUSH21 0x10D05313115497D393D517D055551213D492569151 PUSH1 0x5A SHL PUSH1 0x20 DUP3 ADD MSTORE SWAP1 PUSH1 0x1 PUSH1 0x1 PUSH1 0xA0 SHL SUB AND CALLER EQ PUSH2 0x463 JUMPI PUSH1 0x40 MLOAD PUSH3 0x461BCD PUSH1 0xE5 SHL DUP2 MSTORE PUSH1 0x4 ADD PUSH2 0x45A SWAP2 SWAP1 PUSH2 0x2412 JUMP JUMPDEST PUSH1 0x40 MLOAD DUP1 SWAP2 SUB SWAP1 REVERT JUMPDEST POP PUSH1 0x40 DUP1 MLOAD DUP1 DUP3 ADD SWAP1 SWAP2 MSTORE PUSH1 0x10 DUP2 MSTORE PUSH16 0x4E4F545F454E4F5547485F46554E4453 PUSH1 0x80 SHL PUSH1 0x20 DUP3 ADD MSTORE SELFBALANCE DUP3 GT ISZERO PUSH2 0x4AC JUMPI PUSH1 0x40 MLOAD PUSH3 0x461BCD PUSH1 0xE5 SHL DUP2 MSTORE PUSH1 0x4 ADD PUSH2 0x45A SWAP2 SWAP1 PUSH2 0x2412 JUMP JUMPDEST POP PUSH1 0x40 MLOAD CALLER SWAP1 DUP3 ISZERO PUSH2 0x8FC MUL SWAP1 DUP4 SWAP1 PUSH1 0x0 DUP2 DUP2 DUP2 DUP6 DUP9 DUP9 CALL SWAP4 POP POP POP POP ISZERO DUP1 ISZERO PUSH2 0x4DA JUMPI RETURNDATASIZE PUSH1 0x0 DUP1 RETURNDATACOPY RETURNDATASIZE PUSH1 0x0 REVERT JUMPDEST POP TIMESTAMP PUSH32 0xD66662C0DED9E58FD31D5E44944BCFD07FFC15E6927ECC1382E7941CB7BD24C4 DUP3 PUSH1 0x40 MLOAD PUSH2 0x50D SWAP2 DUP2 MSTORE PUSH1 0x20 ADD SWAP1 JUMP JUMPDEST PUSH1 0x40 MLOAD DUP1 SWAP2 SUB SWAP1 LOG2 POP JUMP JUMPDEST PUSH1 0x2 DUP1 SLOAD PUSH2 0x525 SWAP1 PUSH2 0x2627 JUMP JUMPDEST DUP1 PUSH1 0x1F ADD PUSH1 0x20 DUP1 SWAP2 DIV MUL PUSH1 0x20 ADD PUSH1 0x40 MLOAD SWAP1 DUP2 ADD PUSH1 0x40 MSTORE DUP1 SWAP3 SWAP2 SWAP1 DUP2 DUP2 MSTORE PUSH1 0x20 ADD DUP3 DUP1 SLOAD PUSH2 0x551 SWAP1 PUSH2 0x2627 JUMP JUMPDEST DUP1 ISZERO PUSH2 0x59E JUMPI DUP1 PUSH1 0x1F LT PUSH2 0x573 JUMPI PUSH2 0x100 DUP1 DUP4 SLOAD DIV MUL DUP4 MSTORE SWAP2 PUSH1 0x20 ADD SWAP2 PUSH2 0x59E JUMP JUMPDEST DUP3 ADD SWAP2 SWAP1 PUSH1 0x0 MSTORE PUSH1 0x20 PUSH1 0x0 KECCAK256 SWAP1 JUMPDEST DUP2 SLOAD DUP2 MSTORE SWAP1 PUSH1 0x1 ADD SWAP1 PUSH1 0x20 ADD DUP1 DUP4 GT PUSH2 0x581 JUMPI DUP3 SWAP1 SUB PUSH1 0x1F AND DUP3 ADD SWAP2 JUMPDEST POP POP POP POP POP DUP2 JUMP JUMPDEST PUSH2 0x5D5 PUSH1 0x40 MLOAD DUP1 PUSH1 0x40 ADD PUSH1 0x40 MSTORE DUP1 PUSH1 0xE DUP2 MSTORE PUSH1 0x20 ADD PUSH14 0x5769746864726177207072697A65 PUSH1 0x90 SHL DUP2 MSTORE POP PUSH2 0x1977 JUMP JUMPDEST TIMESTAMP PUSH1 0x4 SLOAD PUSH1 0x3 SLOAD PUSH2 0x5E6 SWAP2 SWAP1 PUSH2 0x24FF JUMP JUMPDEST LT PUSH1 0x40 MLOAD DUP1 PUSH1 0x40 ADD PUSH1 0x40 MSTORE DUP1 PUSH1 0x12 DUP2 MSTORE PUSH1 0x20 ADD PUSH18 0x544F55524E414D454E545F49535F4C495645 PUSH1 0x70 SHL DUP2 MSTORE POP SWAP1 PUSH2 0x630 JUMPI PUSH1 0x40 MLOAD PUSH3 0x461BCD PUSH1 0xE5 SHL DUP2 MSTORE PUSH1 0x4 ADD PUSH2 0x45A SWAP2 SWAP1 PUSH2 0x2412 JUMP JUMPDEST POP PUSH2 0x66F PUSH1 0x40 MLOAD DUP1 PUSH1 0x40 ADD PUSH1 0x40 MSTORE DUP1 PUSH1 0x1F DUP2 MSTORE PUSH1 0x20 ADD PUSH32 0x544F55524E414D454E545F4841535F454E4445442048415320454E4445442000 DUP2 MSTORE POP PUSH2 0x1977 JUMP JUMPDEST PUSH1 0x6 SLOAD PUSH1 0x1 SLOAD PUSH1 0x40 MLOAD PUSH4 0xA62BB0B PUSH1 0xE2 SHL DUP2 MSTORE CALLER PUSH1 0x4 DUP3 ADD MSTORE PUSH1 0x24 DUP2 ADD SWAP2 SWAP1 SWAP2 MSTORE PUSH1 0x0 SWAP2 PUSH1 0x1 PUSH1 0x1 PUSH1 0xA0 SHL SUB AND SWAP1 PUSH4 0x298AEC2C SWAP1 PUSH1 0x44 ADD PUSH1 0x20 PUSH1 0x40 MLOAD DUP1 DUP4 SUB DUP2 DUP7 DUP1 EXTCODESIZE ISZERO DUP1 ISZERO PUSH2 0x6BE JUMPI PUSH1 0x0 DUP1 REVERT JUMPDEST POP GAS STATICCALL ISZERO DUP1 ISZERO PUSH2 0x6D2 JUMPI RETURNDATASIZE PUSH1 0x0 DUP1 RETURNDATACOPY RETURNDATASIZE PUSH1 0x0 REVERT JUMPDEST POP POP POP POP PUSH1 0x40 MLOAD RETURNDATASIZE PUSH1 0x1F NOT PUSH1 0x1F DUP3 ADD AND DUP3 ADD DUP1 PUSH1 0x40 MSTORE POP DUP2 ADD SWAP1 PUSH2 0x6F6 SWAP2 SWAP1 PUSH2 0x21CD JUMP JUMPDEST SWAP1 POP PUSH2 0x72F PUSH1 0x40 MLOAD DUP1 PUSH1 0x40 ADD PUSH1 0x40 MSTORE DUP1 PUSH1 0x16 DUP2 MSTORE PUSH1 0x20 ADD PUSH22 0x18DA1958DADA5B99C81C1B185E595C881A9BDA5B9959 PUSH1 0x52 SHL DUP2 MSTORE POP PUSH2 0x1977 JUMP JUMPDEST PUSH1 0x40 DUP1 MLOAD DUP1 DUP3 ADD SWAP1 SWAP2 MSTORE PUSH1 0x11 DUP2 MSTORE PUSH17 0x14131056515497D393D517D293D2539151 PUSH1 0x7A SHL PUSH1 0x20 DUP3 ADD MSTORE DUP2 PUSH2 0x775 JUMPI PUSH1 0x40 MLOAD PUSH3 0x461BCD PUSH1 0xE5 SHL DUP2 MSTORE PUSH1 0x4 ADD PUSH2 0x45A SWAP2 SWAP1 PUSH2 0x2412 JUMP JUMPDEST POP PUSH2 0x7A4 PUSH1 0x40 MLOAD DUP1 PUSH1 0x40 ADD PUSH1 0x40 MSTORE DUP1 PUSH1 0xD DUP2 MSTORE PUSH1 0x20 ADD PUSH13 0x141B185E595C881A9BDA5B9959 PUSH1 0x9A SHL DUP2 MSTORE POP PUSH2 0x1977 JUMP JUMPDEST CALLER PUSH1 0x0 SWAP1 DUP2 MSTORE PUSH1 0xF PUSH1 0x20 SWAP1 DUP2 MSTORE PUSH1 0x40 SWAP2 DUP3 SWAP1 KECCAK256 DUP3 MLOAD DUP1 DUP5 ADD SWAP1 SWAP4 MSTORE PUSH1 0xB DUP4 MSTORE PUSH11 0x506C617965722068657265 PUSH1 0xA8 SHL SWAP2 DUP4 ADD SWAP2 SWAP1 SWAP2 MSTORE SWAP1 PUSH2 0x7E3 SWAP1 PUSH2 0x1977 JUMP JUMPDEST PUSH2 0x817 PUSH1 0x40 MLOAD DUP1 PUSH1 0x40 ADD PUSH1 0x40 MSTORE DUP1 PUSH1 0xE DUP2 MSTORE PUSH1 0x20 ADD PUSH14 0x756E636C61696D65645072697A65 PUSH1 0x90 SHL DUP2 MSTORE POP DUP3 PUSH1 0x5 ADD SLOAD PUSH2 0x19BD JUMP JUMPDEST PUSH1 0x5 DUP2 ADD SLOAD ISZERO PUSH2 0x86F JUMPI PUSH1 0x5 DUP2 ADD SLOAD PUSH2 0x82F DUP2 PUSH2 0x1A02 JUMP JUMPDEST PUSH2 0x838 SELFBALANCE PUSH2 0x1A02 JUMP JUMPDEST PUSH1 0x0 PUSH1 0x5 DUP4 ADD DUP2 SWAP1 SSTORE PUSH1 0x40 MLOAD CALLER SWAP2 DUP4 ISZERO PUSH2 0x8FC MUL SWAP2 DUP5 SWAP2 DUP2 DUP2 DUP2 DUP6 DUP9 DUP9 CALL SWAP4 POP POP POP POP ISZERO DUP1 ISZERO PUSH2 0x86C JUMPI RETURNDATASIZE PUSH1 0x0 DUP1 RETURNDATACOPY RETURNDATASIZE PUSH1 0x0 REVERT JUMPDEST POP POP JUMPDEST POP POP JUMP JUMPDEST PUSH1 0x7 SLOAD PUSH1 0x40 DUP1 MLOAD DUP1 DUP3 ADD SWAP1 SWAP2 MSTORE PUSH1 0x15 DUP2 MSTORE PUSH21 0x10D05313115497D393D517D055551213D492569151 PUSH1 0x5A SHL PUSH1 0x20 DUP3 ADD MSTORE SWAP1 PUSH1 0x1 PUSH1 0x1 PUSH1 0xA0 SHL SUB AND CALLER EQ PUSH2 0x8CB JUMPI PUSH1 0x40 MLOAD PUSH3 0x461BCD PUSH1 0xE5 SHL DUP2 MSTORE PUSH1 0x4 ADD PUSH2 0x45A SWAP2 SWAP1 PUSH2 0x2412 JUMP JUMPDEST POP TIMESTAMP PUSH1 0x4 SLOAD PUSH1 0x3 SLOAD PUSH2 0x8DD SWAP2 SWAP1 PUSH2 0x24FF JUMP JUMPDEST LT PUSH1 0x40 MLOAD DUP1 PUSH1 0x40 ADD PUSH1 0x40 MSTORE DUP1 PUSH1 0x12 DUP2 MSTORE PUSH1 0x20 ADD PUSH18 0x544F55524E414D454E545F49535F4C495645 PUSH1 0x70 SHL DUP2 MSTORE POP SWAP1 PUSH2 0x927 JUMPI PUSH1 0x40 MLOAD PUSH3 0x461BCD PUSH1 0xE5 SHL DUP2 MSTORE PUSH1 0x4 ADD PUSH2 0x45A SWAP2 SWAP1 PUSH2 0x2412 JUMP JUMPDEST POP PUSH1 0x7 SLOAD PUSH1 0x40 DUP1 MLOAD DUP1 DUP3 ADD SWAP1 SWAP2 MSTORE PUSH1 0x14 DUP2 MSTORE PUSH20 0x1513D55493905351539517D21054D7D153911151 PUSH1 0x62 SHL PUSH1 0x20 DUP3 ADD MSTORE SWAP1 PUSH1 0x1 PUSH1 0xA0 SHL SWAP1 DIV PUSH1 0xFF AND ISZERO PUSH2 0x97F JUMPI PUSH1 0x40 MLOAD PUSH3 0x461BCD PUSH1 0xE5 SHL DUP2 MSTORE PUSH1 0x4 ADD PUSH2 0x45A SWAP2 SWAP1 PUSH2 0x2412 JUMP JUMPDEST POP PUSH1 0x7 DUP1 SLOAD PUSH1 0xFF PUSH1 0xA0 SHL NOT AND PUSH1 0x1 PUSH1 0xA0 SHL OR SWAP1 SSTORE PUSH1 0x0 PUSH2 0x99D PUSH2 0x11BD JUMP JUMPDEST SWAP1 POP PUSH1 0x0 JUMPDEST PUSH2 0x9AC PUSH1 0xD PUSH2 0x1A47 JUMP JUMPDEST DUP2 LT ISZERO PUSH2 0x86F JUMPI PUSH1 0x40 MLOAD DUP1 PUSH1 0xC0 ADD PUSH1 0x40 MSTORE DUP1 DUP3 PUSH1 0x1 PUSH2 0x9CB SWAP2 SWAP1 PUSH2 0x24FF JUMP JUMPDEST DUP2 MSTORE PUSH1 0x20 ADD DUP4 DUP4 DUP2 MLOAD DUP2 LT PUSH2 0x9E2 JUMPI PUSH2 0x9E2 PUSH2 0x26BE JUMP JUMPDEST PUSH1 0x20 MUL PUSH1 0x20 ADD ADD MLOAD PUSH1 0x40 ADD MLOAD DUP2 MSTORE PUSH1 0x20 ADD PUSH1 0xF PUSH1 0x0 DUP6 DUP6 DUP2 MLOAD DUP2 LT PUSH2 0xA09 JUMPI PUSH2 0xA09 PUSH2 0x26BE JUMP JUMPDEST PUSH1 0x20 MUL PUSH1 0x20 ADD ADD MLOAD PUSH1 0x0 ADD MLOAD PUSH1 0x1 PUSH1 0x1 PUSH1 0xA0 SHL SUB AND PUSH1 0x1 PUSH1 0x1 PUSH1 0xA0 SHL SUB AND DUP2 MSTORE PUSH1 0x20 ADD SWAP1 DUP2 MSTORE PUSH1 0x20 ADD PUSH1 0x0 KECCAK256 PUSH1 0x2 ADD SLOAD DUP2 MSTORE PUSH1 0x20 ADD PUSH1 0xF PUSH1 0x0 DUP6 DUP6 DUP2 MLOAD DUP2 LT PUSH2 0xA54 JUMPI PUSH2 0xA54 PUSH2 0x26BE JUMP JUMPDEST PUSH1 0x20 MUL PUSH1 0x20 ADD ADD MLOAD PUSH1 0x0 ADD MLOAD PUSH1 0x1 PUSH1 0x1 PUSH1 0xA0 SHL SUB AND PUSH1 0x1 PUSH1 0x1 PUSH1 0xA0 SHL SUB AND DUP2 MSTORE PUSH1 0x20 ADD SWAP1 DUP2 MSTORE PUSH1 0x20 ADD PUSH1 0x0 KECCAK256 PUSH1 0x3 ADD SLOAD DUP2 MSTORE PUSH1 0x20 ADD DUP4 DUP4 DUP2 MLOAD DUP2 LT PUSH2 0xA9B JUMPI PUSH2 0xA9B PUSH2 0x26BE JUMP JUMPDEST PUSH1 0x20 MUL PUSH1 0x20 ADD ADD MLOAD PUSH1 0x60 ADD MLOAD DUP2 MSTORE PUSH1 0x20 ADD DUP4 DUP4 DUP2 MLOAD DUP2 LT PUSH2 0xABE JUMPI PUSH2 0xABE PUSH2 0x26BE JUMP JUMPDEST PUSH1 0x20 MUL PUSH1 0x20 ADD ADD MLOAD PUSH1 0x60 ADD MLOAD DUP2 MSTORE POP PUSH1 0xF PUSH1 0x0 DUP5 DUP5 DUP2 MLOAD DUP2 LT PUSH2 0xAE3 JUMPI PUSH2 0xAE3 PUSH2 0x26BE JUMP JUMPDEST PUSH1 0x20 SWAP1 DUP2 MUL SWAP2 SWAP1 SWAP2 ADD DUP2 ADD MLOAD MLOAD PUSH1 0x1 PUSH1 0x1 PUSH1 0xA0 SHL SUB AND DUP3 MSTORE DUP2 DUP2 ADD SWAP3 SWAP1 SWAP3 MSTORE PUSH1 0x40 SWAP1 DUP2 ADD PUSH1 0x0 KECCAK256 DUP4 MLOAD DUP2 SSTORE SWAP2 DUP4 ADD MLOAD PUSH1 0x1 DUP4 ADD SSTORE DUP3 ADD MLOAD PUSH1 0x2 DUP3 ADD SSTORE PUSH1 0x60 DUP3 ADD MLOAD PUSH1 0x3 DUP3 ADD SSTORE PUSH1 0x80 DUP3 ADD MLOAD PUSH1 0x4 DUP3 ADD SSTORE PUSH1 0xA0 SWAP1 SWAP2 ADD MLOAD PUSH1 0x5 SWAP1 SWAP2 ADD SSTORE DUP1 PUSH2 0xB49 DUP2 PUSH2 0x2682 JUMP JUMPDEST SWAP2 POP POP PUSH2 0x9A2 JUMP JUMPDEST TIMESTAMP PUSH1 0x4 SLOAD PUSH1 0x3 SLOAD PUSH2 0xB62 SWAP2 SWAP1 PUSH2 0x24FF JUMP JUMPDEST GT PUSH1 0x40 MLOAD DUP1 PUSH1 0x40 ADD PUSH1 0x40 MSTORE DUP1 PUSH1 0x14 DUP2 MSTORE PUSH1 0x20 ADD PUSH20 0x1513D55493905351539517D21054D7D153911151 PUSH1 0x62 SHL DUP2 MSTORE POP SWAP1 PUSH2 0xBAE JUMPI PUSH1 0x40 MLOAD PUSH3 0x461BCD PUSH1 0xE5 SHL DUP2 MSTORE PUSH1 0x4 ADD PUSH2 0x45A SWAP2 SWAP1 PUSH2 0x2412 JUMP JUMPDEST POP PUSH1 0x6 SLOAD PUSH1 0x1 SLOAD PUSH1 0x40 MLOAD PUSH4 0xA62BB0B PUSH1 0xE2 SHL DUP2 MSTORE CALLER PUSH1 0x4 DUP3 ADD MSTORE PUSH1 0x24 DUP2 ADD SWAP2 SWAP1 SWAP2 MSTORE PUSH1 0x0 SWAP2 PUSH1 0x1 PUSH1 0x1 PUSH1 0xA0 SHL SUB AND SWAP1 PUSH4 0x298AEC2C SWAP1 PUSH1 0x44 ADD PUSH1 0x20 PUSH1 0x40 MLOAD DUP1 DUP4 SUB DUP2 DUP7 DUP1 EXTCODESIZE ISZERO DUP1 ISZERO PUSH2 0xBFE JUMPI PUSH1 0x0 DUP1 REVERT JUMPDEST POP GAS STATICCALL ISZERO DUP1 ISZERO PUSH2 0xC12 JUMPI RETURNDATASIZE PUSH1 0x0 DUP1 RETURNDATACOPY RETURNDATASIZE PUSH1 0x0 REVERT JUMPDEST POP POP POP POP PUSH1 0x40 MLOAD RETURNDATASIZE PUSH1 0x1F NOT PUSH1 0x1F DUP3 ADD AND DUP3 ADD DUP1 PUSH1 0x40 MSTORE POP DUP2 ADD SWAP1 PUSH2 0xC36 SWAP2 SWAP1 PUSH2 0x21CD JUMP JUMPDEST SWAP1 POP DUP1 PUSH1 0x40 MLOAD DUP1 PUSH1 0x40 ADD PUSH1 0x40 MSTORE DUP1 PUSH1 0x11 DUP2 MSTORE PUSH1 0x20 ADD PUSH17 0x14131056515497D393D517D293D2539151 PUSH1 0x7A SHL DUP2 MSTORE POP SWAP1 PUSH2 0xC81 JUMPI PUSH1 0x40 MLOAD PUSH3 0x461BCD PUSH1 0xE5 SHL DUP2 MSTORE PUSH1 0x4 ADD PUSH2 0x45A SWAP2 SWAP1 PUSH2 0x2412 JUMP JUMPDEST POP PUSH1 0x5 SLOAD CALLVALUE EQ PUSH1 0x40 MLOAD DUP1 PUSH1 0x40 ADD PUSH1 0x40 MSTORE DUP1 PUSH1 0x19 DUP2 MSTORE PUSH1 0x20 ADD PUSH25 0x1393D517D15393D551D217D195539114D7D41493D592511151 PUSH1 0x3A SHL DUP2 MSTORE POP SWAP1 PUSH2 0xCD7 JUMPI PUSH1 0x40 MLOAD PUSH3 0x461BCD PUSH1 0xE5 SHL DUP2 MSTORE PUSH1 0x4 ADD PUSH2 0x45A SWAP2 SWAP1 PUSH2 0x2412 JUMP JUMPDEST POP CALLER PUSH1 0x0 SWAP1 DUP2 MSTORE PUSH1 0xF PUSH1 0x20 SWAP1 DUP2 MSTORE PUSH1 0x40 SWAP2 DUP3 SWAP1 KECCAK256 PUSH1 0x2 ADD SLOAD DUP3 MLOAD DUP1 DUP5 ADD SWAP1 SWAP4 MSTORE PUSH1 0xD DUP4 MSTORE PUSH13 0x1055151153541514D7D3115195 PUSH1 0x9A SHL SWAP2 DUP4 ADD SWAP2 SWAP1 SWAP2 MSTORE ISZERO PUSH2 0xD31 JUMPI PUSH1 0x40 MLOAD PUSH3 0x461BCD PUSH1 0xE5 SHL DUP2 MSTORE PUSH1 0x4 ADD PUSH2 0x45A SWAP2 SWAP1 PUSH2 0x2412 JUMP JUMPDEST POP POP CALLER PUSH1 0x0 SWAP1 DUP2 MSTORE PUSH1 0xF PUSH1 0x20 MSTORE PUSH1 0x40 SWAP1 KECCAK256 PUSH1 0x3 PUSH1 0x2 SWAP1 SWAP2 ADD SSTORE JUMP JUMPDEST PUSH2 0xD80 PUSH1 0x40 MLOAD DUP1 PUSH1 0xA0 ADD PUSH1 0x40 MSTORE DUP1 PUSH1 0x0 ISZERO ISZERO DUP2 MSTORE PUSH1 0x20 ADD PUSH1 0x0 DUP2 MSTORE PUSH1 0x20 ADD PUSH1 0x0 DUP2 MSTORE PUSH1 0x20 ADD PUSH1 0x60 DUP2 MSTORE PUSH1 0x20 ADD PUSH1 0x0 DUP2 MSTORE POP SWAP1 JUMP JUMPDEST PUSH1 0x40 DUP1 MLOAD PUSH1 0xA0 DUP2 ADD SWAP1 SWAP2 MSTORE PUSH1 0x8 SLOAD PUSH1 0xFF AND DUP1 ISZERO ISZERO DUP3 MSTORE PUSH1 0x0 SWAP2 DUP3 SWAP2 PUSH1 0x20 DUP3 ADD SWAP1 PUSH2 0xDF0 JUMPI PUSH2 0xDCA PUSH1 0x8 PUSH1 0x4 ADD SLOAD PUSH1 0x5 SLOAD PUSH2 0xDBA PUSH1 0xD PUSH2 0x1A47 JUMP JUMPDEST PUSH2 0xDC4 SWAP2 SWAP1 PUSH2 0x2559 JUMP JUMPDEST SWAP1 PUSH2 0x1A57 JUMP JUMPDEST PUSH1 0x5 SLOAD PUSH2 0xDD7 PUSH1 0xD PUSH2 0x1A47 JUMP JUMPDEST PUSH2 0xDE1 SWAP2 SWAP1 PUSH2 0x2559 JUMP JUMPDEST PUSH2 0xDEB SWAP2 SWAP1 PUSH2 0x25B7 JUMP JUMPDEST PUSH2 0xDF4 JUMP JUMPDEST PUSH1 0x9 SLOAD JUMPDEST DUP2 MSTORE PUSH1 0x20 ADD PUSH2 0xF2A PUSH2 0xE8E PUSH1 0x6 PUSH1 0x0 SWAP1 SLOAD SWAP1 PUSH2 0x100 EXP SWAP1 DIV PUSH1 0x1 PUSH1 0x1 PUSH1 0xA0 SHL SUB AND PUSH1 0x1 PUSH1 0x1 PUSH1 0xA0 SHL SUB AND PUSH3 0x5A0E3D PUSH1 0x40 MLOAD DUP2 PUSH4 0xFFFFFFFF AND PUSH1 0xE0 SHL DUP2 MSTORE PUSH1 0x4 ADD PUSH1 0x20 PUSH1 0x40 MLOAD DUP1 DUP4 SUB DUP2 DUP7 DUP1 EXTCODESIZE ISZERO DUP1 ISZERO PUSH2 0xE4C JUMPI PUSH1 0x0 DUP1 REVERT JUMPDEST POP GAS STATICCALL ISZERO DUP1 ISZERO PUSH2 0xE60 JUMPI RETURNDATASIZE PUSH1 0x0 DUP1 RETURNDATACOPY RETURNDATASIZE PUSH1 0x0 REVERT JUMPDEST POP POP POP POP PUSH1 0x40 MLOAD RETURNDATASIZE PUSH1 0x1F NOT PUSH1 0x1F DUP3 ADD AND DUP3 ADD DUP1 PUSH1 0x40 MSTORE POP DUP2 ADD SWAP1 PUSH2 0xE84 SWAP2 SWAP1 PUSH2 0x22B5 JUMP JUMPDEST PUSH2 0xDC4 PUSH1 0xD PUSH2 0x1A47 JUMP JUMPDEST PUSH1 0x8 SLOAD PUSH1 0xFF AND PUSH2 0xF22 JUMPI PUSH1 0x6 SLOAD PUSH1 0x40 DUP1 MLOAD PUSH3 0x5A0E3D PUSH1 0xE0 SHL DUP2 MSTORE SWAP1 MLOAD PUSH1 0xA SWAP3 PUSH1 0x1 PUSH1 0x1 PUSH1 0xA0 SHL SUB AND SWAP2 PUSH3 0x5A0E3D SWAP2 PUSH1 0x4 DUP1 DUP4 ADD SWAP3 PUSH1 0x20 SWAP3 SWAP2 SWAP1 DUP3 SWAP1 SUB ADD DUP2 DUP7 DUP1 EXTCODESIZE ISZERO DUP1 ISZERO PUSH2 0xEDB JUMPI PUSH1 0x0 DUP1 REVERT JUMPDEST POP GAS STATICCALL ISZERO DUP1 ISZERO PUSH2 0xEEF JUMPI RETURNDATASIZE PUSH1 0x0 DUP1 RETURNDATACOPY RETURNDATASIZE PUSH1 0x0 REVERT JUMPDEST POP POP POP POP PUSH1 0x40 MLOAD RETURNDATASIZE PUSH1 0x1F NOT PUSH1 0x1F DUP3 ADD AND DUP3 ADD DUP1 PUSH1 0x40 MSTORE POP DUP2 ADD SWAP1 PUSH2 0xF13 SWAP2 SWAP1 PUSH2 0x22B5 JUMP JUMPDEST PUSH2 0xF1D SWAP2 SWAP1 PUSH2 0x2545 JUMP JUMPDEST PUSH2 0x1B20 JUMP JUMPDEST PUSH1 0xA SLOAD PUSH2 0x1B20 JUMP JUMPDEST DUP2 MSTORE PUSH1 0x20 ADD PUSH1 0x8 PUSH1 0x3 ADD DUP1 SLOAD PUSH2 0xF3F SWAP1 PUSH2 0x2627 JUMP JUMPDEST DUP1 PUSH1 0x1F ADD PUSH1 0x20 DUP1 SWAP2 DIV MUL PUSH1 0x20 ADD PUSH1 0x40 MLOAD SWAP1 DUP2 ADD PUSH1 0x40 MSTORE DUP1 SWAP3 SWAP2 SWAP1 DUP2 DUP2 MSTORE PUSH1 0x20 ADD DUP3 DUP1 SLOAD PUSH2 0xF6B SWAP1 PUSH2 0x2627 JUMP JUMPDEST DUP1 ISZERO PUSH2 0xFB8 JUMPI DUP1 PUSH1 0x1F LT PUSH2 0xF8D JUMPI PUSH2 0x100 DUP1 DUP4 SLOAD DIV MUL DUP4 MSTORE SWAP2 PUSH1 0x20 ADD SWAP2 PUSH2 0xFB8 JUMP JUMPDEST DUP3 ADD SWAP2 SWAP1 PUSH1 0x0 MSTORE PUSH1 0x20 PUSH1 0x0 KECCAK256 SWAP1 JUMPDEST DUP2 SLOAD DUP2 MSTORE SWAP1 PUSH1 0x1 ADD SWAP1 PUSH1 0x20 ADD DUP1 DUP4 GT PUSH2 0xF9B JUMPI DUP3 SWAP1 SUB PUSH1 0x1F AND DUP3 ADD SWAP2 JUMPDEST POP POP POP SWAP2 DUP4 MSTORE POP POP PUSH1 0xC SLOAD PUSH1 0x20 SWAP1 SWAP2 ADD MSTORE PUSH1 0x5 SLOAD PUSH2 0xFD6 PUSH1 0xD PUSH2 0x1A47 JUMP JUMPDEST SWAP3 POP SWAP3 POP SWAP3 POP SWAP1 SWAP2 SWAP3 JUMP JUMPDEST TIMESTAMP PUSH1 0x4 SLOAD PUSH1 0x3 SLOAD PUSH2 0xFF2 SWAP2 SWAP1 PUSH2 0x24FF JUMP JUMPDEST GT PUSH1 0x40 MLOAD DUP1 PUSH1 0x40 ADD PUSH1 0x40 MSTORE DUP1 PUSH1 0x14 DUP2 MSTORE PUSH1 0x20 ADD PUSH20 0x1513D55493905351539517D21054D7D153911151 PUSH1 0x62 SHL DUP2 MSTORE POP SWAP1 PUSH2 0x103E JUMPI PUSH1 0x40 MLOAD PUSH3 0x461BCD PUSH1 0xE5 SHL DUP2 MSTORE PUSH1 0x4 ADD PUSH2 0x45A SWAP2 SWAP1 PUSH2 0x2412 JUMP JUMPDEST POP PUSH1 0x5 SLOAD CALLVALUE EQ PUSH1 0x40 MLOAD DUP1 PUSH1 0x40 ADD PUSH1 0x40 MSTORE DUP1 PUSH1 0x19 DUP2 MSTORE PUSH1 0x20 ADD PUSH25 0x1393D517D15393D551D217D195539114D7D41493D592511151 PUSH1 0x3A SHL DUP2 MSTORE POP SWAP1 PUSH2 0x1094 JUMPI PUSH1 0x40 MLOAD PUSH3 0x461BCD PUSH1 0xE5 SHL DUP2 MSTORE PUSH1 0x4 ADD PUSH2 0x45A SWAP2 SWAP1 PUSH2 0x2412 JUMP JUMPDEST POP PUSH2 0x10A0 PUSH1 0xD CALLER PUSH2 0x1B38 JUMP JUMPDEST POP CALLER PUSH1 0x0 DUP2 DUP2 MSTORE PUSH1 0xF PUSH1 0x20 MSTORE PUSH1 0x40 SWAP1 DUP2 SWAP1 KECCAK256 PUSH1 0x3 PUSH1 0x2 SWAP1 SWAP2 ADD SSTORE PUSH1 0x6 SLOAD SWAP1 MLOAD PUSH4 0x15A4C083 PUSH1 0xE3 SHL DUP2 MSTORE PUSH1 0x4 DUP2 ADD SWAP3 SWAP1 SWAP3 MSTORE PUSH1 0x1 PUSH1 0x1 PUSH1 0xA0 SHL SUB AND SWAP1 PUSH4 0xAD260418 SWAP1 PUSH1 0x24 ADD PUSH1 0x0 PUSH1 0x40 MLOAD DUP1 DUP4 SUB DUP2 PUSH1 0x0 DUP8 DUP1 EXTCODESIZE ISZERO DUP1 ISZERO PUSH2 0x10FE JUMPI PUSH1 0x0 DUP1 REVERT JUMPDEST POP GAS CALL ISZERO DUP1 ISZERO PUSH2 0x86C JUMPI RETURNDATASIZE PUSH1 0x0 DUP1 RETURNDATACOPY RETURNDATASIZE PUSH1 0x0 REVERT JUMPDEST PUSH1 0x8 DUP1 SLOAD PUSH1 0x9 SLOAD PUSH1 0xA SLOAD PUSH1 0xB DUP1 SLOAD PUSH1 0xFF SWAP1 SWAP5 AND SWAP5 SWAP3 SWAP4 SWAP2 SWAP3 SWAP2 PUSH2 0x1134 SWAP1 PUSH2 0x2627 JUMP JUMPDEST DUP1 PUSH1 0x1F ADD PUSH1 0x20 DUP1 SWAP2 DIV MUL PUSH1 0x20 ADD PUSH1 0x40 MLOAD SWAP1 DUP2 ADD PUSH1 0x40 MSTORE DUP1 SWAP3 SWAP2 SWAP1 DUP2 DUP2 MSTORE PUSH1 0x20 ADD DUP3 DUP1 SLOAD PUSH2 0x1160 SWAP1 PUSH2 0x2627 JUMP JUMPDEST DUP1 ISZERO PUSH2 0x11AD JUMPI DUP1 PUSH1 0x1F LT PUSH2 0x1182 JUMPI PUSH2 0x100 DUP1 DUP4 SLOAD DIV MUL DUP4 MSTORE SWAP2 PUSH1 0x20 ADD SWAP2 PUSH2 0x11AD JUMP JUMPDEST DUP3 ADD SWAP2 SWAP1 PUSH1 0x0 MSTORE PUSH1 0x20 PUSH1 0x0 KECCAK256 SWAP1 JUMPDEST DUP2 SLOAD DUP2 MSTORE SWAP1 PUSH1 0x1 ADD SWAP1 PUSH1 0x20 ADD DUP1 DUP4 GT PUSH2 0x1190 JUMPI DUP3 SWAP1 SUB PUSH1 0x1F AND DUP3 ADD SWAP2 JUMPDEST POP POP POP POP POP SWAP1 DUP1 PUSH1 0x4 ADD SLOAD SWAP1 POP DUP6 JUMP JUMPDEST PUSH1 0x60 PUSH1 0x0 PUSH2 0x11CB PUSH1 0xD PUSH2 0x1A47 JUMP JUMPDEST PUSH8 0xFFFFFFFFFFFFFFFF DUP2 GT ISZERO PUSH2 0x11E3 JUMPI PUSH2 0x11E3 PUSH2 0x26D4 JUMP JUMPDEST PUSH1 0x40 MLOAD SWAP1 DUP1 DUP3 MSTORE DUP1 PUSH1 0x20 MUL PUSH1 0x20 ADD DUP3 ADD PUSH1 0x40 MSTORE DUP1 ISZERO PUSH2 0x1248 JUMPI DUP2 PUSH1 0x20 ADD JUMPDEST PUSH2 0x1235 PUSH1 0x40 MLOAD DUP1 PUSH1 0x80 ADD PUSH1 0x40 MSTORE DUP1 PUSH1 0x0 PUSH1 0x1 PUSH1 0x1 PUSH1 0xA0 SHL SUB AND DUP2 MSTORE PUSH1 0x20 ADD PUSH1 0x60 DUP2 MSTORE PUSH1 0x20 ADD PUSH1 0x0 DUP2 MSTORE PUSH1 0x20 ADD PUSH1 0x0 DUP2 MSTORE POP SWAP1 JUMP JUMPDEST DUP2 MSTORE PUSH1 0x20 ADD SWAP1 PUSH1 0x1 SWAP1 SUB SWAP1 DUP2 PUSH2 0x1201 JUMPI SWAP1 POP JUMPDEST POP SWAP1 POP PUSH2 0x1255 PUSH1 0xD PUSH2 0x1A47 JUMP JUMPDEST PUSH2 0x125E JUMPI SWAP2 SWAP1 POP JUMP JUMPDEST PUSH1 0x0 JUMPDEST PUSH2 0x126B PUSH1 0xD PUSH2 0x1A47 JUMP JUMPDEST DUP2 LT ISZERO PUSH2 0x139D JUMPI PUSH1 0x40 DUP1 MLOAD PUSH1 0x80 DUP2 ADD SWAP1 SWAP2 MSTORE DUP1 PUSH2 0x1289 PUSH1 0xD DUP5 PUSH2 0x1B4D JUMP JUMPDEST PUSH1 0x1 PUSH1 0x1 PUSH1 0xA0 SHL SUB SWAP1 DUP2 AND DUP3 MSTORE PUSH1 0x6 SLOAD PUSH1 0x20 SWAP1 SWAP3 ADD SWAP2 AND PUSH4 0xD84F55EE PUSH2 0x12B0 PUSH1 0xD DUP7 PUSH2 0x1B4D JUMP JUMPDEST PUSH1 0x40 MLOAD PUSH1 0x1 PUSH1 0x1 PUSH1 0xE0 SHL SUB NOT PUSH1 0xE0 DUP5 SWAP1 SHL AND DUP2 MSTORE PUSH1 0x1 PUSH1 0x1 PUSH1 0xA0 SHL SUB SWAP1 SWAP2 AND PUSH1 0x4 DUP3 ADD MSTORE PUSH1 0x24 ADD PUSH1 0x0 PUSH1 0x40 MLOAD DUP1 DUP4 SUB DUP2 DUP7 DUP1 EXTCODESIZE ISZERO DUP1 ISZERO PUSH2 0x12EF JUMPI PUSH1 0x0 DUP1 REVERT JUMPDEST POP GAS STATICCALL ISZERO DUP1 ISZERO PUSH2 0x1303 JUMPI RETURNDATASIZE PUSH1 0x0 DUP1 RETURNDATACOPY RETURNDATASIZE PUSH1 0x0 REVERT JUMPDEST POP POP POP POP PUSH1 0x40 MLOAD RETURNDATASIZE PUSH1 0x0 DUP3 RETURNDATACOPY PUSH1 0x1F RETURNDATASIZE SWAP1 DUP2 ADD PUSH1 0x1F NOT AND DUP3 ADD PUSH1 0x40 MSTORE PUSH2 0x132B SWAP2 SWAP1 DUP2 ADD SWAP1 PUSH2 0x21EF JUMP JUMPDEST DUP2 MSTORE PUSH1 0x20 ADD PUSH1 0xF PUSH1 0x0 PUSH2 0x133F PUSH1 0xD DUP7 PUSH2 0x1B4D JUMP JUMPDEST PUSH1 0x1 PUSH1 0x1 PUSH1 0xA0 SHL SUB AND PUSH1 0x1 PUSH1 0x1 PUSH1 0xA0 SHL SUB AND DUP2 MSTORE PUSH1 0x20 ADD SWAP1 DUP2 MSTORE PUSH1 0x20 ADD PUSH1 0x0 KECCAK256 PUSH1 0x1 ADD SLOAD DUP2 MSTORE PUSH1 0x20 ADD PUSH1 0x0 DUP2 MSTORE POP DUP3 DUP3 DUP2 MLOAD DUP2 LT PUSH2 0x137F JUMPI PUSH2 0x137F PUSH2 0x26BE JUMP JUMPDEST PUSH1 0x20 MUL PUSH1 0x20 ADD ADD DUP2 SWAP1 MSTORE POP DUP1 DUP1 PUSH2 0x1395 SWAP1 PUSH2 0x2682 JUMP JUMPDEST SWAP2 POP POP PUSH2 0x1261 JUMP JUMPDEST POP PUSH2 0x13BF DUP2 PUSH1 0x0 PUSH1 0x1 PUSH2 0x13B0 PUSH1 0xD PUSH2 0x1A47 JUMP JUMPDEST PUSH2 0x13BA SWAP2 SWAP1 PUSH2 0x25B7 JUMP JUMPDEST PUSH2 0x1B59 JUMP JUMPDEST SWAP1 POP PUSH1 0x0 PUSH2 0x13CB PUSH2 0xD4C JUMP JUMPDEST POP POP SWAP1 POP PUSH1 0x0 PUSH2 0x13E3 PUSH2 0x13DE PUSH1 0xD PUSH2 0x1A47 JUMP JUMPDEST PUSH2 0x1CF8 JUMP JUMPDEST SWAP1 POP PUSH2 0x140A PUSH1 0x40 MLOAD DUP1 PUSH1 0x40 ADD PUSH1 0x40 MSTORE DUP1 PUSH1 0x3 DUP2 MSTORE PUSH1 0x20 ADD PUSH3 0x391D1 PUSH1 0xED SHL DUP2 MSTORE POP DUP3 PUSH2 0x19BD JUMP JUMPDEST PUSH2 0x143B PUSH1 0x40 MLOAD DUP1 PUSH1 0x40 ADD PUSH1 0x40 MSTORE DUP1 PUSH1 0xB DUP2 MSTORE PUSH1 0x20 ADD PUSH11 0x283934BD32B837B7B61D1 PUSH1 0xAD SHL DUP2 MSTORE POP DUP4 PUSH1 0x20 ADD MLOAD PUSH2 0x19BD JUMP JUMPDEST PUSH2 0x146B PUSH1 0x40 MLOAD DUP1 PUSH1 0x40 ADD PUSH1 0x40 MSTORE DUP1 PUSH1 0xA DUP2 MSTORE PUSH1 0x20 ADD PUSH10 0x372BB4B73732B9399D1 PUSH1 0xB5 SHL DUP2 MSTORE POP DUP4 PUSH1 0x40 ADD MLOAD PUSH2 0x19BD JUMP JUMPDEST PUSH2 0x149F PUSH1 0x40 MLOAD DUP1 PUSH1 0x40 ADD PUSH1 0x40 MSTORE DUP1 PUSH1 0x5 DUP2 MSTORE PUSH1 0x20 ADD PUSH5 0x3837BB9D1 PUSH1 0xDD SHL DUP2 MSTORE POP PUSH2 0x149A DUP4 DUP6 PUSH1 0x40 ADD MLOAD PUSH2 0x1ED9 JUMP JUMPDEST PUSH2 0x19BD JUMP JUMPDEST PUSH1 0x0 PUSH2 0x14EB PUSH8 0xDE0B6B3A7640000 PUSH2 0x14BB DUP5 DUP7 PUSH1 0x40 ADD MLOAD PUSH2 0x1ED9 JUMP JUMPDEST PUSH2 0x14C5 SWAP2 SWAP1 PUSH2 0x25B7 JUMP JUMPDEST PUSH2 0x14E5 PUSH2 0x14DA PUSH8 0xDE0B6B3A7640000 DUP7 PUSH2 0x25B7 JUMP JUMPDEST PUSH1 0x20 DUP8 ADD MLOAD SWAP1 PUSH2 0x1F23 JUMP JUMPDEST SWAP1 PUSH2 0x1FD3 JUMP JUMPDEST SWAP1 POP PUSH2 0x1512 PUSH1 0x40 MLOAD DUP1 PUSH1 0x40 ADD PUSH1 0x40 MSTORE DUP1 PUSH1 0x3 DUP2 MSTORE PUSH1 0x20 ADD PUSH3 0x209D1 PUSH1 0xED SHL DUP2 MSTORE POP DUP3 PUSH2 0x19BD JUMP JUMPDEST PUSH1 0x0 JUMPDEST DUP4 PUSH1 0x40 ADD MLOAD DUP2 LT ISZERO PUSH2 0x15C8 JUMPI PUSH2 0x1543 PUSH1 0x40 MLOAD DUP1 PUSH1 0x40 ADD PUSH1 0x40 MSTORE DUP1 PUSH1 0x1 DUP2 MSTORE PUSH1 0x20 ADD PUSH1 0x31 PUSH1 0xF8 SHL DUP2 MSTORE POP PUSH2 0x1977 JUMP JUMPDEST PUSH2 0x1572 PUSH2 0x156B DUP5 PUSH1 0x1 DUP5 DUP9 PUSH1 0x40 ADD MLOAD PUSH2 0x155C SWAP2 SWAP1 PUSH2 0x25B7 JUMP JUMPDEST PUSH2 0x1566 SWAP2 SWAP1 PUSH2 0x25B7 JUMP JUMPDEST PUSH2 0x1ED9 JUMP JUMPDEST DUP4 SWAP1 PUSH2 0x1F23 JUMP JUMPDEST DUP6 DUP3 DUP2 MLOAD DUP2 LT PUSH2 0x1584 JUMPI PUSH2 0x1584 PUSH2 0x26BE JUMP JUMPDEST PUSH1 0x20 MUL PUSH1 0x20 ADD ADD MLOAD PUSH1 0x60 ADD DUP2 DUP2 MSTORE POP POP PUSH2 0x15B6 PUSH1 0x40 MLOAD DUP1 PUSH1 0x40 ADD PUSH1 0x40 MSTORE DUP1 PUSH1 0x1 DUP2 MSTORE PUSH1 0x20 ADD PUSH1 0x19 PUSH1 0xF9 SHL DUP2 MSTORE POP PUSH2 0x1977 JUMP JUMPDEST DUP1 PUSH2 0x15C0 DUP2 PUSH2 0x2682 JUMP JUMPDEST SWAP2 POP POP PUSH2 0x1515 JUMP JUMPDEST POP PUSH2 0x15EB PUSH1 0x40 MLOAD DUP1 PUSH1 0x40 ADD PUSH1 0x40 MSTORE DUP1 PUSH1 0x1 DUP2 MSTORE PUSH1 0x20 ADD PUSH1 0x33 PUSH1 0xF8 SHL DUP2 MSTORE POP PUSH2 0x1977 JUMP JUMPDEST POP SWAP2 SWAP4 SWAP3 POP POP POP JUMP JUMPDEST PUSH1 0x60 PUSH1 0x0 DUP1 PUSH1 0x0 DUP1 PUSH2 0x1630 PUSH1 0x40 MLOAD DUP1 PUSH1 0xA0 ADD PUSH1 0x40 MSTORE DUP1 PUSH1 0x0 ISZERO ISZERO DUP2 MSTORE PUSH1 0x20 ADD PUSH1 0x0 DUP2 MSTORE PUSH1 0x20 ADD PUSH1 0x0 DUP2 MSTORE PUSH1 0x20 ADD PUSH1 0x60 DUP2 MSTORE PUSH1 0x20 ADD PUSH1 0x0 DUP2 MSTORE POP SWAP1 JUMP JUMPDEST PUSH1 0x0 PUSH2 0x163A PUSH2 0xD4C JUMP JUMPDEST PUSH1 0x2 DUP1 SLOAD SWAP4 SWAP6 POP SWAP1 SWAP4 POP SWAP2 PUSH2 0x164F SWAP2 POP PUSH2 0x2627 JUMP JUMPDEST DUP1 PUSH1 0x1F ADD PUSH1 0x20 DUP1 SWAP2 DIV MUL PUSH1 0x20 ADD PUSH1 0x40 MLOAD SWAP1 DUP2 ADD PUSH1 0x40 MSTORE DUP1 SWAP3 SWAP2 SWAP1 DUP2 DUP2 MSTORE PUSH1 0x20 ADD DUP3 DUP1 SLOAD PUSH2 0x167B SWAP1 PUSH2 0x2627 JUMP JUMPDEST DUP1 ISZERO PUSH2 0x16C8 JUMPI DUP1 PUSH1 0x1F LT PUSH2 0x169D JUMPI PUSH2 0x100 DUP1 DUP4 SLOAD DIV MUL DUP4 MSTORE SWAP2 PUSH1 0x20 ADD SWAP2 PUSH2 0x16C8 JUMP JUMPDEST DUP3 ADD SWAP2 SWAP1 PUSH1 0x0 MSTORE PUSH1 0x20 PUSH1 0x0 KECCAK256 SWAP1 JUMPDEST DUP2 SLOAD DUP2 MSTORE SWAP1 PUSH1 0x1 ADD SWAP1 PUSH1 0x20 ADD DUP1 DUP4 GT PUSH2 0x16AB JUMPI DUP3 SWAP1 SUB PUSH1 0x1F AND DUP3 ADD SWAP2 JUMPDEST POP POP POP POP POP SWAP7 POP PUSH1 0x4 SLOAD SWAP6 POP PUSH1 0x3 SLOAD SWAP5 POP PUSH1 0x1 SLOAD SWAP4 POP PUSH1 0x5 SLOAD SWAP3 POP SWAP1 SWAP2 SWAP3 SWAP4 SWAP5 SWAP6 SWAP7 JUMP JUMPDEST PUSH1 0x7 SLOAD PUSH1 0x40 DUP1 MLOAD DUP1 DUP3 ADD SWAP1 SWAP2 MSTORE PUSH1 0x15 DUP2 MSTORE PUSH21 0x10D05313115497D393D517D055551213D492569151 PUSH1 0x5A SHL PUSH1 0x20 DUP3 ADD MSTORE SWAP1 PUSH1 0x1 PUSH1 0x1 PUSH1 0xA0 SHL SUB AND CALLER EQ PUSH2 0x1744 JUMPI PUSH1 0x40 MLOAD PUSH3 0x461BCD PUSH1 0xE5 SHL DUP2 MSTORE PUSH1 0x4 ADD PUSH2 0x45A SWAP2 SWAP1 PUSH2 0x2412 JUMP JUMPDEST POP TIMESTAMP PUSH1 0x4 SLOAD PUSH1 0x3 SLOAD PUSH2 0x1756 SWAP2 SWAP1 PUSH2 0x24FF JUMP JUMPDEST GT PUSH1 0x40 MLOAD DUP1 PUSH1 0x40 ADD PUSH1 0x40 MSTORE DUP1 PUSH1 0x14 DUP2 MSTORE PUSH1 0x20 ADD PUSH20 0x1513D55493905351539517D21054D7D153911151 PUSH1 0x62 SHL DUP2 MSTORE POP SWAP1 PUSH2 0x17A2 JUMPI PUSH1 0x40 MLOAD PUSH3 0x461BCD PUSH1 0xE5 SHL DUP2 MSTORE PUSH1 0x4 ADD PUSH2 0x45A SWAP2 SWAP1 PUSH2 0x2412 JUMP JUMPDEST POP PUSH1 0x6 SLOAD PUSH1 0x1 SLOAD PUSH1 0x40 MLOAD PUSH4 0xA62BB0B PUSH1 0xE2 SHL DUP2 MSTORE PUSH1 0x0 SWAP3 PUSH1 0x1 PUSH1 0x1 PUSH1 0xA0 SHL SUB AND SWAP2 PUSH4 0x298AEC2C SWAP2 PUSH2 0x17EB SWAP2 DUP8 SWAP2 PUSH1 0x4 ADD PUSH1 0x1 PUSH1 0x1 PUSH1 0xA0 SHL SUB SWAP3 SWAP1 SWAP3 AND DUP3 MSTORE PUSH1 0x20 DUP3 ADD MSTORE PUSH1 0x40 ADD SWAP1 JUMP JUMPDEST PUSH1 0x20 PUSH1 0x40 MLOAD DUP1 DUP4 SUB DUP2 DUP7 DUP1 EXTCODESIZE ISZERO DUP1 ISZERO PUSH2 0x1803 JUMPI PUSH1 0x0 DUP1 REVERT JUMPDEST POP GAS STATICCALL ISZERO DUP1 ISZERO PUSH2 0x1817 JUMPI RETURNDATASIZE PUSH1 0x0 DUP1 RETURNDATACOPY RETURNDATASIZE PUSH1 0x0 REVERT JUMPDEST POP POP POP POP PUSH1 0x40 MLOAD RETURNDATASIZE PUSH1 0x1F NOT PUSH1 0x1F DUP3 ADD AND DUP3 ADD DUP1 PUSH1 0x40 MSTORE POP DUP2 ADD SWAP1 PUSH2 0x183B SWAP2 SWAP1 PUSH2 0x21CD JUMP JUMPDEST SWAP1 POP DUP1 PUSH1 0x40 MLOAD DUP1 PUSH1 0x40 ADD PUSH1 0x40 MSTORE DUP1 PUSH1 0x11 DUP2 MSTORE PUSH1 0x20 ADD PUSH17 0x14131056515497D393D517D293D2539151 PUSH1 0x7A SHL DUP2 MSTORE POP SWAP1 PUSH2 0x1886 JUMPI PUSH1 0x40 MLOAD PUSH3 0x461BCD PUSH1 0xE5 SHL DUP2 MSTORE PUSH1 0x4 ADD PUSH2 0x45A SWAP2 SWAP1 PUSH2 0x2412 JUMP JUMPDEST POP PUSH1 0x0 PUSH1 0xF PUSH1 0x0 DUP6 PUSH1 0x1 PUSH1 0x1 PUSH1 0xA0 SHL SUB AND PUSH1 0x1 PUSH1 0x1 PUSH1 0xA0 SHL SUB AND DUP2 MSTORE PUSH1 0x20 ADD SWAP1 DUP2 MSTORE PUSH1 0x20 ADD PUSH1 0x0 KECCAK256 PUSH1 0x2 ADD SLOAD GT PUSH1 0x40 MLOAD DUP1 PUSH1 0x40 ADD PUSH1 0x40 MSTORE DUP1 PUSH1 0x10 DUP2 MSTORE PUSH1 0x20 ADD PUSH16 0x1393D7D055151153541514D7D3115195 PUSH1 0x82 SHL DUP2 MSTORE POP SWAP1 PUSH2 0x18FA JUMPI PUSH1 0x40 MLOAD PUSH3 0x461BCD PUSH1 0xE5 SHL DUP2 MSTORE PUSH1 0x4 ADD PUSH2 0x45A SWAP2 SWAP1 PUSH2 0x2412 JUMP JUMPDEST POP PUSH1 0x1 PUSH1 0x1 PUSH1 0xA0 SHL SUB DUP4 AND PUSH1 0x0 SWAP1 DUP2 MSTORE PUSH1 0xF PUSH1 0x20 MSTORE PUSH1 0x40 DUP2 KECCAK256 PUSH1 0x1 DUP2 ADD DUP5 SWAP1 SSTORE PUSH1 0x2 ADD DUP1 SLOAD SWAP2 PUSH2 0x1929 DUP4 PUSH2 0x2618 JUMP JUMPDEST SWAP2 SWAP1 POP SSTORE POP TIMESTAMP DUP4 PUSH1 0x1 PUSH1 0x1 PUSH1 0xA0 SHL SUB AND PUSH32 0x4713603FE21BE537B9C9CA4C33240E81665FB6E4A681BDD1318C039F16B5AFF6 DUP5 PUSH1 0x40 MLOAD PUSH2 0x196A SWAP2 DUP2 MSTORE PUSH1 0x20 ADD SWAP1 JUMP JUMPDEST PUSH1 0x40 MLOAD DUP1 SWAP2 SUB SWAP1 LOG3 POP POP POP JUMP JUMPDEST PUSH2 0x19BA DUP2 PUSH1 0x40 MLOAD PUSH1 0x24 ADD PUSH2 0x198B SWAP2 SWAP1 PUSH2 0x2412 JUMP JUMPDEST PUSH1 0x40 DUP1 MLOAD PUSH1 0x1F NOT DUP2 DUP5 SUB ADD DUP2 MSTORE SWAP2 SWAP1 MSTORE PUSH1 0x20 DUP2 ADD DUP1 MLOAD PUSH1 0x1 PUSH1 0x1 PUSH1 0xE0 SHL SUB AND PUSH4 0x104C13EB PUSH1 0xE2 SHL OR SWAP1 MSTORE PUSH2 0x20D7 JUMP JUMPDEST POP JUMP JUMPDEST PUSH2 0x86F DUP3 DUP3 PUSH1 0x40 MLOAD PUSH1 0x24 ADD PUSH2 0x19D3 SWAP3 SWAP2 SWAP1 PUSH2 0x2425 JUMP JUMPDEST PUSH1 0x40 DUP1 MLOAD PUSH1 0x1F NOT DUP2 DUP5 SUB ADD DUP2 MSTORE SWAP2 SWAP1 MSTORE PUSH1 0x20 DUP2 ADD DUP1 MLOAD PUSH1 0x1 PUSH1 0x1 PUSH1 0xE0 SHL SUB AND PUSH4 0x2D839CB3 PUSH1 0xE2 SHL OR SWAP1 MSTORE PUSH2 0x20D7 JUMP JUMPDEST PUSH2 0x19BA DUP2 PUSH1 0x40 MLOAD PUSH1 0x24 ADD PUSH2 0x1A18 SWAP2 DUP2 MSTORE PUSH1 0x20 ADD SWAP1 JUMP JUMPDEST PUSH1 0x40 DUP1 MLOAD PUSH1 0x1F NOT DUP2 DUP5 SUB ADD DUP2 MSTORE SWAP2 SWAP1 MSTORE PUSH1 0x20 DUP2 ADD DUP1 MLOAD PUSH1 0x1 PUSH1 0x1 PUSH1 0xE0 SHL SUB AND PUSH4 0xF82C50F1 PUSH1 0xE0 SHL OR SWAP1 MSTORE PUSH2 0x20D7 JUMP JUMPDEST PUSH1 0x0 PUSH2 0x1A51 DUP3 SLOAD SWAP1 JUMP JUMPDEST SWAP3 SWAP2 POP POP JUMP JUMPDEST PUSH1 0x0 DUP3 ISZERO DUP1 PUSH2 0x1A64 JUMPI POP DUP2 ISZERO JUMPDEST ISZERO PUSH2 0x1A71 JUMPI POP PUSH1 0x0 PUSH2 0x1A51 JUMP JUMPDEST DUP2 PUSH2 0x1A7F PUSH1 0x2 PUSH2 0x2710 PUSH2 0x2545 JUMP JUMPDEST PUSH2 0x1A8B SWAP1 PUSH1 0x0 NOT PUSH2 0x25B7 JUMP JUMPDEST PUSH2 0x1A95 SWAP2 SWAP1 PUSH2 0x2545 JUMP JUMPDEST DUP4 GT ISZERO PUSH1 0x40 MLOAD DUP1 PUSH1 0x40 ADD PUSH1 0x40 MSTORE DUP1 PUSH1 0x1C DUP2 MSTORE PUSH1 0x20 ADD PUSH32 0x4D4154485F4D554C5449504C49434154494F4E5F4F564552464C4F5700000000 DUP2 MSTORE POP SWAP1 PUSH2 0x1AEC JUMPI PUSH1 0x40 MLOAD PUSH3 0x461BCD PUSH1 0xE5 SHL DUP2 MSTORE PUSH1 0x4 ADD PUSH2 0x45A SWAP2 SWAP1 PUSH2 0x2412 JUMP JUMPDEST POP PUSH2 0x2710 PUSH2 0x1AFB PUSH1 0x2 DUP3 PUSH2 0x2545 JUMP JUMPDEST PUSH2 0x1B05 DUP5 DUP7 PUSH2 0x2559 JUMP JUMPDEST PUSH2 0x1B0F SWAP2 SWAP1 PUSH2 0x24FF JUMP JUMPDEST PUSH2 0x1B19 SWAP2 SWAP1 PUSH2 0x2545 JUMP JUMPDEST SWAP4 SWAP3 POP POP POP JUMP JUMPDEST PUSH1 0x0 DUP2 DUP4 GT ISZERO PUSH2 0x1B31 JUMPI POP DUP1 PUSH2 0x1A51 JUMP JUMPDEST POP SWAP1 SWAP2 SWAP1 POP JUMP JUMPDEST PUSH1 0x0 PUSH2 0x1B19 DUP4 PUSH1 0x1 PUSH1 0x1 PUSH1 0xA0 SHL SUB DUP5 AND PUSH2 0x20F8 JUMP JUMPDEST PUSH1 0x0 PUSH2 0x1B19 DUP4 DUP4 PUSH2 0x2147 JUMP JUMPDEST PUSH1 0x60 DUP2 DUP4 SLT PUSH2 0x1B69 JUMPI POP DUP3 PUSH2 0x1B19 JUMP JUMPDEST PUSH1 0x0 DUP5 PUSH1 0x2 PUSH2 0x1B78 DUP7 DUP7 PUSH2 0x2578 JUMP JUMPDEST PUSH2 0x1B82 SWAP2 SWAP1 PUSH2 0x2517 JUMP JUMPDEST PUSH2 0x1B8C SWAP1 DUP7 PUSH2 0x24BE JUMP JUMPDEST DUP2 MLOAD DUP2 LT PUSH2 0x1B9C JUMPI PUSH2 0x1B9C PUSH2 0x26BE JUMP JUMPDEST PUSH1 0x20 SWAP1 DUP2 MUL SWAP2 SWAP1 SWAP2 ADD ADD MLOAD PUSH1 0x40 ADD MLOAD SWAP1 POP DUP4 DUP4 JUMPDEST DUP1 DUP3 SGT PUSH2 0x1CC3 JUMPI JUMPDEST DUP3 DUP8 DUP4 DUP2 MLOAD DUP2 LT PUSH2 0x1BCB JUMPI PUSH2 0x1BCB PUSH2 0x26BE JUMP JUMPDEST PUSH1 0x20 MUL PUSH1 0x20 ADD ADD MLOAD PUSH1 0x40 ADD MLOAD GT ISZERO PUSH2 0x1BEF JUMPI DUP2 PUSH2 0x1BE7 DUP2 PUSH2 0x2662 JUMP JUMPDEST SWAP3 POP POP PUSH2 0x1BB8 JUMP JUMPDEST DUP7 DUP2 DUP2 MLOAD DUP2 LT PUSH2 0x1C01 JUMPI PUSH2 0x1C01 PUSH2 0x26BE JUMP JUMPDEST PUSH1 0x20 MUL PUSH1 0x20 ADD ADD MLOAD PUSH1 0x40 ADD MLOAD DUP4 GT ISZERO PUSH2 0x1C26 JUMPI DUP1 PUSH2 0x1C1E DUP2 PUSH2 0x25FA JUMP JUMPDEST SWAP2 POP POP PUSH2 0x1BEF JUMP JUMPDEST DUP1 DUP3 SGT PUSH2 0x1CBE JUMPI PUSH1 0x0 DUP8 DUP4 DUP2 MLOAD DUP2 LT PUSH2 0x1C41 JUMPI PUSH2 0x1C41 PUSH2 0x26BE JUMP JUMPDEST PUSH1 0x20 MUL PUSH1 0x20 ADD ADD MLOAD SWAP1 POP DUP8 DUP3 DUP2 MLOAD DUP2 LT PUSH2 0x1C5D JUMPI PUSH2 0x1C5D PUSH2 0x26BE JUMP JUMPDEST PUSH1 0x20 MUL PUSH1 0x20 ADD ADD MLOAD DUP9 DUP5 DUP2 MLOAD DUP2 LT PUSH2 0x1C77 JUMPI PUSH2 0x1C77 PUSH2 0x26BE JUMP JUMPDEST PUSH1 0x20 MUL PUSH1 0x20 ADD ADD DUP2 SWAP1 MSTORE POP DUP1 DUP9 DUP4 DUP2 MLOAD DUP2 LT PUSH2 0x1C95 JUMPI PUSH2 0x1C95 PUSH2 0x26BE JUMP JUMPDEST PUSH1 0x20 MUL PUSH1 0x20 ADD ADD DUP2 SWAP1 MSTORE POP DUP3 DUP1 PUSH2 0x1CAB SWAP1 PUSH2 0x2662 JUMP JUMPDEST SWAP4 POP POP DUP2 DUP1 PUSH2 0x1CB9 SWAP1 PUSH2 0x25FA JUMP JUMPDEST SWAP3 POP POP POP JUMPDEST PUSH2 0x1BB0 JUMP JUMPDEST DUP1 DUP7 SLT ISZERO PUSH2 0x1CD8 JUMPI PUSH2 0x1CD6 DUP8 DUP8 DUP4 PUSH2 0x1B59 JUMP JUMPDEST POP JUMPDEST DUP5 DUP3 SLT ISZERO PUSH2 0x1CED JUMPI PUSH2 0x1CEB DUP8 DUP4 DUP8 PUSH2 0x1B59 JUMP JUMPDEST POP JUMPDEST POP SWAP5 SWAP6 SWAP5 POP POP POP POP POP JUMP JUMPDEST PUSH1 0x0 PUSH1 0xA DUP3 LT ISZERO PUSH2 0x1D80 JUMPI PUSH1 0x6 SLOAD PUSH1 0x40 MLOAD PUSH4 0x3438D199 PUSH1 0xE2 SHL DUP2 MSTORE PUSH1 0xA PUSH1 0x4 DUP3 ADD MSTORE PUSH1 0x1 PUSH1 0x1 PUSH1 0xA0 SHL SUB SWAP1 SWAP2 AND SWAP1 PUSH4 0xD0E34664 SWAP1 PUSH1 0x24 ADD JUMPDEST PUSH1 0x20 PUSH1 0x40 MLOAD DUP1 DUP4 SUB DUP2 DUP7 DUP1 EXTCODESIZE ISZERO DUP1 ISZERO PUSH2 0x1D48 JUMPI PUSH1 0x0 DUP1 REVERT JUMPDEST POP GAS STATICCALL ISZERO DUP1 ISZERO PUSH2 0x1D5C JUMPI RETURNDATASIZE PUSH1 0x0 DUP1 RETURNDATACOPY RETURNDATASIZE PUSH1 0x0 REVERT JUMPDEST POP POP POP POP PUSH1 0x40 MLOAD RETURNDATASIZE PUSH1 0x1F NOT PUSH1 0x1F DUP3 ADD AND DUP3 ADD DUP1 PUSH1 0x40 MSTORE POP DUP2 ADD SWAP1 PUSH2 0x1A51 SWAP2 SWAP1 PUSH2 0x22B5 JUMP JUMPDEST PUSH1 0x14 DUP3 LT ISZERO PUSH2 0x1DBA JUMPI PUSH1 0x6 SLOAD PUSH1 0x40 MLOAD PUSH4 0x3438D199 PUSH1 0xE2 SHL DUP2 MSTORE PUSH1 0x14 PUSH1 0x4 DUP3 ADD MSTORE PUSH1 0x1 PUSH1 0x1 PUSH1 0xA0 SHL SUB SWAP1 SWAP2 AND SWAP1 PUSH4 0xD0E34664 SWAP1 PUSH1 0x24 ADD PUSH2 0x1D30 JUMP JUMPDEST PUSH1 0x1E DUP3 LT ISZERO PUSH2 0x1DF4 JUMPI PUSH1 0x6 SLOAD PUSH1 0x40 MLOAD PUSH4 0x3438D199 PUSH1 0xE2 SHL DUP2 MSTORE PUSH1 0x1E PUSH1 0x4 DUP3 ADD MSTORE PUSH1 0x1 PUSH1 0x1 PUSH1 0xA0 SHL SUB SWAP1 SWAP2 AND SWAP1 PUSH4 0xD0E34664 SWAP1 PUSH1 0x24 ADD PUSH2 0x1D30 JUMP JUMPDEST PUSH1 0x28 DUP3 LT ISZERO PUSH2 0x1E2E JUMPI PUSH1 0x6 SLOAD PUSH1 0x40 MLOAD PUSH4 0x3438D199 PUSH1 0xE2 SHL DUP2 MSTORE PUSH1 0x28 PUSH1 0x4 DUP3 ADD MSTORE PUSH1 0x1 PUSH1 0x1 PUSH1 0xA0 SHL SUB SWAP1 SWAP2 AND SWAP1 PUSH4 0xD0E34664 SWAP1 PUSH1 0x24 ADD PUSH2 0x1D30 JUMP JUMPDEST PUSH1 0x32 DUP3 LT ISZERO PUSH2 0x1E68 JUMPI PUSH1 0x6 SLOAD PUSH1 0x40 MLOAD PUSH4 0x3438D199 PUSH1 0xE2 SHL DUP2 MSTORE PUSH1 0x32 PUSH1 0x4 DUP3 ADD MSTORE PUSH1 0x1 PUSH1 0x1 PUSH1 0xA0 SHL SUB SWAP1 SWAP2 AND SWAP1 PUSH4 0xD0E34664 SWAP1 PUSH1 0x24 ADD PUSH2 0x1D30 JUMP JUMPDEST PUSH1 0x64 DUP3 LT ISZERO PUSH2 0x1EA2 JUMPI PUSH1 0x6 SLOAD PUSH1 0x40 MLOAD PUSH4 0x3438D199 PUSH1 0xE2 SHL DUP2 MSTORE PUSH1 0x64 PUSH1 0x4 DUP3 ADD MSTORE PUSH1 0x1 PUSH1 0x1 PUSH1 0xA0 SHL SUB SWAP1 SWAP2 AND SWAP1 PUSH4 0xD0E34664 SWAP1 PUSH1 0x24 ADD PUSH2 0x1D30 JUMP JUMPDEST PUSH1 0x6 SLOAD PUSH1 0x40 MLOAD PUSH4 0x3438D199 PUSH1 0xE2 SHL DUP2 MSTORE PUSH2 0x3E8 PUSH1 0x4 DUP3 ADD MSTORE PUSH1 0x1 PUSH1 0x1 PUSH1 0xA0 SHL SUB SWAP1 SWAP2 AND SWAP1 PUSH4 0xD0E34664 SWAP1 PUSH1 0x24 ADD PUSH2 0x1D30 JUMP JUMPDEST SWAP2 SWAP1 POP JUMP JUMPDEST PUSH1 0x0 DUP3 DUP3 PUSH2 0x1EF2 JUMPI PUSH8 0xDE0B6B3A7640000 SWAP2 POP POP PUSH2 0x1A51 JUMP JUMPDEST PUSH1 0x1 JUMPDEST DUP4 DUP2 LT ISZERO PUSH2 0x1F1B JUMPI PUSH2 0x1F07 DUP3 DUP7 PUSH2 0x1F23 JUMP JUMPDEST SWAP2 POP DUP1 PUSH2 0x1F13 DUP2 PUSH2 0x2682 JUMP JUMPDEST SWAP2 POP POP PUSH2 0x1EF5 JUMP JUMPDEST POP SWAP4 SWAP3 POP POP POP JUMP JUMPDEST PUSH1 0x0 DUP3 ISZERO DUP1 PUSH2 0x1F30 JUMPI POP DUP2 ISZERO JUMPDEST ISZERO PUSH2 0x1F3D JUMPI POP PUSH1 0x0 PUSH2 0x1A51 JUMP JUMPDEST DUP2 PUSH2 0x1F51 PUSH1 0x2 PUSH8 0xDE0B6B3A7640000 PUSH2 0x2545 JUMP JUMPDEST PUSH2 0x1F5D SWAP1 PUSH1 0x0 NOT PUSH2 0x25B7 JUMP JUMPDEST PUSH2 0x1F67 SWAP2 SWAP1 PUSH2 0x2545 JUMP JUMPDEST DUP4 GT ISZERO PUSH1 0x40 MLOAD DUP1 PUSH1 0x40 ADD PUSH1 0x40 MSTORE DUP1 PUSH1 0x1C DUP2 MSTORE PUSH1 0x20 ADD PUSH32 0x4D4154485F4D554C5449504C49434154494F4E5F4F564552464C4F5700000000 DUP2 MSTORE POP SWAP1 PUSH2 0x1FBE JUMPI PUSH1 0x40 MLOAD PUSH3 0x461BCD PUSH1 0xE5 SHL DUP2 MSTORE PUSH1 0x4 ADD PUSH2 0x45A SWAP2 SWAP1 PUSH2 0x2412 JUMP JUMPDEST POP PUSH8 0xDE0B6B3A7640000 PUSH2 0x1AFB PUSH1 0x2 DUP3 PUSH2 0x2545 JUMP JUMPDEST PUSH1 0x40 DUP1 MLOAD DUP1 DUP3 ADD SWAP1 SWAP2 MSTORE PUSH1 0x15 DUP2 MSTORE PUSH21 0x4D4154485F4449564953494F4E5F42595F5A45524F PUSH1 0x58 SHL PUSH1 0x20 DUP3 ADD MSTORE PUSH1 0x0 SWAP1 DUP3 PUSH2 0x2020 JUMPI PUSH1 0x40 MLOAD PUSH3 0x461BCD PUSH1 0xE5 SHL DUP2 MSTORE PUSH1 0x4 ADD PUSH2 0x45A SWAP2 SWAP1 PUSH2 0x2412 JUMP JUMPDEST POP PUSH1 0x0 PUSH2 0x202E PUSH1 0x2 DUP5 PUSH2 0x2545 JUMP JUMPDEST SWAP1 POP PUSH8 0xDE0B6B3A7640000 PUSH2 0x2045 DUP3 PUSH1 0x0 NOT PUSH2 0x25B7 JUMP JUMPDEST PUSH2 0x204F SWAP2 SWAP1 PUSH2 0x2545 JUMP JUMPDEST DUP5 GT ISZERO PUSH1 0x40 MLOAD DUP1 PUSH1 0x40 ADD PUSH1 0x40 MSTORE DUP1 PUSH1 0x1C DUP2 MSTORE PUSH1 0x20 ADD PUSH32 0x4D4154485F4D554C5449504C49434154494F4E5F4F564552464C4F5700000000 DUP2 MSTORE POP SWAP1 PUSH2 0x20A6 JUMPI PUSH1 0x40 MLOAD PUSH3 0x461BCD PUSH1 0xE5 SHL DUP2 MSTORE PUSH1 0x4 ADD PUSH2 0x45A SWAP2 SWAP1 PUSH2 0x2412 JUMP JUMPDEST POP DUP3 DUP2 PUSH2 0x20BB PUSH8 0xDE0B6B3A7640000 DUP8 PUSH2 0x2559 JUMP JUMPDEST PUSH2 0x20C5 SWAP2 SWAP1 PUSH2 0x24FF JUMP JUMPDEST PUSH2 0x20CF SWAP2 SWAP1 PUSH2 0x2545 JUMP JUMPDEST SWAP5 SWAP4 POP POP POP POP JUMP JUMPDEST DUP1 MLOAD PUSH11 0x636F6E736F6C652E6C6F67 PUSH1 0x20 DUP4 ADD PUSH1 0x0 DUP1 DUP5 DUP4 DUP6 GAS STATICCALL POP POP POP POP POP JUMP JUMPDEST PUSH1 0x0 DUP2 DUP2 MSTORE PUSH1 0x1 DUP4 ADD PUSH1 0x20 MSTORE PUSH1 0x40 DUP2 KECCAK256 SLOAD PUSH2 0x213F JUMPI POP DUP2 SLOAD PUSH1 0x1 DUP2 DUP2 ADD DUP5 SSTORE PUSH1 0x0 DUP5 DUP2 MSTORE PUSH1 0x20 DUP1 DUP3 KECCAK256 SWAP1 SWAP4 ADD DUP5 SWAP1 SSTORE DUP5 SLOAD DUP5 DUP3 MSTORE DUP3 DUP7 ADD SWAP1 SWAP4 MSTORE PUSH1 0x40 SWAP1 KECCAK256 SWAP2 SWAP1 SWAP2 SSTORE PUSH2 0x1A51 JUMP JUMPDEST POP PUSH1 0x0 PUSH2 0x1A51 JUMP JUMPDEST PUSH1 0x0 DUP3 PUSH1 0x0 ADD DUP3 DUP2 SLOAD DUP2 LT PUSH2 0x215E JUMPI PUSH2 0x215E PUSH2 0x26BE JUMP JUMPDEST SWAP1 PUSH1 0x0 MSTORE PUSH1 0x20 PUSH1 0x0 KECCAK256 ADD SLOAD SWAP1 POP SWAP3 SWAP2 POP POP JUMP JUMPDEST DUP1 CALLDATALOAD PUSH1 0x1 PUSH1 0x1 PUSH1 0xA0 SHL SUB DUP2 AND DUP2 EQ PUSH2 0x1ED4 JUMPI PUSH1 0x0 DUP1 REVERT JUMPDEST PUSH1 0x0 PUSH1 0x20 DUP3 DUP5 SUB SLT ISZERO PUSH2 0x219A JUMPI PUSH1 0x0 DUP1 REVERT JUMPDEST PUSH2 0x1B19 DUP3 PUSH2 0x2171 JUMP JUMPDEST PUSH1 0x0 DUP1 PUSH1 0x40 DUP4 DUP6 SUB SLT ISZERO PUSH2 0x21B6 JUMPI PUSH1 0x0 DUP1 REVERT JUMPDEST PUSH2 0x21BF DUP4 PUSH2 0x2171 JUMP JUMPDEST SWAP5 PUSH1 0x20 SWAP4 SWAP1 SWAP4 ADD CALLDATALOAD SWAP4 POP POP POP JUMP JUMPDEST PUSH1 0x0 PUSH1 0x20 DUP3 DUP5 SUB SLT ISZERO PUSH2 0x21DF JUMPI PUSH1 0x0 DUP1 REVERT JUMPDEST DUP2 MLOAD DUP1 ISZERO ISZERO DUP2 EQ PUSH2 0x1B19 JUMPI PUSH1 0x0 DUP1 REVERT JUMPDEST PUSH1 0x0 PUSH1 0x20 DUP3 DUP5 SUB SLT ISZERO PUSH2 0x2201 JUMPI PUSH1 0x0 DUP1 REVERT JUMPDEST DUP2 MLOAD PUSH8 0xFFFFFFFFFFFFFFFF DUP1 DUP3 GT ISZERO PUSH2 0x2219 JUMPI PUSH1 0x0 DUP1 REVERT JUMPDEST DUP2 DUP5 ADD SWAP2 POP DUP5 PUSH1 0x1F DUP4 ADD SLT PUSH2 0x222D JUMPI PUSH1 0x0 DUP1 REVERT JUMPDEST DUP2 MLOAD DUP2 DUP2 GT ISZERO PUSH2 0x223F JUMPI PUSH2 0x223F PUSH2 0x26D4 JUMP JUMPDEST PUSH1 0x40 MLOAD PUSH1 0x1F DUP3 ADD PUSH1 0x1F NOT SWAP1 DUP2 AND PUSH1 0x3F ADD AND DUP2 ADD SWAP1 DUP4 DUP3 GT DUP2 DUP4 LT OR ISZERO PUSH2 0x2267 JUMPI PUSH2 0x2267 PUSH2 0x26D4 JUMP JUMPDEST DUP2 PUSH1 0x40 MSTORE DUP3 DUP2 MSTORE DUP8 PUSH1 0x20 DUP5 DUP8 ADD ADD GT ISZERO PUSH2 0x2280 JUMPI PUSH1 0x0 DUP1 REVERT JUMPDEST PUSH2 0x2291 DUP4 PUSH1 0x20 DUP4 ADD PUSH1 0x20 DUP9 ADD PUSH2 0x25CE JUMP JUMPDEST SWAP8 SWAP7 POP POP POP POP POP POP POP JUMP JUMPDEST PUSH1 0x0 PUSH1 0x20 DUP3 DUP5 SUB SLT ISZERO PUSH2 0x22AE JUMPI PUSH1 0x0 DUP1 REVERT JUMPDEST POP CALLDATALOAD SWAP2 SWAP1 POP JUMP JUMPDEST PUSH1 0x0 PUSH1 0x20 DUP3 DUP5 SUB SLT ISZERO PUSH2 0x22C7 JUMPI PUSH1 0x0 DUP1 REVERT JUMPDEST POP MLOAD SWAP2 SWAP1 POP JUMP JUMPDEST PUSH1 0x0 DUP2 MLOAD DUP1 DUP5 MSTORE PUSH2 0x22E6 DUP2 PUSH1 0x20 DUP7 ADD PUSH1 0x20 DUP7 ADD PUSH2 0x25CE JUMP JUMPDEST PUSH1 0x1F ADD PUSH1 0x1F NOT AND SWAP3 SWAP1 SWAP3 ADD PUSH1 0x20 ADD SWAP3 SWAP2 POP POP JUMP JUMPDEST DUP1 MLOAD ISZERO ISZERO DUP3 MSTORE PUSH1 0x20 DUP2 ADD MLOAD PUSH1 0x20 DUP4 ADD MSTORE PUSH1 0x40 DUP2 ADD MLOAD PUSH1 0x40 DUP4 ADD MSTORE PUSH1 0x0 PUSH1 0x60 DUP3 ADD MLOAD PUSH1 0xA0 PUSH1 0x60 DUP6 ADD MSTORE PUSH2 0x232F PUSH1 0xA0 DUP6 ADD DUP3 PUSH2 0x22CE JUMP JUMPDEST PUSH1 0x80 SWAP4 DUP5 ADD MLOAD SWAP5 SWAP1 SWAP4 ADD SWAP4 SWAP1 SWAP4 MSTORE POP SWAP2 SWAP1 POP JUMP JUMPDEST PUSH1 0x0 PUSH1 0x20 DUP1 DUP4 ADD DUP2 DUP5 MSTORE DUP1 DUP6 MLOAD DUP1 DUP4 MSTORE PUSH1 0x40 SWAP3 POP DUP3 DUP7 ADD SWAP2 POP DUP3 DUP2 PUSH1 0x5 SHL DUP8 ADD ADD DUP5 DUP9 ADD PUSH1 0x0 JUMPDEST DUP4 DUP2 LT ISZERO PUSH2 0x23CB JUMPI DUP9 DUP4 SUB PUSH1 0x3F NOT ADD DUP6 MSTORE DUP2 MLOAD DUP1 MLOAD PUSH1 0x1 PUSH1 0x1 PUSH1 0xA0 SHL SUB AND DUP5 MSTORE DUP8 DUP2 ADD MLOAD PUSH1 0x80 DUP10 DUP7 ADD DUP2 SWAP1 MSTORE SWAP1 PUSH2 0x23A3 DUP3 DUP8 ADD DUP3 PUSH2 0x22CE JUMP JUMPDEST DUP4 DUP11 ADD MLOAD DUP8 DUP12 ADD MSTORE PUSH1 0x60 SWAP4 DUP5 ADD MLOAD SWAP4 SWAP1 SWAP7 ADD SWAP3 SWAP1 SWAP3 MSTORE POP POP SWAP4 DUP7 ADD SWAP4 SWAP1 DUP7 ADD SWAP1 PUSH1 0x1 ADD PUSH2 0x236A JUMP JUMPDEST POP SWAP1 SWAP9 SWAP8 POP POP POP POP POP POP POP POP JUMP JUMPDEST DUP6 ISZERO ISZERO DUP2 MSTORE DUP5 PUSH1 0x20 DUP3 ADD MSTORE DUP4 PUSH1 0x40 DUP3 ADD MSTORE PUSH1 0xA0 PUSH1 0x60 DUP3 ADD MSTORE PUSH1 0x0 PUSH2 0x2400 PUSH1 0xA0 DUP4 ADD DUP6 PUSH2 0x22CE JUMP JUMPDEST SWAP1 POP DUP3 PUSH1 0x80 DUP4 ADD MSTORE SWAP7 SWAP6 POP POP POP POP POP POP JUMP JUMPDEST PUSH1 0x20 DUP2 MSTORE PUSH1 0x0 PUSH2 0x1B19 PUSH1 0x20 DUP4 ADD DUP5 PUSH2 0x22CE JUMP JUMPDEST PUSH1 0x40 DUP2 MSTORE PUSH1 0x0 PUSH2 0x2438 PUSH1 0x40 DUP4 ADD DUP6 PUSH2 0x22CE JUMP JUMPDEST SWAP1 POP DUP3 PUSH1 0x20 DUP4 ADD MSTORE SWAP4 SWAP3 POP POP POP JUMP JUMPDEST PUSH1 0xE0 DUP2 MSTORE PUSH1 0x0 PUSH2 0x245A PUSH1 0xE0 DUP4 ADD DUP11 PUSH2 0x22CE JUMP JUMPDEST DUP9 PUSH1 0x20 DUP5 ADD MSTORE DUP8 PUSH1 0x40 DUP5 ADD MSTORE DUP7 PUSH1 0x60 DUP5 ADD MSTORE DUP6 PUSH1 0x80 DUP5 ADD MSTORE DUP3 DUP2 SUB PUSH1 0xA0 DUP5 ADD MSTORE PUSH2 0x2484 DUP2 DUP7 PUSH2 0x22FA JUMP JUMPDEST SWAP2 POP POP DUP3 PUSH1 0xC0 DUP4 ADD MSTORE SWAP9 SWAP8 POP POP POP POP POP POP POP POP JUMP JUMPDEST PUSH1 0x60 DUP2 MSTORE PUSH1 0x0 PUSH2 0x24AC PUSH1 0x60 DUP4 ADD DUP7 PUSH2 0x22FA JUMP JUMPDEST PUSH1 0x20 DUP4 ADD SWAP5 SWAP1 SWAP5 MSTORE POP PUSH1 0x40 ADD MSTORE SWAP2 SWAP1 POP JUMP JUMPDEST PUSH1 0x0 DUP1 DUP3 SLT DUP1 ISZERO PUSH1 0x1 PUSH1 0x1 PUSH1 0xFF SHL SUB DUP5 SWAP1 SUB DUP6 SGT AND ISZERO PUSH2 0x24E0 JUMPI PUSH2 0x24E0 PUSH2 0x2692 JUMP JUMPDEST PUSH1 0x1 PUSH1 0xFF SHL DUP4 SWAP1 SUB DUP5 SLT DUP2 AND ISZERO PUSH2 0x24F9 JUMPI PUSH2 0x24F9 PUSH2 0x2692 JUMP JUMPDEST POP POP ADD SWAP1 JUMP JUMPDEST PUSH1 0x0 DUP3 NOT DUP3 GT ISZERO PUSH2 0x2512 JUMPI PUSH2 0x2512 PUSH2 0x2692 JUMP JUMPDEST POP ADD SWAP1 JUMP JUMPDEST PUSH1 0x0 DUP3 PUSH2 0x2526 JUMPI PUSH2 0x2526 PUSH2 0x26A8 JUMP JUMPDEST PUSH1 0x1 PUSH1 0xFF SHL DUP3 EQ PUSH1 0x0 NOT DUP5 EQ AND ISZERO PUSH2 0x2540 JUMPI PUSH2 0x2540 PUSH2 0x2692 JUMP JUMPDEST POP SDIV SWAP1 JUMP JUMPDEST PUSH1 0x0 DUP3 PUSH2 0x2554 JUMPI PUSH2 0x2554 PUSH2 0x26A8 JUMP JUMPDEST POP DIV SWAP1 JUMP JUMPDEST PUSH1 0x0 DUP2 PUSH1 0x0 NOT DIV DUP4 GT DUP3 ISZERO ISZERO AND ISZERO PUSH2 0x2573 JUMPI PUSH2 0x2573 PUSH2 0x2692 JUMP JUMPDEST POP MUL SWAP1 JUMP JUMPDEST PUSH1 0x0 DUP1 DUP4 SLT DUP1 ISZERO PUSH1 0x1 PUSH1 0xFF SHL DUP6 ADD DUP5 SLT AND ISZERO PUSH2 0x2596 JUMPI PUSH2 0x2596 PUSH2 0x2692 JUMP JUMPDEST PUSH1 0x1 PUSH1 0x1 PUSH1 0xFF SHL SUB DUP5 ADD DUP4 SGT DUP2 AND ISZERO PUSH2 0x25B1 JUMPI PUSH2 0x25B1 PUSH2 0x2692 JUMP JUMPDEST POP POP SUB SWAP1 JUMP JUMPDEST PUSH1 0x0 DUP3 DUP3 LT ISZERO PUSH2 0x25C9 JUMPI PUSH2 0x25C9 PUSH2 0x2692 JUMP JUMPDEST POP SUB SWAP1 JUMP JUMPDEST PUSH1 0x0 JUMPDEST DUP4 DUP2 LT ISZERO PUSH2 0x25E9 JUMPI DUP2 DUP2 ADD MLOAD DUP4 DUP3 ADD MSTORE PUSH1 0x20 ADD PUSH2 0x25D1 JUMP JUMPDEST DUP4 DUP2 GT ISZERO PUSH2 0x86C JUMPI POP POP PUSH1 0x0 SWAP2 ADD MSTORE JUMP JUMPDEST PUSH1 0x0 PUSH1 0x1 PUSH1 0xFF SHL DUP3 EQ ISZERO PUSH2 0x2610 JUMPI PUSH2 0x2610 PUSH2 0x2692 JUMP JUMPDEST POP PUSH1 0x0 NOT ADD SWAP1 JUMP JUMPDEST PUSH1 0x0 DUP2 PUSH2 0x2610 JUMPI PUSH2 0x2610 PUSH2 0x2692 JUMP JUMPDEST PUSH1 0x1 DUP2 DUP2 SHR SWAP1 DUP3 AND DUP1 PUSH2 0x263B JUMPI PUSH1 0x7F DUP3 AND SWAP2 POP JUMPDEST PUSH1 0x20 DUP3 LT DUP2 EQ ISZERO PUSH2 0x265C JUMPI PUSH4 0x4E487B71 PUSH1 0xE0 SHL PUSH1 0x0 MSTORE PUSH1 0x22 PUSH1 0x4 MSTORE PUSH1 0x24 PUSH1 0x0 REVERT JUMPDEST POP SWAP2 SWAP1 POP JUMP JUMPDEST PUSH1 0x0 PUSH1 0x1 PUSH1 0x1 PUSH1 0xFF SHL SUB DUP3 EQ ISZERO PUSH2 0x267B JUMPI PUSH2 0x267B PUSH2 0x2692 JUMP JUMPDEST POP PUSH1 0x1 ADD SWAP1 JUMP JUMPDEST PUSH1 0x0 PUSH1 0x0 NOT DUP3 EQ ISZERO PUSH2 0x267B JUMPI PUSH2 0x267B JUMPDEST PUSH4 0x4E487B71 PUSH1 0xE0 SHL PUSH1 0x0 MSTORE PUSH1 0x11 PUSH1 0x4 MSTORE PUSH1 0x24 PUSH1 0x0 REVERT JUMPDEST PUSH4 0x4E487B71 PUSH1 0xE0 SHL PUSH1 0x0 MSTORE PUSH1 0x12 PUSH1 0x4 MSTORE PUSH1 0x24 PUSH1 0x0 REVERT JUMPDEST PUSH4 0x4E487B71 PUSH1 0xE0 SHL PUSH1 0x0 MSTORE PUSH1 0x32 PUSH1 0x4 MSTORE PUSH1 0x24 PUSH1 0x0 REVERT JUMPDEST PUSH4 0x4E487B71 PUSH1 0xE0 SHL PUSH1 0x0 MSTORE PUSH1 0x41 PUSH1 0x4 MSTORE PUSH1 0x24 PUSH1 0x0 REVERT INVALID LOG2 PUSH5 0x6970667358 0x22 SLT KECCAK256 DUP2 SWAP7 0xEC 0xA7 RETURNDATASIZE RETURNDATASIZE DUP8 0xE9 MSIZE SWAP2 DELEGATECALL SELFBALANCE MLOAD PC CALL 0xA5 0xE3 OR PUSH30 0xC95720635D09672D9BF1B1DD8964736F6C63430008070033000000000000 "},"methodIdentifiers":{"approvedCaller()":"45446d71","endTournament()":"4d633a8f","gameContractAddress()":"63df0ef7","getLeaderBoard()":"c29d72bc","getRewardInfo()":"699c8f33","getTournamentInfo()":"d829055e","hasEnded()":"ecb70fb7","id()":"af640d0f","joinTournament()":"7ce11861","joiningFees()":"4959d977","name()":"06fdde03","playerStatsMap(address)":"ab632d4a","reFill()":"50ed9193","recordScore(address,uint256)":"fbd53482","rewardVars()":"858dbf7d","startTime()":"78e97925","timeLimit()":"c08d1fe5","withdrawContractFunds(uint256)":"069f5bf7","withdrawPrize()":"48d37a58"}}}}}