{
  "_format": "hh-sol-artifact-1",
  "contractName": "ToTheMooon",
  "sourceName": "contracts/ToTheMooon.sol",
  "abi": [
    {
      "inputs": [],
      "stateMutability": "nonpayable",
      "type": "constructor"
    },
    {
      "anonymous": false,
      "inputs": [
        {
          "indexed": true,
          "internalType": "address",
          "name": "previousOwner",
          "type": "address"
        },
        {
          "indexed": true,
          "internalType": "address",
          "name": "newOwner",
          "type": "address"
        }
      ],
      "name": "OwnershipTransferred",
      "type": "event"
    },
    {
      "inputs": [
        {
          "internalType": "string",
          "name": "_name",
          "type": "string"
        },
        {
          "components": [
            {
              "internalType": "bool",
              "name": "isSponsored",
              "type": "bool"
            },
            {
              "internalType": "uint256",
              "name": "prizePool",
              "type": "uint256"
            },
            {
              "internalType": "uint256",
              "name": "nWinners",
              "type": "uint256"
            },
            {
              "internalType": "string",
              "name": "sponsorMetadata",
              "type": "string"
            },
            {
              "internalType": "uint256",
              "name": "commissionPercentage",
              "type": "uint256"
            }
          ],
          "internalType": "struct RewardVars",
          "name": "_rewardVars",
          "type": "tuple"
        }
      ],
      "name": "createTournament",
      "outputs": [],
      "stateMutability": "payable",
      "type": "function"
    },
    {
      "inputs": [],
      "name": "currentTournamentId",
      "outputs": [
        {
          "internalType": "uint256",
          "name": "",
          "type": "uint256"
        }
      ],
      "stateMutability": "view",
      "type": "function"
    },
    {
      "inputs": [
        {
          "internalType": "address",
          "name": "wallet_",
          "type": "address"
        }
      ],
      "name": "isPlayerRegistered",
      "outputs": [
        {
          "internalType": "bool",
          "name": "",
          "type": "bool"
        },
        {
          "internalType": "string",
          "name": "",
          "type": "string"
        }
      ],
      "stateMutability": "view",
      "type": "function"
    },
    {
      "inputs": [],
      "name": "joiningFees",
      "outputs": [
        {
          "internalType": "uint256",
          "name": "",
          "type": "uint256"
        }
      ],
      "stateMutability": "view",
      "type": "function"
    },
    {
      "inputs": [],
      "name": "owner",
      "outputs": [
        {
          "internalType": "address",
          "name": "",
          "type": "address"
        }
      ],
      "stateMutability": "view",
      "type": "function"
    },
    {
      "inputs": [
        {
          "internalType": "uint256",
          "name": "",
          "type": "uint256"
        }
      ],
      "name": "r_values",
      "outputs": [
        {
          "internalType": "uint256",
          "name": "",
          "type": "uint256"
        }
      ],
      "stateMutability": "view",
      "type": "function"
    },
    {
      "inputs": [
        {
          "internalType": "string",
          "name": "_name",
          "type": "string"
        },
        {
          "internalType": "uint256",
          "name": "_strlen",
          "type": "uint256"
        }
      ],
      "name": "register",
      "outputs": [],
      "stateMutability": "nonpayable",
      "type": "function"
    },
    {
      "inputs": [],
      "name": "renounceOwnership",
      "outputs": [],
      "stateMutability": "nonpayable",
      "type": "function"
    },
    {
      "inputs": [
        {
          "internalType": "uint256",
          "name": "joiningFees_",
          "type": "uint256"
        }
      ],
      "name": "setJoiningFees",
      "outputs": [],
      "stateMutability": "nonpayable",
      "type": "function"
    },
    {
      "inputs": [
        {
          "internalType": "uint256",
          "name": "timeLimit_",
          "type": "uint256"
        }
      ],
      "name": "setTimeLimit",
      "outputs": [],
      "stateMutability": "nonpayable",
      "type": "function"
    },
    {
      "inputs": [],
      "name": "timeLimit",
      "outputs": [
        {
          "internalType": "uint256",
          "name": "",
          "type": "uint256"
        }
      ],
      "stateMutability": "view",
      "type": "function"
    },
    {
      "inputs": [
        {
          "internalType": "uint256",
          "name": "",
          "type": "uint256"
        }
      ],
      "name": "tournaments",
      "outputs": [
        {
          "internalType": "string",
          "name": "name",
          "type": "string"
        },
        {
          "internalType": "uint256",
          "name": "startTime",
          "type": "uint256"
        },
        {
          "internalType": "address",
          "name": "contractAddress",
          "type": "address"
        },
        {
          "components": [
            {
              "internalType": "bool",
              "name": "isSponsored",
              "type": "bool"
            },
            {
              "internalType": "uint256",
              "name": "prizePool",
              "type": "uint256"
            },
            {
              "internalType": "uint256",
              "name": "nWinners",
              "type": "uint256"
            },
            {
              "internalType": "string",
              "name": "sponsorMetadata",
              "type": "string"
            },
            {
              "internalType": "uint256",
              "name": "commissionPercentage",
              "type": "uint256"
            }
          ],
          "internalType": "struct RewardVars",
          "name": "rewardVars",
          "type": "tuple"
        }
      ],
      "stateMutability": "view",
      "type": "function"
    },
    {
      "inputs": [
        {
          "internalType": "address",
          "name": "newOwner",
          "type": "address"
        }
      ],
      "name": "transferOwnership",
      "outputs": [],
      "stateMutability": "nonpayable",
      "type": "function"
    },
    {
      "inputs": [],
      "name": "winnersPercentage",
      "outputs": [
        {
          "internalType": "uint256",
          "name": "",
          "type": "uint256"
        }
      ],
      "stateMutability": "view",
      "type": "function"
    }
  ],
  "bytecode": "0x608060405262015180600855600a600955611af4600a5534801561002257600080fd5b5061002c3361014a565b60018055600660205262118c307f4da38fc8e544afc56a4c2a17752b8ddb67d8e23ac4583c9029d2e2d1dbe6c98855621067387f098d468efb4f874d617491296c759dc9ae46efb517fe36bcf30699ad3f714c0f55621005907fb6ba906ff52451a7a924e2eaeb8aea3ebee7350a8703e5e417edb25358c7dcc155620fa3e87f95205ee1597333a2b36cc31b0a8c074c0c1fa2918672c4e3dde98e6eb3460fe455620f90607fd4c27e5d2ce7b7345f78d7f5ddc8b90697d63512e00b9f949b158a467d0bfffc55620f69507f294249a73dade72954ce261e2d3e7a241ea69fbb9c559454dd3e40f332fd4f17556103e8600052620f55c87ff416400a389b2271c5c6051273e6b62961b6906215e5f4d9099a99323151c03f5561019a565b600080546001600160a01b038381166001600160a01b0319831681178455604051919092169283917f8be0079c531659141344cd1fd0a4f28419497f9722a3daafe3b4186f6b6457e09190a35050565b612dc0806101a96000396000f3fe608060405260043610620000ee5760003560e01c8063d0e346641162000089578063ea87152b1162000060578063ea87152b1462000279578063f2fde38b146200029e578063fbf7c5ee14620002c3578063fc8e750414620002da57600080fd5b8063d0e3466414620001fe578063e2889c82146200022f578063e33e879a146200025457600080fd5b8063715018a611620000ca578063715018a6146200016b5780637503e1b714620001855780638da5cb5b14620001bc578063c08d1fe514620001e657600080fd5b80625a0e3d14620000f35780631417b82a146200011e5780634959d9771462000153575b600080fd5b3480156200010057600080fd5b506200010b600a5481565b6040519081526020015b60405180910390f35b3480156200012b57600080fd5b50620001436200013d36600462000c48565b620002f2565b6040516200011592919062000e4c565b3480156200016057600080fd5b506200010b60095481565b3480156200017857600080fd5b5062000183620003b8565b005b3480156200019257600080fd5b50620001aa620001a436600462000d9b565b620003d0565b60405162000115949392919062000e71565b348015620001c957600080fd5b506000546040516001600160a01b03909116815260200162000115565b348015620001f357600080fd5b506200010b60085481565b3480156200020b57600080fd5b506200010b6200021d36600462000d9b565b60066020526000908152604090205481565b3480156200023c57600080fd5b50620001836200024e36600462000d9b565b62000568565b3480156200026157600080fd5b50620001836200027336600462000d9b565b62000577565b3480156200028657600080fd5b50620001836200029836600462000d52565b62000586565b348015620002ab57600080fd5b5062000183620002bd36600462000c48565b620006b1565b62000183620002d436600462000c7a565b62000730565b348015620002e757600080fd5b506200010b60075481565b6001600160a01b038116600090815260026020526040812080546001820180546060939260ff1691908190620003289062000fa0565b80601f0160208091040260200160405190810160405280929190818152602001828054620003569062000fa0565b8015620003a75780601f106200037b57610100808354040283529160200191620003a7565b820191906000526020600020905b8154815290600101906020018083116200038957829003601f168201915b505050505090509250925050915091565b620003c2620008f7565b620003ce600062000953565b565b600560205260009081526040902080548190620003ed9062000fa0565b80601f01602080910402602001604051908101604052809291908181526020018280546200041b9062000fa0565b80156200046c5780601f1062000440576101008083540402835291602001916200046c565b820191906000526020600020905b8154815290600101906020018083116200044e57829003601f168201915b50505050600183015460028401546040805160a08101825260038701805460ff161515825260048801546020830152600588015492820192909252600687018054969794966001600160a01b0390941695509092606084019190620004d19062000fa0565b80601f0160208091040260200160405190810160405280929190818152602001828054620004ff9062000fa0565b8015620005505780601f10620005245761010080835404028352916020019162000550565b820191906000526020600020905b8154815290600101906020018083116200053257829003601f168201915b50505050508152602001600482015481525050905084565b62000572620008f7565b600855565b62000581620008f7565b600955565b620005c4826040516020016200059d919062000e2e565b604051602081830303815290604052805190602001206003620009a390919063ffffffff16565b15620006105760405162461bcd60e51b81526020600482015260166024820152752ab9b2b93730b6b29030b63932b0b23c903a30b5b2b760511b60448201526064015b60405180910390fd5b336000908152600260205260409020805460ff16620006ac57620006678360405160200162000640919062000e2e565b604051602081830303815290604052805190602001206003620009c090919063ffffffff16565b506014821162000678578262000687565b620006878360006014620009ce565b80516200069f91600184019160209091019062000aff565b50805460ff191660011781555b505050565b620006bb620008f7565b6001600160a01b038116620007225760405162461bcd60e51b815260206004820152602660248201527f4f776e61626c653a206e6577206f776e657220697320746865207a65726f206160448201526564647265737360d01b606482015260840162000607565b6200072d8162000953565b50565b6200073a620008f7565b60085460075460009081526005602052604090206001015442916200075f9162000f38565b10620007ae5760405162461bcd60e51b815260206004820152601860248201527f546f75726e616d656e74206973207374696c6c206c6976650000000000000000604482015260640162000607565b6000600760008154620007c19062000fdd565b91905081905583423085604051620007d99062000b8e565b620007e995949392919062000ebb565b604051809103906000f08015801562000806573d6000803e3d6000fd5b5090506040518060800160405280848152602001428152602001826001600160a01b031681526020018381525060056000600754815260200190815260200160002060008201518160000190805190602001906200086692919062000aff565b5060208281015160018301556040808401516002840180546001600160a01b0319166001600160a01b03909216919091179055606080850151805160038601805460ff19169115159190911781558185015160048701559281015160058601559081015180519193620008e29260068701929091019062000aff565b50608082015181600401555050905050505050565b6000546001600160a01b03163314620003ce5760405162461bcd60e51b815260206004820181905260248201527f4f776e61626c653a2063616c6c6572206973206e6f7420746865206f776e6572604482015260640162000607565b600080546001600160a01b038381166001600160a01b0319831681178455604051919092169283917f8be0079c531659141344cd1fd0a4f28419497f9722a3daafe3b4186f6b6457e09190a35050565b600081815260018301602052604081205415155b90505b92915050565b6000620009b7838362000aad565b6060836000620009df858562000f53565b67ffffffffffffffff811115620009fa57620009fa62001027565b6040519080825280601f01601f19166020018201604052801562000a25576020820181803683370190505b509050845b8481101562000aa35782818151811062000a485762000a4862001011565b01602001516001600160f81b0319168262000a64888462000f53565b8151811062000a775762000a7762001011565b60200101906001600160f81b031916908160001a9053508062000a9a8162000fdd565b91505062000a2a565b5095945050505050565b600081815260018301602052604081205462000af657508154600181810184556000848152602080822090930184905584548482528286019093526040902091909155620009ba565b506000620009ba565b82805462000b0d9062000fa0565b90600052602060002090601f01602090048101928262000b31576000855562000b7c565b82601f1062000b4c57805160ff191683800117855562000b7c565b8280016001018555821562000b7c579182015b8281111562000b7c57825182559160200191906001019062000b5f565b5062000b8a92915062000b9c565b5090565b611d4d806200103e83390190565b5b8082111562000b8a576000815560010162000b9d565b600082601f83011262000bc557600080fd5b813567ffffffffffffffff8082111562000be35762000be362001027565b604051601f8301601f19908116603f0116810190828211818310171562000c0e5762000c0e62001027565b8160405283815286602085880101111562000c2857600080fd5b836020870160208301376000602085830101528094505050505092915050565b60006020828403121562000c5b57600080fd5b81356001600160a01b038116811462000c7357600080fd5b9392505050565b6000806040838503121562000c8e57600080fd5b823567ffffffffffffffff8082111562000ca757600080fd5b62000cb58683870162000bb3565b9350602085013591508082111562000ccc57600080fd5b9084019060a0828703121562000ce157600080fd5b62000ceb62000f0c565b8235801515811462000cfc57600080fd5b80825250602083013560208201526040830135604082015260608301358281111562000d2757600080fd5b62000d358882860162000bb3565b606083015250608083013560808201528093505050509250929050565b6000806040838503121562000d6657600080fd5b823567ffffffffffffffff81111562000d7e57600080fd5b62000d8c8582860162000bb3565b95602094909401359450505050565b60006020828403121562000dae57600080fd5b5035919050565b6000815180845262000dcf81602086016020860162000f6d565b601f01601f19169290920160200192915050565b80511515825260208101516020830152604081015160408301526000606082015160a0606085015262000e1a60a085018262000db5565b608093840151949093019390935250919050565b6000825162000e4281846020870162000f6d565b9190910192915050565b821515815260406020820152600062000e69604083018462000db5565b949350505050565b60808152600062000e86608083018762000db5565b602083018690526001600160a01b0385166040840152828103606084015262000eb0818562000de3565b979650505050505050565b85815260a06020820152600062000ed660a083018762000db5565b604083018690526001600160a01b0385166060840152828103608084015262000f00818562000de3565b98975050505050505050565b60405160a0810167ffffffffffffffff8111828210171562000f325762000f3262001027565b60405290565b6000821982111562000f4e5762000f4e62000ffb565b500190565b60008282101562000f685762000f6862000ffb565b500390565b60005b8381101562000f8a57818101518382015260200162000f70565b8381111562000f9a576000848401525b50505050565b600181811c9082168062000fb557607f821691505b6020821081141562000fd757634e487b7160e01b600052602260045260246000fd5b50919050565b600060001982141562000ff45762000ff462000ffb565b5060010190565b634e487b7160e01b600052601160045260246000fd5b634e487b7160e01b600052603260045260246000fd5b634e487b7160e01b600052604160045260246000fdfe60806040523480156200001157600080fd5b5060405162001d4d38038062001d4d8339810160408190526200003491620003fe565b6001600081905585905583516200005390600290602087019062000267565b506003839055600680546001600160a01b0319166001600160a01b0384169081179091556040805163c08d1fe560e01b8152905163c08d1fe591600480820192602092909190829003018186803b158015620000ae57600080fd5b505afa158015620000c3573d6000803e3d6000fd5b505050506040513d601f19601f82011682018060405250810190620000e99190620003e4565b600490815560065460408051634959d97760e01b815290516001600160a01b0390921692634959d977928282019260209290829003018186803b1580156200013057600080fd5b505afa15801562000145573d6000803e3d6000fd5b505050506040513d601f19601f820116820180604052508101906200016b9190620003e4565b60055560065460408051638da5cb5b60e01b815290516001600160a01b0390921691638da5cb5b91600480820192602092909190829003018186803b158015620001b457600080fd5b505afa158015620001c9573d6000803e3d6000fd5b505050506040513d601f19601f82011682018060405250810190620001ef9190620003bf565b600780546001600160a01b0319166001600160a01b039290921691909117905580516008805460ff19169115159190911781556020808301516009556040830151600a55606083015180518493926200024e92600b9291019062000267565b50608082015181600401559050505050505050620005ad565b82805462000275906200055a565b90600052602060002090601f016020900481019282620002995760008555620002e4565b82601f10620002b457805160ff1916838001178555620002e4565b82800160010185558215620002e4579182015b82811115620002e4578251825591602001919060010190620002c7565b50620002f2929150620002f6565b5090565b5b80821115620002f25760008155600101620002f7565b80516001600160a01b03811681146200032557600080fd5b919050565b600082601f8301126200033c57600080fd5b81516001600160401b0381111562000358576200035862000597565b60206200036e601f8301601f1916820162000527565b82815285828487010111156200038357600080fd5b60005b83811015620003a357858101830151828201840152820162000386565b83811115620003b55760008385840101525b5095945050505050565b600060208284031215620003d257600080fd5b620003dd826200030d565b9392505050565b600060208284031215620003f757600080fd5b5051919050565b600080600080600060a086880312156200041757600080fd5b855160208701519095506001600160401b03808211156200043757600080fd5b6200044589838a016200032a565b9550604088015194506200045c606089016200030d565b935060808801519150808211156200047357600080fd5b9087019060a0828a0312156200048857600080fd5b62000492620004fc565b82518015158114620004a357600080fd5b808252506020830151602082015260408301516040820152606083015182811115620004ce57600080fd5b620004dc8b8286016200032a565b606083015250608083015160808201528093505050509295509295909350565b60405160a081016001600160401b038111828210171562000521576200052162000597565b60405290565b604051601f8201601f191681016001600160401b038111828210171562000552576200055262000597565b604052919050565b600181811c908216806200056f57607f821691505b602082108114156200059157634e487b7160e01b600052602260045260246000fd5b50919050565b634e487b7160e01b600052604160045260246000fd5b61179080620005bd6000396000f3fe6080604052600436106100dd5760003560e01c8063858dbf7d1161007f578063c08d1fe511610059578063c08d1fe514610251578063c29d72bc14610267578063d3f3300914610289578063fbd53482146102a957600080fd5b8063858dbf7d146101b3578063ab632d4a146101d9578063af640d0f1461023b57600080fd5b80634959d977116100bb5780634959d9771461015c5780634d633a8f1461018057806378e97925146101955780637ce11861146101ab57600080fd5b806306fdde03146100e257806345446d711461010d57806348d37a5814610145575b600080fd5b3480156100ee57600080fd5b506100f76102c9565b6040516101049190611526565b60405180910390f35b34801561011957600080fd5b5060075461012d906001600160a01b031681565b6040516001600160a01b039091168152602001610104565b34801561015157600080fd5b5061015a610357565b005b34801561016857600080fd5b5061017260055481565b604051908152602001610104565b34801561018c57600080fd5b5061015a6103a5565b3480156101a157600080fd5b5061017260035481565b61015a610567565b3480156101bf57600080fd5b506101c86106e0565b6040516101049594939291906114ed565b3480156101e557600080fd5b5061021b6101f4366004611305565b600f6020526000908152604090208054600182015460028301546003909301549192909184565b604080519485526020850193909352918301526060820152608001610104565b34801561024757600080fd5b5061017260015481565b34801561025d57600080fd5b5061017260045481565b34801561027357600080fd5b5061027c61078b565b6040516101049190611457565b34801561029557600080fd5b5060065461012d906001600160a01b031681565b3480156102b557600080fd5b5061015a6102c4366004611320565b610c81565b600280546102d690611697565b80601f016020809104026020016040519081016040528092919081815260200182805461030290611697565b801561034f5780601f106103245761010080835404028352916020019161034f565b820191906000526020600020905b81548152906001019060200180831161033257829003601f168201915b505050505081565b336000908152600f602052604090206003810154156103a25760006003820181905560405133916108fc9181818181818888f193505050501580156103a0573d6000803e3d6000fd5b505b50565b6007546001600160a01b031633146103f55760405162461bcd60e51b815260206004820152600e60248201526d139bdd08185d5d1a1bdc9a5e995960921b60448201526064015b60405180910390fd5b42600454600354610406919061157a565b106104535760405162461bcd60e51b815260206004820152601860248201527f546f75726e616d656e74206973207374696c6c206c697665000000000000000060448201526064016103ec565b600061045d61078b565b905060005b61046c600d610d40565b8110156103a057604051806080016040528082600161048b919061157a565b81526020018383815181106104a2576104a261172e565b60200260200101516040015181526020018383815181106104c5576104c561172e565b60200260200101516060015181526020018383815181106104e8576104e861172e565b602002602001015160600151815250600f600084848151811061050d5761050d61172e565b602090810291909101810151516001600160a01b031682528181019290925260409081016000208351815591830151600183015582015160028201556060909101516003909101558061055f816116f2565b915050610462565b42600454600354610578919061157a565b116105bc5760405162461bcd60e51b8152602060048201526014602482015273151bdd5c9b985b595b9d081a185cc8195b99195960621b60448201526064016103ec565b600654604051630a0bdc1560e11b81523360048201526000916001600160a01b031690631417b82a9060240160006040518083038186803b15801561060057600080fd5b505afa158015610614573d6000803e3d6000fd5b505050506040513d6000823e601f3d908101601f1916820160405261063c919081019061134a565b509050806106845760405162461bcd60e51b8152602060048201526015602482015274141b185e595c881b9bdd081c9959da5cdd195c9959605a1b60448201526064016103ec565b60055434146106d55760405162461bcd60e51b815260206004820152601960248201527f4a6f696e696e672046656573206e6f742070726f76696465640000000000000060448201526064016103ec565b6103a0600d33610d50565b60088054600954600a54600b805460ff90941694929391929161070290611697565b80601f016020809104026020016040519081016040528092919081815260200182805461072e90611697565b801561077b5780601f106107505761010080835404028352916020019161077b565b820191906000526020600020905b81548152906001019060200180831161075e57829003601f168201915b5050505050908060040154905085565b60606000610799600d610d40565b67ffffffffffffffff8111156107b1576107b1611744565b60405190808252806020026020018201604052801561081657816020015b610803604051806080016040528060006001600160a01b031681526020016060815260200160008152602001600081525090565b8152602001906001900390816107cf5790505b50905060005b610826600d610d40565b81101561095257600654604051630a0bdc1560e11b81523360048201526000916001600160a01b031690631417b82a9060240160006040518083038186803b15801561087157600080fd5b505afa158015610885573d6000803e3d6000fd5b505050506040513d6000823e601f3d908101601f191682016040526108ad919081019061134a565b91505060405180608001604052806108cf84600d610d6c90919063ffffffff16565b6001600160a01b0316815260208101839052604001600f60006108f3600d87610d6c565b6001600160a01b03166001600160a01b0316815260200190815260200160002060010154815260200160008152508383815181106109335761093361172e565b602002602001018190525050808061094a906116f2565b91505061081c565b506109748160006001610965600d610d40565b61096f9190611632565b610d78565b6040805160a0810190915260085460ff16801515825291925060009160208201906109e5576109bf6008600401546005546109af600d610d40565b6109b991906115d4565b90610f17565b6005546109cc600d610d40565b6109d691906115d4565b6109e09190611632565b6109e9565b6009545b8152602001610b1f610a83600660009054906101000a90046001600160a01b03166001600160a01b0316625a0e3d6040518163ffffffff1660e01b815260040160206040518083038186803b158015610a4157600080fd5b505afa158015610a55573d6000803e3d6000fd5b505050506040513d601f19601f82011682018060405250810190610a799190611412565b6109b9600d610d40565b60085460ff16610b175760065460408051625a0e3d60e01b81529051600a926001600160a01b031691625a0e3d916004808301926020929190829003018186803b158015610ad057600080fd5b505afa158015610ae4573d6000803e3d6000fd5b505050506040513d601f19601f82011682018060405250810190610b089190611412565b610b1291906115c0565b610fbe565b600a54610fbe565b815260200160086003018054610b3490611697565b80601f0160208091040260200160405190810160405280929190818152602001828054610b6090611697565b8015610bad5780601f10610b8257610100808354040283529160200191610bad565b820191906000526020600020905b815481529060010190602001808311610b9057829003601f168201915b5050509183525050600c5460209091015290506000610bd4610bcf600d610d40565b610fd6565b90506000620f4240610bea8385604001516111b7565b610bf49190611632565b610c01620f424084611632565b8460200151610c1091906115d4565b610c1a91906115c0565b905060005b610c29600d610d40565b811015610c7757610c3a83826111b7565b610c4490836115d4565b858281518110610c5657610c5661172e565b60209081029190910101516060015280610c6f816116f2565b915050610c1f565b5092949350505050565b6007546001600160a01b03163314610ccc5760405162461bcd60e51b815260206004820152600e60248201526d139bdd08185d5d1a1bdc9a5e995960921b60448201526064016103ec565b42600454600354610cdd919061157a565b11610d215760405162461bcd60e51b8152602060048201526014602482015273151bdd5c9b985b595b9d081a185cc8195b99195960621b60448201526064016103ec565b6001600160a01b039091166000908152600f6020526040902060010155565b6000610d4a825490565b92915050565b6000610d65836001600160a01b0384166111ea565b9392505050565b6000610d658383611239565b6060818312610d88575082610d65565b6000846002610d9786866115f3565b610da19190611592565b610dab9086611539565b81518110610dbb57610dbb61172e565b602090810291909101015160400151905083835b808213610ee2575b82878381518110610dea57610dea61172e565b6020026020010151604001511115610e0e5781610e06816116d2565b925050610dd7565b868181518110610e2057610e2061172e565b602002602001015160400151831115610e455780610e3d81611679565b915050610e0e565b808213610edd576000878381518110610e6057610e6061172e565b60200260200101519050878281518110610e7c57610e7c61172e565b6020026020010151888481518110610e9657610e9661172e565b602002602001018190525080888381518110610eb457610eb461172e565b60200260200101819052508280610eca906116d2565b9350508180610ed890611679565b925050505b610dcf565b80861215610ef757610ef5878783610d78565b505b84821215610f0c57610f0a878387610d78565b505b509495945050505050565b6000821580610f24575081155b15610f3157506000610d4a565b81610f3f60026127106115c0565b610f4b90600019611632565b610f5591906115c0565b83111560405180604001604052806002815260200161068760f31b81525090610f915760405162461bcd60e51b81526004016103ec9190611526565b50612710610fa06002826115c0565b610faa84866115d4565b610fb4919061157a565b610d6591906115c0565b600081831115610fcf575080610d4a565b5090919050565b6000600a82101561105e57600654604051633438d19960e21b8152600a60048201526001600160a01b039091169063d0e34664906024015b60206040518083038186803b15801561102657600080fd5b505afa15801561103a573d6000803e3d6000fd5b505050506040513d601f19601f82011682018060405250810190610d4a9190611412565b601482101561109857600654604051633438d19960e21b8152601460048201526001600160a01b039091169063d0e346649060240161100e565b601e8210156110d257600654604051633438d19960e21b8152601e60048201526001600160a01b039091169063d0e346649060240161100e565b602882101561110c57600654604051633438d19960e21b8152602860048201526001600160a01b039091169063d0e346649060240161100e565b603282101561114657600654604051633438d19960e21b8152603260048201526001600160a01b039091169063d0e346649060240161100e565b606482101561118057600654604051633438d19960e21b8152606460048201526001600160a01b039091169063d0e346649060240161100e565b600654604051633438d19960e21b81526103e860048201526001600160a01b039091169063d0e346649060240161100e565b919050565b600082815b838110156111e2576111ce8286611263565b9150806111da816116f2565b9150506111bc565b509392505050565b600081815260018301602052604081205461123157508154600181810184556000848152602080822090930184905584548482528286019093526040902091909155610d4a565b506000610d4a565b60008260000182815481106112505761125061172e565b9060005260206000200154905092915050565b6000821580611270575081155b1561127d57506000610d4a565b8161128c6002620f42406115c0565b61129890600019611632565b6112a291906115c0565b83111560405180604001604052806002815260200161068760f31b815250906112de5760405162461bcd60e51b81526004016103ec9190611526565b50620f4240610fa06002826115c0565b80356001600160a01b03811681146111b257600080fd5b60006020828403121561131757600080fd5b610d65826112ee565b6000806040838503121561133357600080fd5b61133c836112ee565b946020939093013593505050565b6000806040838503121561135d57600080fd5b8251801515811461136d57600080fd5b602084015190925067ffffffffffffffff8082111561138b57600080fd5b818501915085601f83011261139f57600080fd5b8151818111156113b1576113b1611744565b604051601f8201601f19908116603f011681019083821181831017156113d9576113d9611744565b816040528281528860208487010111156113f257600080fd5b611403836020830160208801611649565b80955050505050509250929050565b60006020828403121561142457600080fd5b5051919050565b60008151808452611443816020860160208601611649565b601f01601f19169290920160200192915050565b60006020808301818452808551808352604092508286019150828160051b87010184880160005b838110156114df57888303603f19018552815180516001600160a01b03168452878101516080898601819052906114b78287018261142b565b838a0151878b015260609384015193909601929092525050938601939086019060010161147e565b509098975050505050505050565b851515815284602082015283604082015260a06060820152600061151460a083018561142b565b90508260808301529695505050505050565b602081526000610d65602083018461142b565b600080821280156001600160ff1b038490038513161561155b5761155b611702565b600160ff1b839003841281161561157457611574611702565b50500190565b6000821982111561158d5761158d611702565b500190565b6000826115a1576115a1611718565b600160ff1b8214600019841416156115bb576115bb611702565b500590565b6000826115cf576115cf611718565b500490565b60008160001904831182151516156115ee576115ee611702565b500290565b60008083128015600160ff1b85018412161561161157611611611702565b6001600160ff1b038401831381161561162c5761162c611702565b50500390565b60008282101561164457611644611702565b500390565b60005b8381101561166457818101518382015260200161164c565b83811115611673576000848401525b50505050565b6000600160ff1b82141561168f5761168f611702565b506000190190565b600181811c908216806116ab57607f821691505b602082108114156116cc57634e487b7160e01b600052602260045260246000fd5b50919050565b60006001600160ff1b038214156116eb576116eb611702565b5060010190565b60006000198214156116eb576116eb5b634e487b7160e01b600052601160045260246000fd5b634e487b7160e01b600052601260045260246000fd5b634e487b7160e01b600052603260045260246000fd5b634e487b7160e01b600052604160045260246000fdfea264697066735822122020665c1b6dc239ad5593946faa61dd005c4723a8b4c884885051f3fa81a7ee3a64736f6c63430008070033a264697066735822122043940c429de75e0350b969894dab8fd5b99dfbcc692491a0ba5668416c1f42cc64736f6c63430008070033",
  "linkReferences": {},
  "deployedLinkReferences": {}
}