{
  "_format": "hh-sol-artifact-1",
  "contractName": "Tournament",
  "sourceName": "contracts/Tournament.sol",
  "abi": [
    {
      "inputs": [
        {
          "internalType": "uint256",
          "name": "id_",
          "type": "uint256"
        },
        {
          "internalType": "string",
          "name": "name_",
          "type": "string"
        },
        {
          "internalType": "uint256",
          "name": "startTime_",
          "type": "uint256"
        },
        {
          "internalType": "address",
          "name": "gameContractAddress_",
          "type": "address"
        },
        {
          "components": [
            {
              "internalType": "bool",
              "name": "isSponsored",
              "type": "bool"
            },
            {
              "internalType": "uint256",
              "name": "prizePool",
              "type": "uint256"
            },
            {
              "internalType": "uint256",
              "name": "nWinners",
              "type": "uint256"
            },
            {
              "internalType": "string",
              "name": "sponsorMetadata",
              "type": "string"
            },
            {
              "internalType": "uint256",
              "name": "commissionPercentage",
              "type": "uint256"
            }
          ],
          "internalType": "struct DataTypes.RewardVars",
          "name": "_rewardVars",
          "type": "tuple"
        }
      ],
      "stateMutability": "nonpayable",
      "type": "constructor"
    },
    {
      "anonymous": false,
      "inputs": [
        {
          "indexed": true,
          "internalType": "address",
          "name": "payer",
          "type": "address"
        },
        {
          "indexed": true,
          "internalType": "uint256",
          "name": "timestamp",
          "type": "uint256"
        },
        {
          "indexed": false,
          "internalType": "uint256",
          "name": "funds",
          "type": "uint256"
        }
      ],
      "name": "FundsAdded",
      "type": "event"
    },
    {
      "anonymous": false,
      "inputs": [
        {
          "indexed": true,
          "internalType": "uint256",
          "name": "timestamp",
          "type": "uint256"
        },
        {
          "indexed": false,
          "internalType": "uint256",
          "name": "funds",
          "type": "uint256"
        }
      ],
      "name": "FundsWithdrawn",
      "type": "event"
    },
    {
      "anonymous": false,
      "inputs": [
        {
          "indexed": true,
          "internalType": "address",
          "name": "player",
          "type": "address"
        },
        {
          "indexed": true,
          "internalType": "uint256",
          "name": "timestamp",
          "type": "uint256"
        },
        {
          "indexed": false,
          "internalType": "uint256",
          "name": "score",
          "type": "uint256"
        }
      ],
      "name": "ScoreRecorded",
      "type": "event"
    },
    {
      "inputs": [],
      "name": "approvedCaller",
      "outputs": [
        {
          "internalType": "address",
          "name": "",
          "type": "address"
        }
      ],
      "stateMutability": "view",
      "type": "function"
    },
    {
      "inputs": [],
      "name": "endTournament",
      "outputs": [],
      "stateMutability": "nonpayable",
      "type": "function"
    },
    {
      "inputs": [],
      "name": "gameContractAddress",
      "outputs": [
        {
          "internalType": "address",
          "name": "",
          "type": "address"
        }
      ],
      "stateMutability": "view",
      "type": "function"
    },
    {
      "inputs": [],
      "name": "getLeaderBoard",
      "outputs": [
        {
          "components": [
            {
              "internalType": "address",
              "name": "wallet",
              "type": "address"
            },
            {
              "internalType": "string",
              "name": "username",
              "type": "string"
            },
            {
              "internalType": "uint256",
              "name": "highscore",
              "type": "uint256"
            },
            {
              "internalType": "uint256",
              "name": "prize",
              "type": "uint256"
            }
          ],
          "internalType": "struct DataTypes.LeaderBoardEntry[]",
          "name": "",
          "type": "tuple[]"
        }
      ],
      "stateMutability": "view",
      "type": "function"
    },
    {
      "inputs": [],
      "name": "getRewardInfo",
      "outputs": [
        {
          "components": [
            {
              "internalType": "bool",
              "name": "isSponsored",
              "type": "bool"
            },
            {
              "internalType": "uint256",
              "name": "prizePool",
              "type": "uint256"
            },
            {
              "internalType": "uint256",
              "name": "nWinners",
              "type": "uint256"
            },
            {
              "internalType": "string",
              "name": "sponsorMetadata",
              "type": "string"
            },
            {
              "internalType": "uint256",
              "name": "commissionPercentage",
              "type": "uint256"
            }
          ],
          "internalType": "struct DataTypes.RewardVars",
          "name": "",
          "type": "tuple"
        },
        {
          "internalType": "uint256",
          "name": "",
          "type": "uint256"
        },
        {
          "internalType": "uint256",
          "name": "",
          "type": "uint256"
        }
      ],
      "stateMutability": "view",
      "type": "function"
    },
    {
      "inputs": [],
      "name": "getTournamentInfo",
      "outputs": [
        {
          "internalType": "string",
          "name": "_name",
          "type": "string"
        },
        {
          "internalType": "uint256",
          "name": "_timeLimit",
          "type": "uint256"
        },
        {
          "internalType": "uint256",
          "name": "_startTime",
          "type": "uint256"
        },
        {
          "internalType": "uint256",
          "name": "_id",
          "type": "uint256"
        },
        {
          "internalType": "uint256",
          "name": "_joiningFees",
          "type": "uint256"
        },
        {
          "components": [
            {
              "internalType": "bool",
              "name": "isSponsored",
              "type": "bool"
            },
            {
              "internalType": "uint256",
              "name": "prizePool",
              "type": "uint256"
            },
            {
              "internalType": "uint256",
              "name": "nWinners",
              "type": "uint256"
            },
            {
              "internalType": "string",
              "name": "sponsorMetadata",
              "type": "string"
            },
            {
              "internalType": "uint256",
              "name": "commissionPercentage",
              "type": "uint256"
            }
          ],
          "internalType": "struct DataTypes.RewardVars",
          "name": "_rewardVars",
          "type": "tuple"
        },
        {
          "internalType": "uint256",
          "name": "_nPlayers",
          "type": "uint256"
        }
      ],
      "stateMutability": "view",
      "type": "function"
    },
    {
      "inputs": [],
      "name": "hasEnded",
      "outputs": [
        {
          "internalType": "bool",
          "name": "",
          "type": "bool"
        }
      ],
      "stateMutability": "view",
      "type": "function"
    },
    {
      "inputs": [],
      "name": "id",
      "outputs": [
        {
          "internalType": "uint256",
          "name": "",
          "type": "uint256"
        }
      ],
      "stateMutability": "view",
      "type": "function"
    },
    {
      "inputs": [],
      "name": "joinTournament",
      "outputs": [],
      "stateMutability": "payable",
      "type": "function"
    },
    {
      "inputs": [],
      "name": "joiningFees",
      "outputs": [
        {
          "internalType": "uint256",
          "name": "",
          "type": "uint256"
        }
      ],
      "stateMutability": "view",
      "type": "function"
    },
    {
      "inputs": [],
      "name": "name",
      "outputs": [
        {
          "internalType": "string",
          "name": "",
          "type": "string"
        }
      ],
      "stateMutability": "view",
      "type": "function"
    },
    {
      "inputs": [
        {
          "internalType": "address",
          "name": "",
          "type": "address"
        }
      ],
      "name": "playerStatsMap",
      "outputs": [
        {
          "internalType": "uint256",
          "name": "rank",
          "type": "uint256"
        },
        {
          "internalType": "uint256",
          "name": "highscore",
          "type": "uint256"
        },
        {
          "internalType": "uint256",
          "name": "attemptsLeft",
          "type": "uint256"
        },
        {
          "internalType": "uint256",
          "name": "reFills",
          "type": "uint256"
        },
        {
          "internalType": "uint256",
          "name": "allocatedPrize",
          "type": "uint256"
        },
        {
          "internalType": "uint256",
          "name": "unclaimedPrize",
          "type": "uint256"
        }
      ],
      "stateMutability": "view",
      "type": "function"
    },
    {
      "inputs": [],
      "name": "reFill",
      "outputs": [],
      "stateMutability": "payable",
      "type": "function"
    },
    {
      "inputs": [
        {
          "internalType": "address",
          "name": "_player",
          "type": "address"
        },
        {
          "internalType": "uint256",
          "name": "_score",
          "type": "uint256"
        }
      ],
      "name": "recordScore",
      "outputs": [],
      "stateMutability": "nonpayable",
      "type": "function"
    },
    {
      "inputs": [],
      "name": "rewardVars",
      "outputs": [
        {
          "internalType": "bool",
          "name": "isSponsored",
          "type": "bool"
        },
        {
          "internalType": "uint256",
          "name": "prizePool",
          "type": "uint256"
        },
        {
          "internalType": "uint256",
          "name": "nWinners",
          "type": "uint256"
        },
        {
          "internalType": "string",
          "name": "sponsorMetadata",
          "type": "string"
        },
        {
          "internalType": "uint256",
          "name": "commissionPercentage",
          "type": "uint256"
        }
      ],
      "stateMutability": "view",
      "type": "function"
    },
    {
      "inputs": [],
      "name": "startTime",
      "outputs": [
        {
          "internalType": "uint256",
          "name": "",
          "type": "uint256"
        }
      ],
      "stateMutability": "view",
      "type": "function"
    },
    {
      "inputs": [],
      "name": "timeLimit",
      "outputs": [
        {
          "internalType": "uint256",
          "name": "",
          "type": "uint256"
        }
      ],
      "stateMutability": "view",
      "type": "function"
    },
    {
      "inputs": [
        {
          "internalType": "uint256",
          "name": "funds",
          "type": "uint256"
        }
      ],
      "name": "withdrawContractFunds",
      "outputs": [],
      "stateMutability": "nonpayable",
      "type": "function"
    },
    {
      "inputs": [],
      "name": "withdrawPrize",
      "outputs": [],
      "stateMutability": "nonpayable",
      "type": "function"
    },
    {
      "stateMutability": "payable",
      "type": "receive"
    }
  ],
  "bytecode": "0x60806040523480156200001157600080fd5b5060405162002a8338038062002a838339810160408190526200003491620003fe565b6001600081905585905583516200005390600290602087019062000267565b506003839055600680546001600160a01b0319166001600160a01b0384169081179091556040805163c08d1fe560e01b8152905163c08d1fe591600480820192602092909190829003018186803b158015620000ae57600080fd5b505afa158015620000c3573d6000803e3d6000fd5b505050506040513d601f19601f82011682018060405250810190620000e99190620003e4565b600490815560065460408051634959d97760e01b815290516001600160a01b0390921692634959d977928282019260209290829003018186803b1580156200013057600080fd5b505afa15801562000145573d6000803e3d6000fd5b505050506040513d601f19601f820116820180604052508101906200016b9190620003e4565b60055560065460408051631127a41d60e31b815290516001600160a01b039092169163893d20e891600480820192602092909190829003018186803b158015620001b457600080fd5b505afa158015620001c9573d6000803e3d6000fd5b505050506040513d601f19601f82011682018060405250810190620001ef9190620003bf565b600780546001600160a01b0319166001600160a01b039290921691909117905580516008805460ff19169115159190911781556020808301516009556040830151600a55606083015180518493926200024e92600b9291019062000267565b50608082015181600401559050505050505050620005ad565b82805462000275906200055a565b90600052602060002090601f016020900481019282620002995760008555620002e4565b82601f10620002b457805160ff1916838001178555620002e4565b82800160010185558215620002e4579182015b82811115620002e4578251825591602001919060010190620002c7565b50620002f2929150620002f6565b5090565b5b80821115620002f25760008155600101620002f7565b80516001600160a01b03811681146200032557600080fd5b919050565b600082601f8301126200033c57600080fd5b81516001600160401b0381111562000358576200035862000597565b60206200036e601f8301601f1916820162000527565b82815285828487010111156200038357600080fd5b60005b83811015620003a357858101830151828201840152820162000386565b83811115620003b55760008385840101525b5095945050505050565b600060208284031215620003d257600080fd5b620003dd826200030d565b9392505050565b600060208284031215620003f757600080fd5b5051919050565b600080600080600060a086880312156200041757600080fd5b855160208701519095506001600160401b03808211156200043757600080fd5b6200044589838a016200032a565b9550604088015194506200045c606089016200030d565b935060808801519150808211156200047357600080fd5b9087019060a0828a0312156200048857600080fd5b62000492620004fc565b82518015158114620004a357600080fd5b808252506020830151602082015260408301516040820152606083015182811115620004ce57600080fd5b620004dc8b8286016200032a565b606083015250608083015160808201528093505050509295509295909350565b60405160a081016001600160401b038111828210171562000521576200052162000597565b60405290565b604051601f8201601f191681016001600160401b038111828210171562000552576200055262000597565b604052919050565b600181811c908216806200056f57607f821691505b602082108114156200059157634e487b7160e01b600052602260045260246000fd5b50919050565b634e487b7160e01b600052604160045260246000fd5b6124c680620005bd6000396000f3fe6080604052600436106101185760003560e01c806378e97925116100a0578063c08d1fe511610064578063c08d1fe514610351578063c29d72bc14610367578063d829055e14610389578063ecb70fb7146103b1578063fbd53482146103e257600080fd5b806378e979251461027a5780637ce1186114610290578063858dbf7d14610298578063ab632d4a146102be578063af640d0f1461033b57600080fd5b80634959d977116100e75780634959d977146101f55780634d633a8f1461021957806350ed91931461022e57806363df0ef714610236578063699c8f331461025657600080fd5b8063069f5bf71461015b57806306fdde031461017d57806345446d71146101a857806348d37a58146101e057600080fd5b3661015657604051348152429033907f92023dd282de3eea749a3a27a58271d70f04c1f7905fce2e1996ec9bdfccf33b9060200160405180910390a3005b600080fd5b34801561016757600080fd5b5061017b610176366004612064565b610402565b005b34801561018957600080fd5b50610192610588565b60405161019f91906121da565b60405180910390f35b3480156101b457600080fd5b506007546101c8906001600160a01b031681565b6040516001600160a01b03909116815260200161019f565b3480156101ec57600080fd5b5061017b610616565b34801561020157600080fd5b5061020b60055481565b60405190815260200161019f565b34801561022557600080fd5b5061017b61080e565b61017b610af0565b34801561024257600080fd5b506006546101c8906001600160a01b031681565b34801561026257600080fd5b5061026b610ceb565b60405161019f9392919061223f565b34801561028657600080fd5b5061020b60035481565b61017b610f80565b3480156102a457600080fd5b506102ad6110b7565b60405161019f9594939291906121a1565b3480156102ca57600080fd5b5061030e6102d9366004611f50565b600f60205260009081526040902080546001820154600283015460038401546004850154600590950154939492939192909186565b604080519687526020870195909552938501929092526060840152608083015260a082015260c00161019f565b34801561034757600080fd5b5061020b60015481565b34801561035d57600080fd5b5061020b60045481565b34801561037357600080fd5b5061037c611162565b60405161019f919061210b565b34801561039557600080fd5b5061039e611453565b60405161019f97969594939291906121ed565b3480156103bd57600080fd5b506007546103d290600160a01b900460ff1681565b604051901515815260200161019f565b3480156103ee57600080fd5b5061017b6103fd366004611f6b565b61154b565b60075460408051808201909152601581527410d05313115497d393d517d055551213d492569151605a1b6020820152906001600160a01b031633146104635760405162461bcd60e51b815260040161045a91906121da565b60405180910390fd5b5061046c6117d6565b60408051808201909152601081526f4e4f545f454e4f5547485f46554e445360801b6020820152478211156104b45760405162461bcd60e51b815260040161045a91906121da565b50604051600090339083908381818185875af1925050503d80600081146104f7576040519150601f19603f3d011682016040523d82523d6000602084013e6104fc565b606091505b50509050806105405760405162461bcd60e51b815260206004820152601060248201526f2a3930b739b332b9103330b4b632b21760811b604482015260640161045a565b427fd66662c0ded9e58fd31d5e44944bcfd07ffc15e6927ecc1382e7941cb7bd24c48360405161057291815260200190565b60405180910390a2506105856001600055565b50565b60028054610595906123cd565b80601f01602080910402602001604051908101604052809291908181526020018280546105c1906123cd565b801561060e5780601f106105e35761010080835404028352916020019161060e565b820191906000526020600020905b8154815290600101906020018083116105f157829003601f168201915b505050505081565b61061e6117d6565b4260045460035461062f91906122a5565b1060405180604001604052806012815260200171544f55524e414d454e545f49535f4c49564560701b815250906106795760405162461bcd60e51b815260040161045a91906121da565b50600654600154604051630a62bb0b60e21b815233600482015260248101919091526000916001600160a01b03169063298aec2c9060440160206040518083038186803b1580156106c957600080fd5b505afa1580156106dd573d6000803e3d6000fd5b505050506040513d601f19601f820116820180604052508101906107019190611f95565b9050806040518060400160405280601181526020017014131056515497d393d517d293d2539151607a1b8152509061074c5760405162461bcd60e51b815260040161045a91906121da565b50336000908152600f6020526040902060058101541561080057600581018054600091829055604051909190339083908381818185875af1925050503d80600081146107b4576040519150601f19603f3d011682016040523d82523d6000602084013e6107b9565b606091505b50509050806107fd5760405162461bcd60e51b815260206004820152601060248201526f2a3930b739b332b9103330b4b632b21760811b604482015260640161045a565b50505b505061080c6001600055565b565b60075460408051808201909152601581527410d05313115497d393d517d055551213d492569151605a1b6020820152906001600160a01b031633146108665760405162461bcd60e51b815260040161045a91906121da565b504260045460035461087891906122a5565b1060405180604001604052806012815260200171544f55524e414d454e545f49535f4c49564560701b815250906108c25760405162461bcd60e51b815260040161045a91906121da565b506007546040805180820190915260148152731513d55493905351539517d21054d7d15391115160621b602082015290600160a01b900460ff161561091a5760405162461bcd60e51b815260040161045a91906121da565b506007805460ff60a01b1916600160a01b1790556000610938611162565b905060005b610947600d611830565b811015610aec576040518060c0016040528082600161096691906122a5565b815260200183838151811061097d5761097d612464565b6020026020010151604001518152602001600f60008585815181106109a4576109a4612464565b6020026020010151600001516001600160a01b03166001600160a01b03168152602001908152602001600020600201548152602001600f60008585815181106109ef576109ef612464565b6020026020010151600001516001600160a01b03166001600160a01b03168152602001908152602001600020600301548152602001838381518110610a3657610a36612464565b6020026020010151606001518152602001838381518110610a5957610a59612464565b602002602001015160600151815250600f6000848481518110610a7e57610a7e612464565b602090810291909101810151516001600160a01b03168252818101929092526040908101600020835181559183015160018301558201516002820155606082015160038201556080820151600482015560a09091015160059091015580610ae481612428565b91505061093d565b5050565b42600454600354610b0191906122a5565b11604051806040016040528060148152602001731513d55493905351539517d21054d7d15391115160621b81525090610b4d5760405162461bcd60e51b815260040161045a91906121da565b50600654600154604051630a62bb0b60e21b815233600482015260248101919091526000916001600160a01b03169063298aec2c9060440160206040518083038186803b158015610b9d57600080fd5b505afa158015610bb1573d6000803e3d6000fd5b505050506040513d601f19601f82011682018060405250810190610bd59190611f95565b9050806040518060400160405280601181526020017014131056515497d393d517d293d2539151607a1b81525090610c205760405162461bcd60e51b815260040161045a91906121da565b506005543414604051806040016040528060198152602001781393d517d15393d551d217d195539114d7d41493d592511151603a1b81525090610c765760405162461bcd60e51b815260040161045a91906121da565b50336000908152600f6020908152604091829020600201548251808401909352600d83526c1055151153541514d7d3115195609a1b9183019190915215610cd05760405162461bcd60e51b815260040161045a91906121da565b5050336000908152600f602052604090206003600290910155565b610d1f6040518060a00160405280600015158152602001600081526020016000815260200160608152602001600081525090565b6040805160a0810190915260085460ff16801515825260009182916020820190610d8f57610d69600860040154600554610d59600d611830565b610d6391906122ff565b90611840565b600554610d76600d611830565b610d8091906122ff565b610d8a919061235d565b610d93565b6009545b8152602001610ec9610e2d600660009054906101000a90046001600160a01b03166001600160a01b0316625a0e3d6040518163ffffffff1660e01b815260040160206040518083038186803b158015610deb57600080fd5b505afa158015610dff573d6000803e3d6000fd5b505050506040513d601f19601f82011682018060405250810190610e23919061207d565b610d63600d611830565b60085460ff16610ec15760065460408051625a0e3d60e01b81529051600a926001600160a01b031691625a0e3d916004808301926020929190829003018186803b158015610e7a57600080fd5b505afa158015610e8e573d6000803e3d6000fd5b505050506040513d601f19601f82011682018060405250810190610eb2919061207d565b610ebc91906122eb565b611909565b600a54611909565b815260200160086003018054610ede906123cd565b80601f0160208091040260200160405190810160405280929190818152602001828054610f0a906123cd565b8015610f575780601f10610f2c57610100808354040283529160200191610f57565b820191906000526020600020905b815481529060010190602001808311610f3a57829003601f168201915b5050509183525050600c54602090910152600554610f75600d611830565b925092509250909192565b42600454600354610f9191906122a5565b11604051806040016040528060148152602001731513d55493905351539517d21054d7d15391115160621b81525090610fdd5760405162461bcd60e51b815260040161045a91906121da565b506005543414604051806040016040528060198152602001781393d517d15393d551d217d195539114d7d41493d592511151603a1b815250906110335760405162461bcd60e51b815260040161045a91906121da565b5061103f600d33611921565b50336000818152600f602052604090819020600360029091015560065490516315a4c08360e31b815260048101929092526001600160a01b03169063ad26041890602401600060405180830381600087803b15801561109d57600080fd5b505af11580156110b1573d6000803e3d6000fd5b50505050565b60088054600954600a54600b805460ff9094169492939192916110d9906123cd565b80601f0160208091040260200160405190810160405280929190818152602001828054611105906123cd565b80156111525780601f1061112757610100808354040283529160200191611152565b820191906000526020600020905b81548152906001019060200180831161113557829003601f168201915b5050505050908060040154905085565b60606000611170600d611830565b67ffffffffffffffff8111156111885761118861247a565b6040519080825280602002602001820160405280156111ed57816020015b6111da604051806080016040528060006001600160a01b031681526020016060815260200160008152602001600081525090565b8152602001906001900390816111a65790505b5090506111fa600d611830565b61120357919050565b60005b611210600d611830565b8110156113425760408051608081019091528061122e600d84611936565b6001600160a01b0390811682526006546020909201911663d84f55ee611255600d86611936565b6040516001600160e01b031960e084901b1681526001600160a01b03909116600482015260240160006040518083038186803b15801561129457600080fd5b505afa1580156112a8573d6000803e3d6000fd5b505050506040513d6000823e601f3d908101601f191682016040526112d09190810190611fb7565b8152602001600f60006112e4600d86611936565b6001600160a01b03166001600160a01b03168152602001908152602001600020600101548152602001600081525082828151811061132457611324612464565b6020026020010181905250808061133a90612428565b915050611206565b506113648160006001611355600d611830565b61135f919061235d565b611942565b90506000611370610ceb565b505090506000611388611383600d611830565b611ae1565b905060006113d6670de0b6b3a76400006113a6848660400151611cc2565b6113b0919061235d565b6113d06113c5670de0b6b3a76400008661235d565b602087015190611d0c565b90611dbc565b905060005b83604001518110156114495761141661140f846001848860400151611400919061235d565b61140a919061235d565b611cc2565b8390611d0c565b85828151811061142857611428612464565b6020908102919091010151606001528061144181612428565b9150506113db565b5092949350505050565b606060008060008061148f6040518060a00160405280600015158152602001600081526020016000815260200160608152602001600081525090565b6000611499610ceb565b60028054939550909350916114ae91506123cd565b80601f01602080910402602001604051908101604052809291908181526020018280546114da906123cd565b80156115275780601f106114fc57610100808354040283529160200191611527565b820191906000526020600020905b81548152906001019060200180831161150a57829003601f168201915b50505050509650600454955060035494506001549350600554925090919293949596565b60075460408051808201909152601581527410d05313115497d393d517d055551213d492569151605a1b6020820152906001600160a01b031633146115a35760405162461bcd60e51b815260040161045a91906121da565b50426004546003546115b591906122a5565b11604051806040016040528060148152602001731513d55493905351539517d21054d7d15391115160621b815250906116015760405162461bcd60e51b815260040161045a91906121da565b50600654600154604051630a62bb0b60e21b81526000926001600160a01b03169163298aec2c9161164a9187916004016001600160a01b03929092168252602082015260400190565b60206040518083038186803b15801561166257600080fd5b505afa158015611676573d6000803e3d6000fd5b505050506040513d601f19601f8201168201806040525081019061169a9190611f95565b9050806040518060400160405280601181526020017014131056515497d393d517d293d2539151607a1b815250906116e55760405162461bcd60e51b815260040161045a91906121da565b506000600f6000856001600160a01b03166001600160a01b0316815260200190815260200160002060020154116040518060400160405280601081526020016f1393d7d055151153541514d7d311519560821b815250906117595760405162461bcd60e51b815260040161045a91906121da565b506001600160a01b0383166000908152600f6020526040812060018101849055600201805491611788836123be565b919050555042836001600160a01b03167f4713603fe21be537b9c9ca4c33240e81665fb6e4a681bdd1318c039f16b5aff6846040516117c991815260200190565b60405180910390a3505050565b600260005414156118295760405162461bcd60e51b815260206004820152601f60248201527f5265656e7472616e637947756172643a207265656e7472616e742063616c6c00604482015260640161045a565b6002600055565b600061183a825490565b92915050565b600082158061184d575081155b1561185a5750600061183a565b8161186860026127106122eb565b6118749060001961235d565b61187e91906122eb565b8311156040518060400160405280601c81526020017f4d4154485f4d554c5449504c49434154494f4e5f4f564552464c4f5700000000815250906118d55760405162461bcd60e51b815260040161045a91906121da565b506127106118e46002826122eb565b6118ee84866122ff565b6118f891906122a5565b61190291906122eb565b9392505050565b60008183111561191a57508061183a565b5090919050565b6000611902836001600160a01b038416611ec0565b60006119028383611f0f565b6060818312611952575082611902565b6000846002611961868661231e565b61196b91906122bd565b6119759086612264565b8151811061198557611985612464565b602090810291909101015160400151905083835b808213611aac575b828783815181106119b4576119b4612464565b60200260200101516040015111156119d857816119d081612408565b9250506119a1565b8681815181106119ea576119ea612464565b602002602001015160400151831115611a0f5780611a07816123a0565b9150506119d8565b808213611aa7576000878381518110611a2a57611a2a612464565b60200260200101519050878281518110611a4657611a46612464565b6020026020010151888481518110611a6057611a60612464565b602002602001018190525080888381518110611a7e57611a7e612464565b60200260200101819052508280611a9490612408565b9350508180611aa2906123a0565b925050505b611999565b80861215611ac157611abf878783611942565b505b84821215611ad657611ad4878387611942565b505b509495945050505050565b6000600a821015611b6957600654604051633438d19960e21b8152600a60048201526001600160a01b039091169063d0e34664906024015b60206040518083038186803b158015611b3157600080fd5b505afa158015611b45573d6000803e3d6000fd5b505050506040513d601f19601f8201168201806040525081019061183a919061207d565b6014821015611ba357600654604051633438d19960e21b8152601460048201526001600160a01b039091169063d0e3466490602401611b19565b601e821015611bdd57600654604051633438d19960e21b8152601e60048201526001600160a01b039091169063d0e3466490602401611b19565b6028821015611c1757600654604051633438d19960e21b8152602860048201526001600160a01b039091169063d0e3466490602401611b19565b6032821015611c5157600654604051633438d19960e21b8152603260048201526001600160a01b039091169063d0e3466490602401611b19565b6064821015611c8b57600654604051633438d19960e21b8152606460048201526001600160a01b039091169063d0e3466490602401611b19565b600654604051633438d19960e21b81526103e860048201526001600160a01b039091169063d0e3466490602401611b19565b919050565b60008282611cdb57670de0b6b3a764000091505061183a565b60015b83811015611d0457611cf08286611d0c565b915080611cfc81612428565b915050611cde565b509392505050565b6000821580611d19575081155b15611d265750600061183a565b81611d3a6002670de0b6b3a76400006122eb565b611d469060001961235d565b611d5091906122eb565b8311156040518060400160405280601c81526020017f4d4154485f4d554c5449504c49434154494f4e5f4f564552464c4f570000000081525090611da75760405162461bcd60e51b815260040161045a91906121da565b50670de0b6b3a76400006118e46002826122eb565b6040805180820190915260158152744d4154485f4449564953494f4e5f42595f5a45524f60581b602082015260009082611e095760405162461bcd60e51b815260040161045a91906121da565b506000611e176002846122eb565b9050670de0b6b3a7640000611e2e8260001961235d565b611e3891906122eb565b8411156040518060400160405280601c81526020017f4d4154485f4d554c5449504c49434154494f4e5f4f564552464c4f570000000081525090611e8f5760405162461bcd60e51b815260040161045a91906121da565b508281611ea4670de0b6b3a7640000876122ff565b611eae91906122a5565b611eb891906122eb565b949350505050565b6000818152600183016020526040812054611f075750815460018181018455600084815260208082209093018490558454848252828601909352604090209190915561183a565b50600061183a565b6000826000018281548110611f2657611f26612464565b9060005260206000200154905092915050565b80356001600160a01b0381168114611cbd57600080fd5b600060208284031215611f6257600080fd5b61190282611f39565b60008060408385031215611f7e57600080fd5b611f8783611f39565b946020939093013593505050565b600060208284031215611fa757600080fd5b8151801515811461190257600080fd5b600060208284031215611fc957600080fd5b815167ffffffffffffffff80821115611fe157600080fd5b818401915084601f830112611ff557600080fd5b8151818111156120075761200761247a565b604051601f8201601f19908116603f0116810190838211818310171561202f5761202f61247a565b8160405282815287602084870101111561204857600080fd5b612059836020830160208801612374565b979650505050505050565b60006020828403121561207657600080fd5b5035919050565b60006020828403121561208f57600080fd5b5051919050565b600081518084526120ae816020860160208601612374565b601f01601f19169290920160200192915050565b80511515825260208101516020830152604081015160408301526000606082015160a060608501526120f760a0850182612096565b608093840151949093019390935250919050565b60006020808301818452808551808352604092508286019150828160051b87010184880160005b8381101561219357888303603f19018552815180516001600160a01b031684528781015160808986018190529061216b82870182612096565b838a0151878b0152606093840151939096019290925250509386019390860190600101612132565b509098975050505050505050565b851515815284602082015283604082015260a0606082015260006121c860a0830185612096565b90508260808301529695505050505050565b6020815260006119026020830184612096565b60e08152600061220060e083018a612096565b88602084015287604084015286606084015285608084015282810360a084015261222a81866120c2565b9150508260c083015298975050505050505050565b60608152600061225260608301866120c2565b60208301949094525060400152919050565b600080821280156001600160ff1b038490038513161561228657612286612438565b600160ff1b839003841281161561229f5761229f612438565b50500190565b600082198211156122b8576122b8612438565b500190565b6000826122cc576122cc61244e565b600160ff1b8214600019841416156122e6576122e6612438565b500590565b6000826122fa576122fa61244e565b500490565b600081600019048311821515161561231957612319612438565b500290565b60008083128015600160ff1b85018412161561233c5761233c612438565b6001600160ff1b038401831381161561235757612357612438565b50500390565b60008282101561236f5761236f612438565b500390565b60005b8381101561238f578181015183820152602001612377565b838111156110b15750506000910152565b6000600160ff1b8214156123b6576123b6612438565b506000190190565b6000816123b6576123b6612438565b600181811c908216806123e157607f821691505b6020821081141561240257634e487b7160e01b600052602260045260246000fd5b50919050565b60006001600160ff1b0382141561242157612421612438565b5060010190565b6000600019821415612421576124215b634e487b7160e01b600052601160045260246000fd5b634e487b7160e01b600052601260045260246000fd5b634e487b7160e01b600052603260045260246000fd5b634e487b7160e01b600052604160045260246000fdfea2646970667358221220dcb0056d1db1c140ee2a2c79cbe53a8074aeb7bc8012cd3841eebdc244da5b4e64736f6c63430008070033",
  "linkReferences": {},
  "deployedLinkReferences": {}
}