{
  "_format": "hh-sol-artifact-1",
  "contractName": "Tournament",
  "sourceName": "contracts/Tournament.sol",
  "abi": [
    {
      "inputs": [
        {
          "internalType": "uint256",
          "name": "id_",
          "type": "uint256"
        },
        {
          "internalType": "string",
          "name": "name_",
          "type": "string"
        },
        {
          "internalType": "uint256",
          "name": "startTime_",
          "type": "uint256"
        },
        {
          "internalType": "address",
          "name": "gameContract_",
          "type": "address"
        },
        {
          "components": [
            {
              "internalType": "bool",
              "name": "isSponsored",
              "type": "bool"
            },
            {
              "internalType": "uint256",
              "name": "prizePool",
              "type": "uint256"
            },
            {
              "internalType": "uint256",
              "name": "nWinners",
              "type": "uint256"
            },
            {
              "internalType": "string",
              "name": "sponsorMetadata",
              "type": "string"
            },
            {
              "internalType": "uint256",
              "name": "commissionPercentage",
              "type": "uint256"
            }
          ],
          "internalType": "struct RewardVars",
          "name": "_rewardVars",
          "type": "tuple"
        }
      ],
      "stateMutability": "nonpayable",
      "type": "constructor"
    },
    {
      "inputs": [],
      "name": "approvedCaller",
      "outputs": [
        {
          "internalType": "address",
          "name": "",
          "type": "address"
        }
      ],
      "stateMutability": "view",
      "type": "function"
    },
    {
      "inputs": [],
      "name": "endTournament",
      "outputs": [],
      "stateMutability": "nonpayable",
      "type": "function"
    },
    {
      "inputs": [],
      "name": "gameContract",
      "outputs": [
        {
          "internalType": "address",
          "name": "",
          "type": "address"
        }
      ],
      "stateMutability": "view",
      "type": "function"
    },
    {
      "inputs": [],
      "name": "getLeaderBoard",
      "outputs": [
        {
          "components": [
            {
              "internalType": "address",
              "name": "wallet",
              "type": "address"
            },
            {
              "internalType": "string",
              "name": "username",
              "type": "string"
            },
            {
              "internalType": "uint256",
              "name": "highscore",
              "type": "uint256"
            },
            {
              "internalType": "uint256",
              "name": "prize",
              "type": "uint256"
            }
          ],
          "internalType": "struct Tournament.LeaderBoardEntry[]",
          "name": "",
          "type": "tuple[]"
        }
      ],
      "stateMutability": "view",
      "type": "function"
    },
    {
      "inputs": [],
      "name": "id",
      "outputs": [
        {
          "internalType": "uint256",
          "name": "",
          "type": "uint256"
        }
      ],
      "stateMutability": "view",
      "type": "function"
    },
    {
      "inputs": [],
      "name": "joinTournament",
      "outputs": [],
      "stateMutability": "payable",
      "type": "function"
    },
    {
      "inputs": [],
      "name": "joiningFees",
      "outputs": [
        {
          "internalType": "uint256",
          "name": "",
          "type": "uint256"
        }
      ],
      "stateMutability": "view",
      "type": "function"
    },
    {
      "inputs": [],
      "name": "name",
      "outputs": [
        {
          "internalType": "string",
          "name": "",
          "type": "string"
        }
      ],
      "stateMutability": "view",
      "type": "function"
    },
    {
      "inputs": [
        {
          "internalType": "address",
          "name": "",
          "type": "address"
        }
      ],
      "name": "playerStatsMap",
      "outputs": [
        {
          "internalType": "uint256",
          "name": "rank",
          "type": "uint256"
        },
        {
          "internalType": "uint256",
          "name": "highscore",
          "type": "uint256"
        },
        {
          "internalType": "uint256",
          "name": "allocatedPrize",
          "type": "uint256"
        },
        {
          "internalType": "uint256",
          "name": "unclaimedPrize",
          "type": "uint256"
        }
      ],
      "stateMutability": "view",
      "type": "function"
    },
    {
      "inputs": [
        {
          "internalType": "address",
          "name": "_player",
          "type": "address"
        },
        {
          "internalType": "uint256",
          "name": "_score",
          "type": "uint256"
        }
      ],
      "name": "recordScore",
      "outputs": [],
      "stateMutability": "nonpayable",
      "type": "function"
    },
    {
      "inputs": [],
      "name": "rewardVars",
      "outputs": [
        {
          "internalType": "bool",
          "name": "isSponsored",
          "type": "bool"
        },
        {
          "internalType": "uint256",
          "name": "prizePool",
          "type": "uint256"
        },
        {
          "internalType": "uint256",
          "name": "nWinners",
          "type": "uint256"
        },
        {
          "internalType": "string",
          "name": "sponsorMetadata",
          "type": "string"
        },
        {
          "internalType": "uint256",
          "name": "commissionPercentage",
          "type": "uint256"
        }
      ],
      "stateMutability": "view",
      "type": "function"
    },
    {
      "inputs": [],
      "name": "startTime",
      "outputs": [
        {
          "internalType": "uint256",
          "name": "",
          "type": "uint256"
        }
      ],
      "stateMutability": "view",
      "type": "function"
    },
    {
      "inputs": [],
      "name": "timeLimit",
      "outputs": [
        {
          "internalType": "uint256",
          "name": "",
          "type": "uint256"
        }
      ],
      "stateMutability": "view",
      "type": "function"
    },
    {
      "inputs": [],
      "name": "withdrawPrize",
      "outputs": [],
      "stateMutability": "nonpayable",
      "type": "function"
    }
  ],
  "bytecode": "0x60806040523480156200001157600080fd5b5060405162001d4d38038062001d4d8339810160408190526200003491620003fe565b6001600081905585905583516200005390600290602087019062000267565b506003839055600680546001600160a01b0319166001600160a01b0384169081179091556040805163c08d1fe560e01b8152905163c08d1fe591600480820192602092909190829003018186803b158015620000ae57600080fd5b505afa158015620000c3573d6000803e3d6000fd5b505050506040513d601f19601f82011682018060405250810190620000e99190620003e4565b600490815560065460408051634959d97760e01b815290516001600160a01b0390921692634959d977928282019260209290829003018186803b1580156200013057600080fd5b505afa15801562000145573d6000803e3d6000fd5b505050506040513d601f19601f820116820180604052508101906200016b9190620003e4565b60055560065460408051638da5cb5b60e01b815290516001600160a01b0390921691638da5cb5b91600480820192602092909190829003018186803b158015620001b457600080fd5b505afa158015620001c9573d6000803e3d6000fd5b505050506040513d601f19601f82011682018060405250810190620001ef9190620003bf565b600780546001600160a01b0319166001600160a01b039290921691909117905580516008805460ff19169115159190911781556020808301516009556040830151600a55606083015180518493926200024e92600b9291019062000267565b50608082015181600401559050505050505050620005ad565b82805462000275906200055a565b90600052602060002090601f016020900481019282620002995760008555620002e4565b82601f10620002b457805160ff1916838001178555620002e4565b82800160010185558215620002e4579182015b82811115620002e4578251825591602001919060010190620002c7565b50620002f2929150620002f6565b5090565b5b80821115620002f25760008155600101620002f7565b80516001600160a01b03811681146200032557600080fd5b919050565b600082601f8301126200033c57600080fd5b81516001600160401b0381111562000358576200035862000597565b60206200036e601f8301601f1916820162000527565b82815285828487010111156200038357600080fd5b60005b83811015620003a357858101830151828201840152820162000386565b83811115620003b55760008385840101525b5095945050505050565b600060208284031215620003d257600080fd5b620003dd826200030d565b9392505050565b600060208284031215620003f757600080fd5b5051919050565b600080600080600060a086880312156200041757600080fd5b855160208701519095506001600160401b03808211156200043757600080fd5b6200044589838a016200032a565b9550604088015194506200045c606089016200030d565b935060808801519150808211156200047357600080fd5b9087019060a0828a0312156200048857600080fd5b62000492620004fc565b82518015158114620004a357600080fd5b808252506020830151602082015260408301516040820152606083015182811115620004ce57600080fd5b620004dc8b8286016200032a565b606083015250608083015160808201528093505050509295509295909350565b60405160a081016001600160401b038111828210171562000521576200052162000597565b60405290565b604051601f8201601f191681016001600160401b038111828210171562000552576200055262000597565b604052919050565b600181811c908216806200056f57607f821691505b602082108114156200059157634e487b7160e01b600052602260045260246000fd5b50919050565b634e487b7160e01b600052604160045260246000fd5b61179080620005bd6000396000f3fe6080604052600436106100dd5760003560e01c8063858dbf7d1161007f578063c08d1fe511610059578063c08d1fe514610251578063c29d72bc14610267578063d3f3300914610289578063fbd53482146102a957600080fd5b8063858dbf7d146101b3578063ab632d4a146101d9578063af640d0f1461023b57600080fd5b80634959d977116100bb5780634959d9771461015c5780634d633a8f1461018057806378e97925146101955780637ce11861146101ab57600080fd5b806306fdde03146100e257806345446d711461010d57806348d37a5814610145575b600080fd5b3480156100ee57600080fd5b506100f76102c9565b6040516101049190611526565b60405180910390f35b34801561011957600080fd5b5060075461012d906001600160a01b031681565b6040516001600160a01b039091168152602001610104565b34801561015157600080fd5b5061015a610357565b005b34801561016857600080fd5b5061017260055481565b604051908152602001610104565b34801561018c57600080fd5b5061015a6103a5565b3480156101a157600080fd5b5061017260035481565b61015a610567565b3480156101bf57600080fd5b506101c86106e0565b6040516101049594939291906114ed565b3480156101e557600080fd5b5061021b6101f4366004611305565b600f6020526000908152604090208054600182015460028301546003909301549192909184565b604080519485526020850193909352918301526060820152608001610104565b34801561024757600080fd5b5061017260015481565b34801561025d57600080fd5b5061017260045481565b34801561027357600080fd5b5061027c61078b565b6040516101049190611457565b34801561029557600080fd5b5060065461012d906001600160a01b031681565b3480156102b557600080fd5b5061015a6102c4366004611320565b610c81565b600280546102d690611697565b80601f016020809104026020016040519081016040528092919081815260200182805461030290611697565b801561034f5780601f106103245761010080835404028352916020019161034f565b820191906000526020600020905b81548152906001019060200180831161033257829003601f168201915b505050505081565b336000908152600f602052604090206003810154156103a25760006003820181905560405133916108fc9181818181818888f193505050501580156103a0573d6000803e3d6000fd5b505b50565b6007546001600160a01b031633146103f55760405162461bcd60e51b815260206004820152600e60248201526d139bdd08185d5d1a1bdc9a5e995960921b60448201526064015b60405180910390fd5b42600454600354610406919061157a565b106104535760405162461bcd60e51b815260206004820152601860248201527f546f75726e616d656e74206973207374696c6c206c697665000000000000000060448201526064016103ec565b600061045d61078b565b905060005b61046c600d610d40565b8110156103a057604051806080016040528082600161048b919061157a565b81526020018383815181106104a2576104a261172e565b60200260200101516040015181526020018383815181106104c5576104c561172e565b60200260200101516060015181526020018383815181106104e8576104e861172e565b602002602001015160600151815250600f600084848151811061050d5761050d61172e565b602090810291909101810151516001600160a01b031682528181019290925260409081016000208351815591830151600183015582015160028201556060909101516003909101558061055f816116f2565b915050610462565b42600454600354610578919061157a565b116105bc5760405162461bcd60e51b8152602060048201526014602482015273151bdd5c9b985b595b9d081a185cc8195b99195960621b60448201526064016103ec565b600654604051630a0bdc1560e11b81523360048201526000916001600160a01b031690631417b82a9060240160006040518083038186803b15801561060057600080fd5b505afa158015610614573d6000803e3d6000fd5b505050506040513d6000823e601f3d908101601f1916820160405261063c919081019061134a565b509050806106845760405162461bcd60e51b8152602060048201526015602482015274141b185e595c881b9bdd081c9959da5cdd195c9959605a1b60448201526064016103ec565b60055434146106d55760405162461bcd60e51b815260206004820152601960248201527f4a6f696e696e672046656573206e6f742070726f76696465640000000000000060448201526064016103ec565b6103a0600d33610d50565b60088054600954600a54600b805460ff90941694929391929161070290611697565b80601f016020809104026020016040519081016040528092919081815260200182805461072e90611697565b801561077b5780601f106107505761010080835404028352916020019161077b565b820191906000526020600020905b81548152906001019060200180831161075e57829003601f168201915b5050505050908060040154905085565b60606000610799600d610d40565b67ffffffffffffffff8111156107b1576107b1611744565b60405190808252806020026020018201604052801561081657816020015b610803604051806080016040528060006001600160a01b031681526020016060815260200160008152602001600081525090565b8152602001906001900390816107cf5790505b50905060005b610826600d610d40565b81101561095257600654604051630a0bdc1560e11b81523360048201526000916001600160a01b031690631417b82a9060240160006040518083038186803b15801561087157600080fd5b505afa158015610885573d6000803e3d6000fd5b505050506040513d6000823e601f3d908101601f191682016040526108ad919081019061134a565b91505060405180608001604052806108cf84600d610d6c90919063ffffffff16565b6001600160a01b0316815260208101839052604001600f60006108f3600d87610d6c565b6001600160a01b03166001600160a01b0316815260200190815260200160002060010154815260200160008152508383815181106109335761093361172e565b602002602001018190525050808061094a906116f2565b91505061081c565b506109748160006001610965600d610d40565b61096f9190611632565b610d78565b6040805160a0810190915260085460ff16801515825291925060009160208201906109e5576109bf6008600401546005546109af600d610d40565b6109b991906115d4565b90610f17565b6005546109cc600d610d40565b6109d691906115d4565b6109e09190611632565b6109e9565b6009545b8152602001610b1f610a83600660009054906101000a90046001600160a01b03166001600160a01b0316625a0e3d6040518163ffffffff1660e01b815260040160206040518083038186803b158015610a4157600080fd5b505afa158015610a55573d6000803e3d6000fd5b505050506040513d601f19601f82011682018060405250810190610a799190611412565b6109b9600d610d40565b60085460ff16610b175760065460408051625a0e3d60e01b81529051600a926001600160a01b031691625a0e3d916004808301926020929190829003018186803b158015610ad057600080fd5b505afa158015610ae4573d6000803e3d6000fd5b505050506040513d601f19601f82011682018060405250810190610b089190611412565b610b1291906115c0565b610fbe565b600a54610fbe565b815260200160086003018054610b3490611697565b80601f0160208091040260200160405190810160405280929190818152602001828054610b6090611697565b8015610bad5780601f10610b8257610100808354040283529160200191610bad565b820191906000526020600020905b815481529060010190602001808311610b9057829003601f168201915b5050509183525050600c5460209091015290506000610bd4610bcf600d610d40565b610fd6565b90506000620f4240610bea8385604001516111b7565b610bf49190611632565b610c01620f424084611632565b8460200151610c1091906115d4565b610c1a91906115c0565b905060005b610c29600d610d40565b811015610c7757610c3a83826111b7565b610c4490836115d4565b858281518110610c5657610c5661172e565b60209081029190910101516060015280610c6f816116f2565b915050610c1f565b5092949350505050565b6007546001600160a01b03163314610ccc5760405162461bcd60e51b815260206004820152600e60248201526d139bdd08185d5d1a1bdc9a5e995960921b60448201526064016103ec565b42600454600354610cdd919061157a565b11610d215760405162461bcd60e51b8152602060048201526014602482015273151bdd5c9b985b595b9d081a185cc8195b99195960621b60448201526064016103ec565b6001600160a01b039091166000908152600f6020526040902060010155565b6000610d4a825490565b92915050565b6000610d65836001600160a01b0384166111ea565b9392505050565b6000610d658383611239565b6060818312610d88575082610d65565b6000846002610d9786866115f3565b610da19190611592565b610dab9086611539565b81518110610dbb57610dbb61172e565b602090810291909101015160400151905083835b808213610ee2575b82878381518110610dea57610dea61172e565b6020026020010151604001511115610e0e5781610e06816116d2565b925050610dd7565b868181518110610e2057610e2061172e565b602002602001015160400151831115610e455780610e3d81611679565b915050610e0e565b808213610edd576000878381518110610e6057610e6061172e565b60200260200101519050878281518110610e7c57610e7c61172e565b6020026020010151888481518110610e9657610e9661172e565b602002602001018190525080888381518110610eb457610eb461172e565b60200260200101819052508280610eca906116d2565b9350508180610ed890611679565b925050505b610dcf565b80861215610ef757610ef5878783610d78565b505b84821215610f0c57610f0a878387610d78565b505b509495945050505050565b6000821580610f24575081155b15610f3157506000610d4a565b81610f3f60026127106115c0565b610f4b90600019611632565b610f5591906115c0565b83111560405180604001604052806002815260200161068760f31b81525090610f915760405162461bcd60e51b81526004016103ec9190611526565b50612710610fa06002826115c0565b610faa84866115d4565b610fb4919061157a565b610d6591906115c0565b600081831115610fcf575080610d4a565b5090919050565b6000600a82101561105e57600654604051633438d19960e21b8152600a60048201526001600160a01b039091169063d0e34664906024015b60206040518083038186803b15801561102657600080fd5b505afa15801561103a573d6000803e3d6000fd5b505050506040513d601f19601f82011682018060405250810190610d4a9190611412565b601482101561109857600654604051633438d19960e21b8152601460048201526001600160a01b039091169063d0e346649060240161100e565b601e8210156110d257600654604051633438d19960e21b8152601e60048201526001600160a01b039091169063d0e346649060240161100e565b602882101561110c57600654604051633438d19960e21b8152602860048201526001600160a01b039091169063d0e346649060240161100e565b603282101561114657600654604051633438d19960e21b8152603260048201526001600160a01b039091169063d0e346649060240161100e565b606482101561118057600654604051633438d19960e21b8152606460048201526001600160a01b039091169063d0e346649060240161100e565b600654604051633438d19960e21b81526103e860048201526001600160a01b039091169063d0e346649060240161100e565b919050565b600082815b838110156111e2576111ce8286611263565b9150806111da816116f2565b9150506111bc565b509392505050565b600081815260018301602052604081205461123157508154600181810184556000848152602080822090930184905584548482528286019093526040902091909155610d4a565b506000610d4a565b60008260000182815481106112505761125061172e565b9060005260206000200154905092915050565b6000821580611270575081155b1561127d57506000610d4a565b8161128c6002620f42406115c0565b61129890600019611632565b6112a291906115c0565b83111560405180604001604052806002815260200161068760f31b815250906112de5760405162461bcd60e51b81526004016103ec9190611526565b50620f4240610fa06002826115c0565b80356001600160a01b03811681146111b257600080fd5b60006020828403121561131757600080fd5b610d65826112ee565b6000806040838503121561133357600080fd5b61133c836112ee565b946020939093013593505050565b6000806040838503121561135d57600080fd5b8251801515811461136d57600080fd5b602084015190925067ffffffffffffffff8082111561138b57600080fd5b818501915085601f83011261139f57600080fd5b8151818111156113b1576113b1611744565b604051601f8201601f19908116603f011681019083821181831017156113d9576113d9611744565b816040528281528860208487010111156113f257600080fd5b611403836020830160208801611649565b80955050505050509250929050565b60006020828403121561142457600080fd5b5051919050565b60008151808452611443816020860160208601611649565b601f01601f19169290920160200192915050565b60006020808301818452808551808352604092508286019150828160051b87010184880160005b838110156114df57888303603f19018552815180516001600160a01b03168452878101516080898601819052906114b78287018261142b565b838a0151878b015260609384015193909601929092525050938601939086019060010161147e565b509098975050505050505050565b851515815284602082015283604082015260a06060820152600061151460a083018561142b565b90508260808301529695505050505050565b602081526000610d65602083018461142b565b600080821280156001600160ff1b038490038513161561155b5761155b611702565b600160ff1b839003841281161561157457611574611702565b50500190565b6000821982111561158d5761158d611702565b500190565b6000826115a1576115a1611718565b600160ff1b8214600019841416156115bb576115bb611702565b500590565b6000826115cf576115cf611718565b500490565b60008160001904831182151516156115ee576115ee611702565b500290565b60008083128015600160ff1b85018412161561161157611611611702565b6001600160ff1b038401831381161561162c5761162c611702565b50500390565b60008282101561164457611644611702565b500390565b60005b8381101561166457818101518382015260200161164c565b83811115611673576000848401525b50505050565b6000600160ff1b82141561168f5761168f611702565b506000190190565b600181811c908216806116ab57607f821691505b602082108114156116cc57634e487b7160e01b600052602260045260246000fd5b50919050565b60006001600160ff1b038214156116eb576116eb611702565b5060010190565b60006000198214156116eb576116eb5b634e487b7160e01b600052601160045260246000fd5b634e487b7160e01b600052601260045260246000fd5b634e487b7160e01b600052603260045260246000fd5b634e487b7160e01b600052604160045260246000fdfea264697066735822122020665c1b6dc239ad5593946faa61dd005c4723a8b4c884885051f3fa81a7ee3a64736f6c63430008070033",
  "linkReferences": {},
  "deployedLinkReferences": {}
}