{
  "_format": "hh-sol-artifact-1",
  "contractName": "Tournament",
  "sourceName": "contracts/Tournament.sol",
  "abi": [
    {
      "inputs": [
        {
          "internalType": "uint256",
          "name": "id_",
          "type": "uint256"
        },
        {
          "internalType": "string",
          "name": "name_",
          "type": "string"
        },
        {
          "internalType": "uint256",
          "name": "startTime_",
          "type": "uint256"
        },
        {
          "internalType": "address",
          "name": "gameContractAddress_",
          "type": "address"
        },
        {
          "components": [
            {
              "internalType": "bool",
              "name": "isSponsored",
              "type": "bool"
            },
            {
              "internalType": "uint256",
              "name": "prizePool",
              "type": "uint256"
            },
            {
              "internalType": "uint256",
              "name": "nWinners",
              "type": "uint256"
            },
            {
              "internalType": "string",
              "name": "sponsorMetadata",
              "type": "string"
            },
            {
              "internalType": "uint256",
              "name": "commissionPercentage",
              "type": "uint256"
            }
          ],
          "internalType": "struct DataTypes.RewardVars",
          "name": "_rewardVars",
          "type": "tuple"
        }
      ],
      "stateMutability": "nonpayable",
      "type": "constructor"
    },
    {
      "anonymous": false,
      "inputs": [
        {
          "indexed": true,
          "internalType": "address",
          "name": "payer",
          "type": "address"
        },
        {
          "indexed": true,
          "internalType": "uint256",
          "name": "timestamp",
          "type": "uint256"
        },
        {
          "indexed": false,
          "internalType": "uint256",
          "name": "funds",
          "type": "uint256"
        }
      ],
      "name": "FundsAdded",
      "type": "event"
    },
    {
      "anonymous": false,
      "inputs": [
        {
          "indexed": true,
          "internalType": "uint256",
          "name": "timestamp",
          "type": "uint256"
        },
        {
          "indexed": false,
          "internalType": "uint256",
          "name": "funds",
          "type": "uint256"
        }
      ],
      "name": "FundsWithdrawn",
      "type": "event"
    },
    {
      "anonymous": false,
      "inputs": [
        {
          "indexed": true,
          "internalType": "address",
          "name": "player",
          "type": "address"
        },
        {
          "indexed": true,
          "internalType": "uint256",
          "name": "timestamp",
          "type": "uint256"
        },
        {
          "indexed": false,
          "internalType": "uint256",
          "name": "score",
          "type": "uint256"
        }
      ],
      "name": "ScoreRecorded",
      "type": "event"
    },
    {
      "inputs": [],
      "name": "approvedCaller",
      "outputs": [
        {
          "internalType": "address",
          "name": "",
          "type": "address"
        }
      ],
      "stateMutability": "view",
      "type": "function"
    },
    {
      "inputs": [],
      "name": "endTournament",
      "outputs": [],
      "stateMutability": "nonpayable",
      "type": "function"
    },
    {
      "inputs": [],
      "name": "gameContractAddress",
      "outputs": [
        {
          "internalType": "address",
          "name": "",
          "type": "address"
        }
      ],
      "stateMutability": "view",
      "type": "function"
    },
    {
      "inputs": [],
      "name": "getLeaderBoard",
      "outputs": [
        {
          "components": [
            {
              "internalType": "address",
              "name": "wallet",
              "type": "address"
            },
            {
              "internalType": "string",
              "name": "username",
              "type": "string"
            },
            {
              "internalType": "uint256",
              "name": "highscore",
              "type": "uint256"
            },
            {
              "internalType": "uint256",
              "name": "prize",
              "type": "uint256"
            }
          ],
          "internalType": "struct DataTypes.LeaderBoardEntry[]",
          "name": "",
          "type": "tuple[]"
        }
      ],
      "stateMutability": "view",
      "type": "function"
    },
    {
      "inputs": [],
      "name": "getRewardInfo",
      "outputs": [
        {
          "components": [
            {
              "internalType": "bool",
              "name": "isSponsored",
              "type": "bool"
            },
            {
              "internalType": "uint256",
              "name": "prizePool",
              "type": "uint256"
            },
            {
              "internalType": "uint256",
              "name": "nWinners",
              "type": "uint256"
            },
            {
              "internalType": "string",
              "name": "sponsorMetadata",
              "type": "string"
            },
            {
              "internalType": "uint256",
              "name": "commissionPercentage",
              "type": "uint256"
            }
          ],
          "internalType": "struct DataTypes.RewardVars",
          "name": "",
          "type": "tuple"
        },
        {
          "internalType": "uint256",
          "name": "",
          "type": "uint256"
        },
        {
          "internalType": "uint256",
          "name": "",
          "type": "uint256"
        }
      ],
      "stateMutability": "view",
      "type": "function"
    },
    {
      "inputs": [],
      "name": "getTournamentInfo",
      "outputs": [
        {
          "internalType": "string",
          "name": "_name",
          "type": "string"
        },
        {
          "internalType": "uint256",
          "name": "_timeLimit",
          "type": "uint256"
        },
        {
          "internalType": "uint256",
          "name": "_startTime",
          "type": "uint256"
        },
        {
          "internalType": "uint256",
          "name": "_id",
          "type": "uint256"
        },
        {
          "internalType": "uint256",
          "name": "_joiningFees",
          "type": "uint256"
        },
        {
          "components": [
            {
              "internalType": "bool",
              "name": "isSponsored",
              "type": "bool"
            },
            {
              "internalType": "uint256",
              "name": "prizePool",
              "type": "uint256"
            },
            {
              "internalType": "uint256",
              "name": "nWinners",
              "type": "uint256"
            },
            {
              "internalType": "string",
              "name": "sponsorMetadata",
              "type": "string"
            },
            {
              "internalType": "uint256",
              "name": "commissionPercentage",
              "type": "uint256"
            }
          ],
          "internalType": "struct DataTypes.RewardVars",
          "name": "_rewardVars",
          "type": "tuple"
        },
        {
          "internalType": "uint256",
          "name": "_nPlayers",
          "type": "uint256"
        }
      ],
      "stateMutability": "view",
      "type": "function"
    },
    {
      "inputs": [],
      "name": "hasEnded",
      "outputs": [
        {
          "internalType": "bool",
          "name": "",
          "type": "bool"
        }
      ],
      "stateMutability": "view",
      "type": "function"
    },
    {
      "inputs": [],
      "name": "id",
      "outputs": [
        {
          "internalType": "uint256",
          "name": "",
          "type": "uint256"
        }
      ],
      "stateMutability": "view",
      "type": "function"
    },
    {
      "inputs": [],
      "name": "joinTournament",
      "outputs": [],
      "stateMutability": "payable",
      "type": "function"
    },
    {
      "inputs": [],
      "name": "joiningFees",
      "outputs": [
        {
          "internalType": "uint256",
          "name": "",
          "type": "uint256"
        }
      ],
      "stateMutability": "view",
      "type": "function"
    },
    {
      "inputs": [],
      "name": "name",
      "outputs": [
        {
          "internalType": "string",
          "name": "",
          "type": "string"
        }
      ],
      "stateMutability": "view",
      "type": "function"
    },
    {
      "inputs": [
        {
          "internalType": "address",
          "name": "",
          "type": "address"
        }
      ],
      "name": "playerStatsMap",
      "outputs": [
        {
          "internalType": "uint256",
          "name": "rank",
          "type": "uint256"
        },
        {
          "internalType": "uint256",
          "name": "highscore",
          "type": "uint256"
        },
        {
          "internalType": "uint256",
          "name": "attemptsLeft",
          "type": "uint256"
        },
        {
          "internalType": "uint256",
          "name": "reFills",
          "type": "uint256"
        },
        {
          "internalType": "uint256",
          "name": "allocatedPrize",
          "type": "uint256"
        },
        {
          "internalType": "uint256",
          "name": "unclaimedPrize",
          "type": "uint256"
        }
      ],
      "stateMutability": "view",
      "type": "function"
    },
    {
      "inputs": [],
      "name": "reFill",
      "outputs": [],
      "stateMutability": "payable",
      "type": "function"
    },
    {
      "inputs": [
        {
          "internalType": "address",
          "name": "_player",
          "type": "address"
        },
        {
          "internalType": "uint256",
          "name": "_score",
          "type": "uint256"
        }
      ],
      "name": "recordScore",
      "outputs": [],
      "stateMutability": "nonpayable",
      "type": "function"
    },
    {
      "inputs": [],
      "name": "rewardVars",
      "outputs": [
        {
          "internalType": "bool",
          "name": "isSponsored",
          "type": "bool"
        },
        {
          "internalType": "uint256",
          "name": "prizePool",
          "type": "uint256"
        },
        {
          "internalType": "uint256",
          "name": "nWinners",
          "type": "uint256"
        },
        {
          "internalType": "string",
          "name": "sponsorMetadata",
          "type": "string"
        },
        {
          "internalType": "uint256",
          "name": "commissionPercentage",
          "type": "uint256"
        }
      ],
      "stateMutability": "view",
      "type": "function"
    },
    {
      "inputs": [],
      "name": "startTime",
      "outputs": [
        {
          "internalType": "uint256",
          "name": "",
          "type": "uint256"
        }
      ],
      "stateMutability": "view",
      "type": "function"
    },
    {
      "inputs": [],
      "name": "timeLimit",
      "outputs": [
        {
          "internalType": "uint256",
          "name": "",
          "type": "uint256"
        }
      ],
      "stateMutability": "view",
      "type": "function"
    },
    {
      "inputs": [
        {
          "internalType": "uint256",
          "name": "funds",
          "type": "uint256"
        }
      ],
      "name": "withdrawContractFunds",
      "outputs": [],
      "stateMutability": "nonpayable",
      "type": "function"
    },
    {
      "inputs": [],
      "name": "withdrawPrize",
      "outputs": [],
      "stateMutability": "nonpayable",
      "type": "function"
    },
    {
      "stateMutability": "payable",
      "type": "receive"
    }
  ],
  "bytecode": "0x60806040523480156200001157600080fd5b5060405162002cdd38038062002cdd8339810160408190526200003491620003fe565b6001600081905585905583516200005390600290602087019062000267565b506003839055600680546001600160a01b0319166001600160a01b0384169081179091556040805163c08d1fe560e01b8152905163c08d1fe591600480820192602092909190829003018186803b158015620000ae57600080fd5b505afa158015620000c3573d6000803e3d6000fd5b505050506040513d601f19601f82011682018060405250810190620000e99190620003e4565b600490815560065460408051634959d97760e01b815290516001600160a01b0390921692634959d977928282019260209290829003018186803b1580156200013057600080fd5b505afa15801562000145573d6000803e3d6000fd5b505050506040513d601f19601f820116820180604052508101906200016b9190620003e4565b60055560065460408051631127a41d60e31b815290516001600160a01b039092169163893d20e891600480820192602092909190829003018186803b158015620001b457600080fd5b505afa158015620001c9573d6000803e3d6000fd5b505050506040513d601f19601f82011682018060405250810190620001ef9190620003bf565b600780546001600160a01b0319166001600160a01b039290921691909117905580516008805460ff19169115159190911781556020808301516009556040830151600a55606083015180518493926200024e92600b9291019062000267565b50608082015181600401559050505050505050620005ad565b82805462000275906200055a565b90600052602060002090601f016020900481019282620002995760008555620002e4565b82601f10620002b457805160ff1916838001178555620002e4565b82800160010185558215620002e4579182015b82811115620002e4578251825591602001919060010190620002c7565b50620002f2929150620002f6565b5090565b5b80821115620002f25760008155600101620002f7565b80516001600160a01b03811681146200032557600080fd5b919050565b600082601f8301126200033c57600080fd5b81516001600160401b0381111562000358576200035862000597565b60206200036e601f8301601f1916820162000527565b82815285828487010111156200038357600080fd5b60005b83811015620003a357858101830151828201840152820162000386565b83811115620003b55760008385840101525b5095945050505050565b600060208284031215620003d257600080fd5b620003dd826200030d565b9392505050565b600060208284031215620003f757600080fd5b5051919050565b600080600080600060a086880312156200041757600080fd5b855160208701519095506001600160401b03808211156200043757600080fd5b6200044589838a016200032a565b9550604088015194506200045c606089016200030d565b935060808801519150808211156200047357600080fd5b9087019060a0828a0312156200048857600080fd5b62000492620004fc565b82518015158114620004a357600080fd5b808252506020830151602082015260408301516040820152606083015182811115620004ce57600080fd5b620004dc8b8286016200032a565b606083015250608083015160808201528093505050509295509295909350565b60405160a081016001600160401b038111828210171562000521576200052162000597565b60405290565b604051601f8201601f191681016001600160401b038111828210171562000552576200055262000597565b604052919050565b600181811c908216806200056f57607f821691505b602082108114156200059157634e487b7160e01b600052602260045260246000fd5b50919050565b634e487b7160e01b600052604160045260246000fd5b61272080620005bd6000396000f3fe6080604052600436106101185760003560e01c806378e97925116100a0578063c08d1fe511610064578063c08d1fe514610351578063c29d72bc14610367578063d829055e14610389578063ecb70fb7146103b1578063fbd53482146103e257600080fd5b806378e979251461027a5780637ce1186114610290578063858dbf7d14610298578063ab632d4a146102be578063af640d0f1461033b57600080fd5b80634959d977116100e75780634959d977146101f55780634d633a8f1461021957806350ed91931461022e57806363df0ef714610236578063699c8f331461025657600080fd5b8063069f5bf71461015b57806306fdde031461017d57806345446d71146101a857806348d37a58146101e057600080fd5b3661015657604051348152429033907f92023dd282de3eea749a3a27a58271d70f04c1f7905fce2e1996ec9bdfccf33b9060200160405180910390a3005b600080fd5b34801561016757600080fd5b5061017b61017636600461229c565b610402565b005b34801561018957600080fd5b50610192610518565b60405161019f9190612412565b60405180910390f35b3480156101b457600080fd5b506007546101c8906001600160a01b031681565b6040516001600160a01b03909116815260200161019f565b3480156101ec57600080fd5b5061017b6105a6565b34801561020157600080fd5b5061020b60055481565b60405190815260200161019f565b34801561022557600080fd5b5061017b610873565b61017b610b51565b34801561024257600080fd5b506006546101c8906001600160a01b031681565b34801561026257600080fd5b5061026b610d4c565b60405161019f93929190612499565b34801561028657600080fd5b5061020b60035481565b61017b610fe1565b3480156102a457600080fd5b506102ad611112565b60405161019f9594939291906123d9565b3480156102ca57600080fd5b5061030e6102d9366004612188565b600f60205260009081526040902080546001820154600283015460038401546004850154600590950154939492939192909186565b604080519687526020870195909552938501929092526060840152608083015260a082015260c00161019f565b34801561034757600080fd5b5061020b60015481565b34801561035d57600080fd5b5061020b60045481565b34801561037357600080fd5b5061037c6111bd565b60405161019f9190612343565b34801561039557600080fd5b5061039e6115f4565b60405161019f9796959493929190612447565b3480156103bd57600080fd5b506007546103d290600160a01b900460ff1681565b604051901515815260200161019f565b3480156103ee57600080fd5b5061017b6103fd3660046121a3565b6116ec565b60075460408051808201909152601581527410d05313115497d393d517d055551213d492569151605a1b6020820152906001600160a01b031633146104635760405162461bcd60e51b815260040161045a9190612412565b60405180910390fd5b5060408051808201909152601081526f4e4f545f454e4f5547485f46554e445360801b6020820152478211156104ac5760405162461bcd60e51b815260040161045a9190612412565b50604051339082156108fc029083906000818181858888f193505050501580156104da573d6000803e3d6000fd5b50427fd66662c0ded9e58fd31d5e44944bcfd07ffc15e6927ecc1382e7941cb7bd24c48260405161050d91815260200190565b60405180910390a250565b6002805461052590612627565b80601f016020809104026020016040519081016040528092919081815260200182805461055190612627565b801561059e5780601f106105735761010080835404028352916020019161059e565b820191906000526020600020905b81548152906001019060200180831161058157829003601f168201915b505050505081565b6105d56040518060400160405280600e81526020016d5769746864726177207072697a6560901b815250611977565b426004546003546105e691906124ff565b1060405180604001604052806012815260200171544f55524e414d454e545f49535f4c49564560701b815250906106305760405162461bcd60e51b815260040161045a9190612412565b5061066f6040518060400160405280601f81526020017f544f55524e414d454e545f4841535f454e4445442048415320454e4445442000815250611977565b600654600154604051630a62bb0b60e21b815233600482015260248101919091526000916001600160a01b03169063298aec2c9060440160206040518083038186803b1580156106be57600080fd5b505afa1580156106d2573d6000803e3d6000fd5b505050506040513d601f19601f820116820180604052508101906106f691906121cd565b905061072f6040518060400160405280601681526020017518da1958dada5b99c81c1b185e595c881a9bda5b995960521b815250611977565b60408051808201909152601181527014131056515497d393d517d293d2539151607a1b6020820152816107755760405162461bcd60e51b815260040161045a9190612412565b506107a46040518060400160405280600d81526020016c141b185e595c881a9bda5b9959609a1b815250611977565b336000908152600f60209081526040918290208251808401909352600b83526a506c61796572206865726560a81b91830191909152906107e390611977565b6108176040518060400160405280600e81526020016d756e636c61696d65645072697a6560901b81525082600501546119bd565b60058101541561086f57600581015461082f81611a02565b61083847611a02565b600060058301819055604051339183156108fc02918491818181858888f1935050505015801561086c573d6000803e3d6000fd5b50505b5050565b60075460408051808201909152601581527410d05313115497d393d517d055551213d492569151605a1b6020820152906001600160a01b031633146108cb5760405162461bcd60e51b815260040161045a9190612412565b50426004546003546108dd91906124ff565b1060405180604001604052806012815260200171544f55524e414d454e545f49535f4c49564560701b815250906109275760405162461bcd60e51b815260040161045a9190612412565b506007546040805180820190915260148152731513d55493905351539517d21054d7d15391115160621b602082015290600160a01b900460ff161561097f5760405162461bcd60e51b815260040161045a9190612412565b506007805460ff60a01b1916600160a01b179055600061099d6111bd565b905060005b6109ac600d611a47565b81101561086f576040518060c001604052808260016109cb91906124ff565b81526020018383815181106109e2576109e26126be565b6020026020010151604001518152602001600f6000858581518110610a0957610a096126be565b6020026020010151600001516001600160a01b03166001600160a01b03168152602001908152602001600020600201548152602001600f6000858581518110610a5457610a546126be565b6020026020010151600001516001600160a01b03166001600160a01b03168152602001908152602001600020600301548152602001838381518110610a9b57610a9b6126be565b6020026020010151606001518152602001838381518110610abe57610abe6126be565b602002602001015160600151815250600f6000848481518110610ae357610ae36126be565b602090810291909101810151516001600160a01b03168252818101929092526040908101600020835181559183015160018301558201516002820155606082015160038201556080820151600482015560a09091015160059091015580610b4981612682565b9150506109a2565b42600454600354610b6291906124ff565b11604051806040016040528060148152602001731513d55493905351539517d21054d7d15391115160621b81525090610bae5760405162461bcd60e51b815260040161045a9190612412565b50600654600154604051630a62bb0b60e21b815233600482015260248101919091526000916001600160a01b03169063298aec2c9060440160206040518083038186803b158015610bfe57600080fd5b505afa158015610c12573d6000803e3d6000fd5b505050506040513d601f19601f82011682018060405250810190610c3691906121cd565b9050806040518060400160405280601181526020017014131056515497d393d517d293d2539151607a1b81525090610c815760405162461bcd60e51b815260040161045a9190612412565b506005543414604051806040016040528060198152602001781393d517d15393d551d217d195539114d7d41493d592511151603a1b81525090610cd75760405162461bcd60e51b815260040161045a9190612412565b50336000908152600f6020908152604091829020600201548251808401909352600d83526c1055151153541514d7d3115195609a1b9183019190915215610d315760405162461bcd60e51b815260040161045a9190612412565b5050336000908152600f602052604090206003600290910155565b610d806040518060a00160405280600015158152602001600081526020016000815260200160608152602001600081525090565b6040805160a0810190915260085460ff16801515825260009182916020820190610df057610dca600860040154600554610dba600d611a47565b610dc49190612559565b90611a57565b600554610dd7600d611a47565b610de19190612559565b610deb91906125b7565b610df4565b6009545b8152602001610f2a610e8e600660009054906101000a90046001600160a01b03166001600160a01b0316625a0e3d6040518163ffffffff1660e01b815260040160206040518083038186803b158015610e4c57600080fd5b505afa158015610e60573d6000803e3d6000fd5b505050506040513d601f19601f82011682018060405250810190610e8491906122b5565b610dc4600d611a47565b60085460ff16610f225760065460408051625a0e3d60e01b81529051600a926001600160a01b031691625a0e3d916004808301926020929190829003018186803b158015610edb57600080fd5b505afa158015610eef573d6000803e3d6000fd5b505050506040513d601f19601f82011682018060405250810190610f1391906122b5565b610f1d9190612545565b611b20565b600a54611b20565b815260200160086003018054610f3f90612627565b80601f0160208091040260200160405190810160405280929190818152602001828054610f6b90612627565b8015610fb85780601f10610f8d57610100808354040283529160200191610fb8565b820191906000526020600020905b815481529060010190602001808311610f9b57829003601f168201915b5050509183525050600c54602090910152600554610fd6600d611a47565b925092509250909192565b42600454600354610ff291906124ff565b11604051806040016040528060148152602001731513d55493905351539517d21054d7d15391115160621b8152509061103e5760405162461bcd60e51b815260040161045a9190612412565b506005543414604051806040016040528060198152602001781393d517d15393d551d217d195539114d7d41493d592511151603a1b815250906110945760405162461bcd60e51b815260040161045a9190612412565b506110a0600d33611b38565b50336000818152600f602052604090819020600360029091015560065490516315a4c08360e31b815260048101929092526001600160a01b03169063ad26041890602401600060405180830381600087803b1580156110fe57600080fd5b505af115801561086c573d6000803e3d6000fd5b60088054600954600a54600b805460ff90941694929391929161113490612627565b80601f016020809104026020016040519081016040528092919081815260200182805461116090612627565b80156111ad5780601f10611182576101008083540402835291602001916111ad565b820191906000526020600020905b81548152906001019060200180831161119057829003601f168201915b5050505050908060040154905085565b606060006111cb600d611a47565b67ffffffffffffffff8111156111e3576111e36126d4565b60405190808252806020026020018201604052801561124857816020015b611235604051806080016040528060006001600160a01b031681526020016060815260200160008152602001600081525090565b8152602001906001900390816112015790505b509050611255600d611a47565b61125e57919050565b60005b61126b600d611a47565b81101561139d57604080516080810190915280611289600d84611b4d565b6001600160a01b0390811682526006546020909201911663d84f55ee6112b0600d86611b4d565b6040516001600160e01b031960e084901b1681526001600160a01b03909116600482015260240160006040518083038186803b1580156112ef57600080fd5b505afa158015611303573d6000803e3d6000fd5b505050506040513d6000823e601f3d908101601f1916820160405261132b91908101906121ef565b8152602001600f600061133f600d86611b4d565b6001600160a01b03166001600160a01b03168152602001908152602001600020600101548152602001600081525082828151811061137f5761137f6126be565b6020026020010181905250808061139590612682565b915050611261565b506113bf81600060016113b0600d611a47565b6113ba91906125b7565b611b59565b905060006113cb610d4c565b5050905060006113e36113de600d611a47565b611cf8565b905061140a604051806040016040528060038152602001620391d160ed1b815250826119bd565b61143b6040518060400160405280600b81526020016a0283934bd32b837b7b61d160ad1b81525083602001516119bd565b61146b6040518060400160405280600a8152602001690372bb4b73732b9399d160b51b81525083604001516119bd565b61149f6040518060400160405280600581526020016403837bb9d160dd1b81525061149a838560400151611ed9565b6119bd565b60006114eb670de0b6b3a76400006114bb848660400151611ed9565b6114c591906125b7565b6114e56114da670de0b6b3a7640000866125b7565b602087015190611f23565b90611fd3565b9050611512604051806040016040528060038152602001620209d160ed1b815250826119bd565b60005b83604001518110156115c857611543604051806040016040528060018152602001603160f81b815250611977565b61157261156b84600184886040015161155c91906125b7565b61156691906125b7565b611ed9565b8390611f23565b858281518110611584576115846126be565b602002602001015160600181815250506115b6604051806040016040528060018152602001601960f91b815250611977565b806115c081612682565b915050611515565b506115eb604051806040016040528060018152602001603360f81b815250611977565b50919392505050565b60606000806000806116306040518060a00160405280600015158152602001600081526020016000815260200160608152602001600081525090565b600061163a610d4c565b600280549395509093509161164f9150612627565b80601f016020809104026020016040519081016040528092919081815260200182805461167b90612627565b80156116c85780601f1061169d576101008083540402835291602001916116c8565b820191906000526020600020905b8154815290600101906020018083116116ab57829003601f168201915b50505050509650600454955060035494506001549350600554925090919293949596565b60075460408051808201909152601581527410d05313115497d393d517d055551213d492569151605a1b6020820152906001600160a01b031633146117445760405162461bcd60e51b815260040161045a9190612412565b504260045460035461175691906124ff565b11604051806040016040528060148152602001731513d55493905351539517d21054d7d15391115160621b815250906117a25760405162461bcd60e51b815260040161045a9190612412565b50600654600154604051630a62bb0b60e21b81526000926001600160a01b03169163298aec2c916117eb9187916004016001600160a01b03929092168252602082015260400190565b60206040518083038186803b15801561180357600080fd5b505afa158015611817573d6000803e3d6000fd5b505050506040513d601f19601f8201168201806040525081019061183b91906121cd565b9050806040518060400160405280601181526020017014131056515497d393d517d293d2539151607a1b815250906118865760405162461bcd60e51b815260040161045a9190612412565b506000600f6000856001600160a01b03166001600160a01b0316815260200190815260200160002060020154116040518060400160405280601081526020016f1393d7d055151153541514d7d311519560821b815250906118fa5760405162461bcd60e51b815260040161045a9190612412565b506001600160a01b0383166000908152600f602052604081206001810184905560020180549161192983612618565b919050555042836001600160a01b03167f4713603fe21be537b9c9ca4c33240e81665fb6e4a681bdd1318c039f16b5aff68460405161196a91815260200190565b60405180910390a3505050565b6119ba8160405160240161198b9190612412565b60408051601f198184030181529190526020810180516001600160e01b031663104c13eb60e21b1790526120d7565b50565b61086f82826040516024016119d3929190612425565b60408051601f198184030181529190526020810180516001600160e01b0316632d839cb360e21b1790526120d7565b6119ba81604051602401611a1891815260200190565b60408051601f198184030181529190526020810180516001600160e01b031663f82c50f160e01b1790526120d7565b6000611a51825490565b92915050565b6000821580611a64575081155b15611a7157506000611a51565b81611a7f6002612710612545565b611a8b906000196125b7565b611a959190612545565b8311156040518060400160405280601c81526020017f4d4154485f4d554c5449504c49434154494f4e5f4f564552464c4f570000000081525090611aec5760405162461bcd60e51b815260040161045a9190612412565b50612710611afb600282612545565b611b058486612559565b611b0f91906124ff565b611b199190612545565b9392505050565b600081831115611b31575080611a51565b5090919050565b6000611b19836001600160a01b0384166120f8565b6000611b198383612147565b6060818312611b69575082611b19565b6000846002611b788686612578565b611b829190612517565b611b8c90866124be565b81518110611b9c57611b9c6126be565b602090810291909101015160400151905083835b808213611cc3575b82878381518110611bcb57611bcb6126be565b6020026020010151604001511115611bef5781611be781612662565b925050611bb8565b868181518110611c0157611c016126be565b602002602001015160400151831115611c265780611c1e816125fa565b915050611bef565b808213611cbe576000878381518110611c4157611c416126be565b60200260200101519050878281518110611c5d57611c5d6126be565b6020026020010151888481518110611c7757611c776126be565b602002602001018190525080888381518110611c9557611c956126be565b60200260200101819052508280611cab90612662565b9350508180611cb9906125fa565b925050505b611bb0565b80861215611cd857611cd6878783611b59565b505b84821215611ced57611ceb878387611b59565b505b509495945050505050565b6000600a821015611d8057600654604051633438d19960e21b8152600a60048201526001600160a01b039091169063d0e34664906024015b60206040518083038186803b158015611d4857600080fd5b505afa158015611d5c573d6000803e3d6000fd5b505050506040513d601f19601f82011682018060405250810190611a5191906122b5565b6014821015611dba57600654604051633438d19960e21b8152601460048201526001600160a01b039091169063d0e3466490602401611d30565b601e821015611df457600654604051633438d19960e21b8152601e60048201526001600160a01b039091169063d0e3466490602401611d30565b6028821015611e2e57600654604051633438d19960e21b8152602860048201526001600160a01b039091169063d0e3466490602401611d30565b6032821015611e6857600654604051633438d19960e21b8152603260048201526001600160a01b039091169063d0e3466490602401611d30565b6064821015611ea257600654604051633438d19960e21b8152606460048201526001600160a01b039091169063d0e3466490602401611d30565b600654604051633438d19960e21b81526103e860048201526001600160a01b039091169063d0e3466490602401611d30565b919050565b60008282611ef257670de0b6b3a7640000915050611a51565b60015b83811015611f1b57611f078286611f23565b915080611f1381612682565b915050611ef5565b509392505050565b6000821580611f30575081155b15611f3d57506000611a51565b81611f516002670de0b6b3a7640000612545565b611f5d906000196125b7565b611f679190612545565b8311156040518060400160405280601c81526020017f4d4154485f4d554c5449504c49434154494f4e5f4f564552464c4f570000000081525090611fbe5760405162461bcd60e51b815260040161045a9190612412565b50670de0b6b3a7640000611afb600282612545565b6040805180820190915260158152744d4154485f4449564953494f4e5f42595f5a45524f60581b6020820152600090826120205760405162461bcd60e51b815260040161045a9190612412565b50600061202e600284612545565b9050670de0b6b3a7640000612045826000196125b7565b61204f9190612545565b8411156040518060400160405280601c81526020017f4d4154485f4d554c5449504c49434154494f4e5f4f564552464c4f5700000000815250906120a65760405162461bcd60e51b815260040161045a9190612412565b5082816120bb670de0b6b3a764000087612559565b6120c591906124ff565b6120cf9190612545565b949350505050565b80516a636f6e736f6c652e6c6f67602083016000808483855afa5050505050565b600081815260018301602052604081205461213f57508154600181810184556000848152602080822090930184905584548482528286019093526040902091909155611a51565b506000611a51565b600082600001828154811061215e5761215e6126be565b9060005260206000200154905092915050565b80356001600160a01b0381168114611ed457600080fd5b60006020828403121561219a57600080fd5b611b1982612171565b600080604083850312156121b657600080fd5b6121bf83612171565b946020939093013593505050565b6000602082840312156121df57600080fd5b81518015158114611b1957600080fd5b60006020828403121561220157600080fd5b815167ffffffffffffffff8082111561221957600080fd5b818401915084601f83011261222d57600080fd5b81518181111561223f5761223f6126d4565b604051601f8201601f19908116603f01168101908382118183101715612267576122676126d4565b8160405282815287602084870101111561228057600080fd5b6122918360208301602088016125ce565b979650505050505050565b6000602082840312156122ae57600080fd5b5035919050565b6000602082840312156122c757600080fd5b5051919050565b600081518084526122e68160208601602086016125ce565b601f01601f19169290920160200192915050565b80511515825260208101516020830152604081015160408301526000606082015160a0606085015261232f60a08501826122ce565b608093840151949093019390935250919050565b60006020808301818452808551808352604092508286019150828160051b87010184880160005b838110156123cb57888303603f19018552815180516001600160a01b03168452878101516080898601819052906123a3828701826122ce565b838a0151878b015260609384015193909601929092525050938601939086019060010161236a565b509098975050505050505050565b851515815284602082015283604082015260a06060820152600061240060a08301856122ce565b90508260808301529695505050505050565b602081526000611b1960208301846122ce565b60408152600061243860408301856122ce565b90508260208301529392505050565b60e08152600061245a60e083018a6122ce565b88602084015287604084015286606084015285608084015282810360a084015261248481866122fa565b9150508260c083015298975050505050505050565b6060815260006124ac60608301866122fa565b60208301949094525060400152919050565b600080821280156001600160ff1b03849003851316156124e0576124e0612692565b600160ff1b83900384128116156124f9576124f9612692565b50500190565b6000821982111561251257612512612692565b500190565b600082612526576125266126a8565b600160ff1b82146000198414161561254057612540612692565b500590565b600082612554576125546126a8565b500490565b600081600019048311821515161561257357612573612692565b500290565b60008083128015600160ff1b85018412161561259657612596612692565b6001600160ff1b03840183138116156125b1576125b1612692565b50500390565b6000828210156125c9576125c9612692565b500390565b60005b838110156125e95781810151838201526020016125d1565b8381111561086c5750506000910152565b6000600160ff1b82141561261057612610612692565b506000190190565b60008161261057612610612692565b600181811c9082168061263b57607f821691505b6020821081141561265c57634e487b7160e01b600052602260045260246000fd5b50919050565b60006001600160ff1b0382141561267b5761267b612692565b5060010190565b600060001982141561267b5761267b5b634e487b7160e01b600052601160045260246000fd5b634e487b7160e01b600052601260045260246000fd5b634e487b7160e01b600052603260045260246000fd5b634e487b7160e01b600052604160045260246000fdfea26469706673582212208196eca73d3d87e95991f4475158f1a5e3177dc95720635d09672d9bf1b1dd8964736f6c63430008070033",
  "linkReferences": {},
  "deployedLinkReferences": {}
}