{
  "_format": "hh-sol-artifact-1",
  "contractName": "Tournament",
  "sourceName": "contracts/Tournament.sol",
  "abi": [
    {
      "inputs": [
        {
          "internalType": "uint256",
          "name": "id_",
          "type": "uint256"
        },
        {
          "internalType": "string",
          "name": "name_",
          "type": "string"
        },
        {
          "internalType": "uint256",
          "name": "startTime_",
          "type": "uint256"
        },
        {
          "internalType": "address",
          "name": "gameContractAddress_",
          "type": "address"
        },
        {
          "components": [
            {
              "internalType": "bool",
              "name": "isSponsored",
              "type": "bool"
            },
            {
              "internalType": "uint256",
              "name": "prizePool",
              "type": "uint256"
            },
            {
              "internalType": "uint256",
              "name": "nWinners",
              "type": "uint256"
            },
            {
              "internalType": "string",
              "name": "sponsorMetadata",
              "type": "string"
            },
            {
              "internalType": "uint256",
              "name": "commissionPercentage",
              "type": "uint256"
            }
          ],
          "internalType": "struct DataTypes.RewardVars",
          "name": "_rewardVars",
          "type": "tuple"
        }
      ],
      "stateMutability": "nonpayable",
      "type": "constructor"
    },
    {
      "anonymous": false,
      "inputs": [
        {
          "indexed": true,
          "internalType": "address",
          "name": "player",
          "type": "address"
        },
        {
          "indexed": true,
          "internalType": "uint256",
          "name": "timestamp",
          "type": "uint256"
        },
        {
          "indexed": false,
          "internalType": "uint256",
          "name": "score",
          "type": "uint256"
        }
      ],
      "name": "ScoreRecorded",
      "type": "event"
    },
    {
      "inputs": [],
      "name": "approvedCaller",
      "outputs": [
        {
          "internalType": "address",
          "name": "",
          "type": "address"
        }
      ],
      "stateMutability": "view",
      "type": "function"
    },
    {
      "inputs": [],
      "name": "endTournament",
      "outputs": [],
      "stateMutability": "nonpayable",
      "type": "function"
    },
    {
      "inputs": [],
      "name": "gameContractAddress",
      "outputs": [
        {
          "internalType": "address",
          "name": "",
          "type": "address"
        }
      ],
      "stateMutability": "view",
      "type": "function"
    },
    {
      "inputs": [],
      "name": "getLeaderBoard",
      "outputs": [
        {
          "components": [
            {
              "internalType": "address",
              "name": "wallet",
              "type": "address"
            },
            {
              "internalType": "string",
              "name": "username",
              "type": "string"
            },
            {
              "internalType": "uint256",
              "name": "highscore",
              "type": "uint256"
            },
            {
              "internalType": "uint256",
              "name": "prize",
              "type": "uint256"
            }
          ],
          "internalType": "struct DataTypes.LeaderBoardEntry[]",
          "name": "",
          "type": "tuple[]"
        }
      ],
      "stateMutability": "view",
      "type": "function"
    },
    {
      "inputs": [],
      "name": "getRewardInfo",
      "outputs": [
        {
          "components": [
            {
              "internalType": "bool",
              "name": "isSponsored",
              "type": "bool"
            },
            {
              "internalType": "uint256",
              "name": "prizePool",
              "type": "uint256"
            },
            {
              "internalType": "uint256",
              "name": "nWinners",
              "type": "uint256"
            },
            {
              "internalType": "string",
              "name": "sponsorMetadata",
              "type": "string"
            },
            {
              "internalType": "uint256",
              "name": "commissionPercentage",
              "type": "uint256"
            }
          ],
          "internalType": "struct DataTypes.RewardVars",
          "name": "",
          "type": "tuple"
        },
        {
          "internalType": "uint256",
          "name": "",
          "type": "uint256"
        },
        {
          "internalType": "uint256",
          "name": "",
          "type": "uint256"
        }
      ],
      "stateMutability": "view",
      "type": "function"
    },
    {
      "inputs": [],
      "name": "hasEnded",
      "outputs": [
        {
          "internalType": "bool",
          "name": "",
          "type": "bool"
        }
      ],
      "stateMutability": "view",
      "type": "function"
    },
    {
      "inputs": [],
      "name": "id",
      "outputs": [
        {
          "internalType": "uint256",
          "name": "",
          "type": "uint256"
        }
      ],
      "stateMutability": "view",
      "type": "function"
    },
    {
      "inputs": [],
      "name": "joinTournament",
      "outputs": [],
      "stateMutability": "payable",
      "type": "function"
    },
    {
      "inputs": [],
      "name": "joiningFees",
      "outputs": [
        {
          "internalType": "uint256",
          "name": "",
          "type": "uint256"
        }
      ],
      "stateMutability": "view",
      "type": "function"
    },
    {
      "inputs": [],
      "name": "name",
      "outputs": [
        {
          "internalType": "string",
          "name": "",
          "type": "string"
        }
      ],
      "stateMutability": "view",
      "type": "function"
    },
    {
      "inputs": [
        {
          "internalType": "address",
          "name": "",
          "type": "address"
        }
      ],
      "name": "playerStatsMap",
      "outputs": [
        {
          "internalType": "uint256",
          "name": "rank",
          "type": "uint256"
        },
        {
          "internalType": "uint256",
          "name": "highscore",
          "type": "uint256"
        },
        {
          "internalType": "uint256",
          "name": "attemptsLeft",
          "type": "uint256"
        },
        {
          "internalType": "uint256",
          "name": "reFills",
          "type": "uint256"
        },
        {
          "internalType": "uint256",
          "name": "allocatedPrize",
          "type": "uint256"
        },
        {
          "internalType": "uint256",
          "name": "unclaimedPrize",
          "type": "uint256"
        }
      ],
      "stateMutability": "view",
      "type": "function"
    },
    {
      "inputs": [],
      "name": "reFill",
      "outputs": [],
      "stateMutability": "payable",
      "type": "function"
    },
    {
      "inputs": [
        {
          "internalType": "address",
          "name": "_player",
          "type": "address"
        },
        {
          "internalType": "uint256",
          "name": "_score",
          "type": "uint256"
        }
      ],
      "name": "recordScore",
      "outputs": [],
      "stateMutability": "nonpayable",
      "type": "function"
    },
    {
      "inputs": [],
      "name": "rewardVars",
      "outputs": [
        {
          "internalType": "bool",
          "name": "isSponsored",
          "type": "bool"
        },
        {
          "internalType": "uint256",
          "name": "prizePool",
          "type": "uint256"
        },
        {
          "internalType": "uint256",
          "name": "nWinners",
          "type": "uint256"
        },
        {
          "internalType": "string",
          "name": "sponsorMetadata",
          "type": "string"
        },
        {
          "internalType": "uint256",
          "name": "commissionPercentage",
          "type": "uint256"
        }
      ],
      "stateMutability": "view",
      "type": "function"
    },
    {
      "inputs": [],
      "name": "startTime",
      "outputs": [
        {
          "internalType": "uint256",
          "name": "",
          "type": "uint256"
        }
      ],
      "stateMutability": "view",
      "type": "function"
    },
    {
      "inputs": [],
      "name": "timeLimit",
      "outputs": [
        {
          "internalType": "uint256",
          "name": "",
          "type": "uint256"
        }
      ],
      "stateMutability": "view",
      "type": "function"
    },
    {
      "inputs": [],
      "name": "withdrawPrize",
      "outputs": [],
      "stateMutability": "nonpayable",
      "type": "function"
    }
  ],
  "bytecode": "0x60806040523480156200001157600080fd5b50604051620025af380380620025af8339810160408190526200003491620003fe565b6001600081905585905583516200005390600290602087019062000267565b506003839055600680546001600160a01b0319166001600160a01b0384169081179091556040805163c08d1fe560e01b8152905163c08d1fe591600480820192602092909190829003018186803b158015620000ae57600080fd5b505afa158015620000c3573d6000803e3d6000fd5b505050506040513d601f19601f82011682018060405250810190620000e99190620003e4565b600490815560065460408051634959d97760e01b815290516001600160a01b0390921692634959d977928282019260209290829003018186803b1580156200013057600080fd5b505afa15801562000145573d6000803e3d6000fd5b505050506040513d601f19601f820116820180604052508101906200016b9190620003e4565b60055560065460408051631127a41d60e31b815290516001600160a01b039092169163893d20e891600480820192602092909190829003018186803b158015620001b457600080fd5b505afa158015620001c9573d6000803e3d6000fd5b505050506040513d601f19601f82011682018060405250810190620001ef9190620003bf565b600780546001600160a01b0319166001600160a01b039290921691909117905580516008805460ff19169115159190911781556020808301516009556040830151600a55606083015180518493926200024e92600b9291019062000267565b50608082015181600401559050505050505050620005ad565b82805462000275906200055a565b90600052602060002090601f016020900481019282620002995760008555620002e4565b82601f10620002b457805160ff1916838001178555620002e4565b82800160010185558215620002e4579182015b82811115620002e4578251825591602001919060010190620002c7565b50620002f2929150620002f6565b5090565b5b80821115620002f25760008155600101620002f7565b80516001600160a01b03811681146200032557600080fd5b919050565b600082601f8301126200033c57600080fd5b81516001600160401b0381111562000358576200035862000597565b60206200036e601f8301601f1916820162000527565b82815285828487010111156200038357600080fd5b60005b83811015620003a357858101830151828201840152820162000386565b83811115620003b55760008385840101525b5095945050505050565b600060208284031215620003d257600080fd5b620003dd826200030d565b9392505050565b600060208284031215620003f757600080fd5b5051919050565b600080600080600060a086880312156200041757600080fd5b855160208701519095506001600160401b03808211156200043757600080fd5b6200044589838a016200032a565b9550604088015194506200045c606089016200030d565b935060808801519150808211156200047357600080fd5b9087019060a0828a0312156200048857600080fd5b62000492620004fc565b82518015158114620004a357600080fd5b808252506020830151602082015260408301516040820152606083015182811115620004ce57600080fd5b620004dc8b8286016200032a565b606083015250608083015160808201528093505050509295509295909350565b60405160a081016001600160401b038111828210171562000521576200052162000597565b60405290565b604051601f8201601f191681016001600160401b038111828210171562000552576200055262000597565b604052919050565b600181811c908216806200056f57607f821691505b602082108114156200059157634e487b7160e01b600052602260045260246000fd5b50919050565b634e487b7160e01b600052604160045260246000fd5b611ff280620005bd6000396000f3fe6080604052600436106100fe5760003560e01c806378e9792511610095578063af640d0f11610064578063af640d0f146102c3578063c08d1fe5146102d9578063c29d72bc146102ef578063ecb70fb714610311578063fbd534821461034257600080fd5b806378e97925146102025780637ce1186114610218578063858dbf7d14610220578063ab632d4a1461024657600080fd5b80634d633a8f116100d15780634d633a8f146101a157806350ed9193146101b657806363df0ef7146101be578063699c8f33146101de57600080fd5b806306fdde031461010357806345446d711461012e57806348d37a58146101665780634959d9771461017d575b600080fd5b34801561010f57600080fd5b50610118610362565b6040516101259190611d21565b60405180910390f35b34801561013a57600080fd5b5060075461014e906001600160a01b031681565b6040516001600160a01b039091168152602001610125565b34801561017257600080fd5b5061017b6103f0565b005b34801561018957600080fd5b5061019360055481565b604051908152602001610125565b3480156101ad57600080fd5b5061017b610577565b61017b6107fd565b3480156101ca57600080fd5b5060065461014e906001600160a01b031681565b3480156101ea57600080fd5b506101f36109f8565b60405161012593929190611d34565b34801561020e57600080fd5b5061019360035481565b61017b610c8d565b34801561022c57600080fd5b50610235610dc4565b604051610125959493929190611ce8565b34801561025257600080fd5b50610296610261366004611af9565b600f60205260009081526040902080546001820154600283015460038401546004850154600590950154939492939192909186565b604080519687526020870195909552938501929092526060840152608083015260a082015260c001610125565b3480156102cf57600080fd5b5061019360015481565b3480156102e557600080fd5b5061019360045481565b3480156102fb57600080fd5b50610304610e6f565b6040516101259190611c52565b34801561031d57600080fd5b5060075461033290600160a01b900460ff1681565b6040519015158152602001610125565b34801561034e57600080fd5b5061017b61035d366004611b14565b611165565b6002805461036f90611ef9565b80601f016020809104026020016040519081016040528092919081815260200182805461039b90611ef9565b80156103e85780601f106103bd576101008083540402835291602001916103e8565b820191906000526020600020905b8154815290600101906020018083116103cb57829003601f168201915b505050505081565b426004546003546104019190611dd1565b1060405180604001604052806012815260200171544f55524e414d454e545f49535f4c49564560701b815250906104545760405162461bcd60e51b815260040161044b9190611d21565b60405180910390fd5b50600654600154604051630a62bb0b60e21b815233600482015260248101919091526000916001600160a01b03169063298aec2c9060440160206040518083038186803b1580156104a457600080fd5b505afa1580156104b8573d6000803e3d6000fd5b505050506040513d601f19601f820116820180604052508101906104dc9190611b3e565b9050806040518060400160405280601181526020017014131056515497d393d517d293d2539151607a1b815250906105275760405162461bcd60e51b815260040161044b9190611d21565b50336000908152600f602052604090206005810154156105735760006005820181905560405133916108fc9181818181818888f19350505050158015610571573d6000803e3d6000fd5b505b5050565b60075460408051808201909152601581527410d05313115497d393d517d055551213d492569151605a1b6020820152906001600160a01b031633146105cf5760405162461bcd60e51b815260040161044b9190611d21565b50426004546003546105e19190611dd1565b1060405180604001604052806012815260200171544f55524e414d454e545f49535f4c49564560701b8152509061062b5760405162461bcd60e51b815260040161044b9190611d21565b506007805460ff60a01b1916600160a01b1790556000610649610e6f565b905060005b610658600d6113f0565b811015610573576040518060c001604052808260016106779190611dd1565b815260200183838151811061068e5761068e611f90565b6020026020010151604001518152602001600f60008585815181106106b5576106b5611f90565b6020026020010151600001516001600160a01b03166001600160a01b03168152602001908152602001600020600201548152602001600f600085858151811061070057610700611f90565b6020026020010151600001516001600160a01b03166001600160a01b0316815260200190815260200160002060030154815260200183838151811061074757610747611f90565b602002602001015160600151815260200183838151811061076a5761076a611f90565b602002602001015160600151815250600f600084848151811061078f5761078f611f90565b602090810291909101810151516001600160a01b03168252818101929092526040908101600020835181559183015160018301558201516002820155606082015160038201556080820151600482015560a090910151600590910155806107f581611f54565b91505061064e565b4260045460035461080e9190611dd1565b11604051806040016040528060148152602001731513d55493905351539517d21054d7d15391115160621b8152509061085a5760405162461bcd60e51b815260040161044b9190611d21565b50600654600154604051630a62bb0b60e21b815233600482015260248101919091526000916001600160a01b03169063298aec2c9060440160206040518083038186803b1580156108aa57600080fd5b505afa1580156108be573d6000803e3d6000fd5b505050506040513d601f19601f820116820180604052508101906108e29190611b3e565b9050806040518060400160405280601181526020017014131056515497d393d517d293d2539151607a1b8152509061092d5760405162461bcd60e51b815260040161044b9190611d21565b506005543414604051806040016040528060198152602001781393d517d15393d551d217d195539114d7d41493d592511151603a1b815250906109835760405162461bcd60e51b815260040161044b9190611d21565b50336000908152600f6020908152604091829020600201548251808401909352600d83526c1055151153541514d7d3115195609a1b91830191909152156109dd5760405162461bcd60e51b815260040161044b9190611d21565b5050336000908152600f602052604090206003600290910155565b610a2c6040518060a00160405280600015158152602001600081526020016000815260200160608152602001600081525090565b6040805160a0810190915260085460ff16801515825260009182916020820190610a9c57610a76600860040154600554610a66600d6113f0565b610a709190611e2b565b90611400565b600554610a83600d6113f0565b610a8d9190611e2b565b610a979190611e89565b610aa0565b6009545b8152602001610bd6610b3a600660009054906101000a90046001600160a01b03166001600160a01b0316625a0e3d6040518163ffffffff1660e01b815260040160206040518083038186803b158015610af857600080fd5b505afa158015610b0c573d6000803e3d6000fd5b505050506040513d601f19601f82011682018060405250810190610b309190611c0d565b610a70600d6113f0565b60085460ff16610bce5760065460408051625a0e3d60e01b81529051600a926001600160a01b031691625a0e3d916004808301926020929190829003018186803b158015610b8757600080fd5b505afa158015610b9b573d6000803e3d6000fd5b505050506040513d601f19601f82011682018060405250810190610bbf9190611c0d565b610bc99190611e17565b6114c9565b600a546114c9565b815260200160086003018054610beb90611ef9565b80601f0160208091040260200160405190810160405280929190818152602001828054610c1790611ef9565b8015610c645780601f10610c3957610100808354040283529160200191610c64565b820191906000526020600020905b815481529060010190602001808311610c4757829003601f168201915b5050509183525050600c54602090910152600554610c82600d6113f0565b925092509250909192565b42600454600354610c9e9190611dd1565b11604051806040016040528060148152602001731513d55493905351539517d21054d7d15391115160621b81525090610cea5760405162461bcd60e51b815260040161044b9190611d21565b506005543414604051806040016040528060198152602001781393d517d15393d551d217d195539114d7d41493d592511151603a1b81525090610d405760405162461bcd60e51b815260040161044b9190611d21565b50610d4c600d336114e1565b50336000818152600f602052604090819020600360029091015560065490516315a4c08360e31b815260048101929092526001600160a01b03169063ad26041890602401600060405180830381600087803b158015610daa57600080fd5b505af1158015610dbe573d6000803e3d6000fd5b50505050565b60088054600954600a54600b805460ff909416949293919291610de690611ef9565b80601f0160208091040260200160405190810160405280929190818152602001828054610e1290611ef9565b8015610e5f5780601f10610e3457610100808354040283529160200191610e5f565b820191906000526020600020905b815481529060010190602001808311610e4257829003601f168201915b5050505050908060040154905085565b60606000610e7d600d6113f0565b67ffffffffffffffff811115610e9557610e95611fa6565b604051908082528060200260200182016040528015610efa57816020015b610ee7604051806080016040528060006001600160a01b031681526020016060815260200160008152602001600081525090565b815260200190600190039081610eb35790505b509050610f07600d6113f0565b610f1057919050565b60005b610f1d600d6113f0565b81101561104f57604080516080810190915280610f3b600d846114f6565b6001600160a01b0390811682526006546020909201911663d84f55ee610f62600d866114f6565b6040516001600160e01b031960e084901b1681526001600160a01b03909116600482015260240160006040518083038186803b158015610fa157600080fd5b505afa158015610fb5573d6000803e3d6000fd5b505050506040513d6000823e601f3d908101601f19168201604052610fdd9190810190611b60565b8152602001600f6000610ff1600d866114f6565b6001600160a01b03166001600160a01b03168152602001908152602001600020600101548152602001600081525082828151811061103157611031611f90565b6020026020010181905250808061104790611f54565b915050610f13565b506110718160006001611062600d6113f0565b61106c9190611e89565b611502565b9050600061107d6109f8565b505090506000611095611090600d6113f0565b6116a1565b905060006110e3670de0b6b3a76400006110b3848660400151611882565b6110bd9190611e89565b6110dd6110d2670de0b6b3a764000086611e89565b6020870151906118b5565b90611965565b905060005b6110f2600d6113f0565b81101561115b576111286111218460018488604001516111129190611e89565b61111c9190611e89565b611882565b83906118b5565b85828151811061113a5761113a611f90565b6020908102919091010151606001528061115381611f54565b9150506110e8565b5092949350505050565b60075460408051808201909152601581527410d05313115497d393d517d055551213d492569151605a1b6020820152906001600160a01b031633146111bd5760405162461bcd60e51b815260040161044b9190611d21565b50426004546003546111cf9190611dd1565b11604051806040016040528060148152602001731513d55493905351539517d21054d7d15391115160621b8152509061121b5760405162461bcd60e51b815260040161044b9190611d21565b50600654600154604051630a62bb0b60e21b81526000926001600160a01b03169163298aec2c916112649187916004016001600160a01b03929092168252602082015260400190565b60206040518083038186803b15801561127c57600080fd5b505afa158015611290573d6000803e3d6000fd5b505050506040513d601f19601f820116820180604052508101906112b49190611b3e565b9050806040518060400160405280601181526020017014131056515497d393d517d293d2539151607a1b815250906112ff5760405162461bcd60e51b815260040161044b9190611d21565b506000600f6000856001600160a01b03166001600160a01b0316815260200190815260200160002060020154116040518060400160405280601081526020016f1393d7d055151153541514d7d311519560821b815250906113735760405162461bcd60e51b815260040161044b9190611d21565b506001600160a01b0383166000908152600f60205260408120600181018490556002018054916113a283611eea565b919050555042836001600160a01b03167f4713603fe21be537b9c9ca4c33240e81665fb6e4a681bdd1318c039f16b5aff6846040516113e391815260200190565b60405180910390a3505050565b60006113fa825490565b92915050565b600082158061140d575081155b1561141a575060006113fa565b816114286002612710611e17565b61143490600019611e89565b61143e9190611e17565b8311156040518060400160405280601c81526020017f4d4154485f4d554c5449504c49434154494f4e5f4f564552464c4f5700000000815250906114955760405162461bcd60e51b815260040161044b9190611d21565b506127106114a4600282611e17565b6114ae8486611e2b565b6114b89190611dd1565b6114c29190611e17565b9392505050565b6000818311156114da5750806113fa565b5090919050565b60006114c2836001600160a01b038416611a69565b60006114c28383611ab8565b60608183126115125750826114c2565b60008460026115218686611e4a565b61152b9190611de9565b6115359086611d90565b8151811061154557611545611f90565b602090810291909101015160400151905083835b80821361166c575b8287838151811061157457611574611f90565b6020026020010151604001511115611598578161159081611f34565b925050611561565b8681815181106115aa576115aa611f90565b6020026020010151604001518311156115cf57806115c781611ecc565b915050611598565b8082136116675760008783815181106115ea576115ea611f90565b6020026020010151905087828151811061160657611606611f90565b602002602001015188848151811061162057611620611f90565b60200260200101819052508088838151811061163e5761163e611f90565b6020026020010181905250828061165490611f34565b935050818061166290611ecc565b925050505b611559565b808612156116815761167f878783611502565b505b8482121561169657611694878387611502565b505b509495945050505050565b6000600a82101561172957600654604051633438d19960e21b8152600a60048201526001600160a01b039091169063d0e34664906024015b60206040518083038186803b1580156116f157600080fd5b505afa158015611705573d6000803e3d6000fd5b505050506040513d601f19601f820116820180604052508101906113fa9190611c0d565b601482101561176357600654604051633438d19960e21b8152601460048201526001600160a01b039091169063d0e34664906024016116d9565b601e82101561179d57600654604051633438d19960e21b8152601e60048201526001600160a01b039091169063d0e34664906024016116d9565b60288210156117d757600654604051633438d19960e21b8152602860048201526001600160a01b039091169063d0e34664906024016116d9565b603282101561181157600654604051633438d19960e21b8152603260048201526001600160a01b039091169063d0e34664906024016116d9565b606482101561184b57600654604051633438d19960e21b8152606460048201526001600160a01b039091169063d0e34664906024016116d9565b600654604051633438d19960e21b81526103e860048201526001600160a01b039091169063d0e34664906024016116d9565b919050565b600082815b838110156118ad5761189982866118b5565b9150806118a581611f54565b915050611887565b509392505050565b60008215806118c2575081155b156118cf575060006113fa565b816118e36002670de0b6b3a7640000611e17565b6118ef90600019611e89565b6118f99190611e17565b8311156040518060400160405280601c81526020017f4d4154485f4d554c5449504c49434154494f4e5f4f564552464c4f5700000000815250906119505760405162461bcd60e51b815260040161044b9190611d21565b50670de0b6b3a76400006114a4600282611e17565b6040805180820190915260158152744d4154485f4449564953494f4e5f42595f5a45524f60581b6020820152600090826119b25760405162461bcd60e51b815260040161044b9190611d21565b5060006119c0600284611e17565b9050670de0b6b3a76400006119d782600019611e89565b6119e19190611e17565b8411156040518060400160405280601c81526020017f4d4154485f4d554c5449504c49434154494f4e5f4f564552464c4f570000000081525090611a385760405162461bcd60e51b815260040161044b9190611d21565b508281611a4d670de0b6b3a764000087611e2b565b611a579190611dd1565b611a619190611e17565b949350505050565b6000818152600183016020526040812054611ab0575081546001818101845560008481526020808220909301849055845484825282860190935260409020919091556113fa565b5060006113fa565b6000826000018281548110611acf57611acf611f90565b9060005260206000200154905092915050565b80356001600160a01b038116811461187d57600080fd5b600060208284031215611b0b57600080fd5b6114c282611ae2565b60008060408385031215611b2757600080fd5b611b3083611ae2565b946020939093013593505050565b600060208284031215611b5057600080fd5b815180151581146114c257600080fd5b600060208284031215611b7257600080fd5b815167ffffffffffffffff80821115611b8a57600080fd5b818401915084601f830112611b9e57600080fd5b815181811115611bb057611bb0611fa6565b604051601f8201601f19908116603f01168101908382118183101715611bd857611bd8611fa6565b81604052828152876020848701011115611bf157600080fd5b611c02836020830160208801611ea0565b979650505050505050565b600060208284031215611c1f57600080fd5b5051919050565b60008151808452611c3e816020860160208601611ea0565b601f01601f19169290920160200192915050565b60006020808301818452808551808352604092508286019150828160051b87010184880160005b83811015611cda57888303603f19018552815180516001600160a01b0316845287810151608089860181905290611cb282870182611c26565b838a0151878b0152606093840151939096019290925250509386019390860190600101611c79565b509098975050505050505050565b851515815284602082015283604082015260a060608201526000611d0f60a0830185611c26565b90508260808301529695505050505050565b6020815260006114c26020830184611c26565b6060815283511515606082015260208401516080820152604084015160a08201526000606085015160a060c0840152611d71610100840182611c26565b6080969096015160e08401525050602081019290925260409091015290565b600080821280156001600160ff1b0384900385131615611db257611db2611f64565b600160ff1b8390038412811615611dcb57611dcb611f64565b50500190565b60008219821115611de457611de4611f64565b500190565b600082611df857611df8611f7a565b600160ff1b821460001984141615611e1257611e12611f64565b500590565b600082611e2657611e26611f7a565b500490565b6000816000190483118215151615611e4557611e45611f64565b500290565b60008083128015600160ff1b850184121615611e6857611e68611f64565b6001600160ff1b0384018313811615611e8357611e83611f64565b50500390565b600082821015611e9b57611e9b611f64565b500390565b60005b83811015611ebb578181015183820152602001611ea3565b83811115610dbe5750506000910152565b6000600160ff1b821415611ee257611ee2611f64565b506000190190565b600081611ee257611ee2611f64565b600181811c90821680611f0d57607f821691505b60208210811415611f2e57634e487b7160e01b600052602260045260246000fd5b50919050565b60006001600160ff1b03821415611f4d57611f4d611f64565b5060010190565b6000600019821415611f4d57611f4d5b634e487b7160e01b600052601160045260246000fd5b634e487b7160e01b600052601260045260246000fd5b634e487b7160e01b600052603260045260246000fd5b634e487b7160e01b600052604160045260246000fdfea2646970667358221220d9a599a5ac73d04adeb214f3e81efe4595a791a6b6868cecaee9aca4f22b909f64736f6c63430008070033",
  "linkReferences": {},
  "deployedLinkReferences": {}
}