{
  "_format": "hh-sol-artifact-1",
  "contractName": "Tournament",
  "sourceName": "contracts/Tournament.sol",
  "abi": [
    {
      "inputs": [
        {
          "internalType": "uint256",
          "name": "id_",
          "type": "uint256"
        },
        {
          "internalType": "string",
          "name": "name_",
          "type": "string"
        },
        {
          "internalType": "uint256",
          "name": "startTime_",
          "type": "uint256"
        },
        {
          "internalType": "address",
          "name": "gameContractAddress_",
          "type": "address"
        },
        {
          "components": [
            {
              "internalType": "bool",
              "name": "isSponsored",
              "type": "bool"
            },
            {
              "internalType": "uint256",
              "name": "prizePool",
              "type": "uint256"
            },
            {
              "internalType": "uint256",
              "name": "nWinners",
              "type": "uint256"
            },
            {
              "internalType": "string",
              "name": "sponsorMetadata",
              "type": "string"
            },
            {
              "internalType": "uint256",
              "name": "commissionPercentage",
              "type": "uint256"
            }
          ],
          "internalType": "struct DataTypes.RewardVars",
          "name": "_rewardVars",
          "type": "tuple"
        }
      ],
      "stateMutability": "nonpayable",
      "type": "constructor"
    },
    {
      "anonymous": false,
      "inputs": [
        {
          "indexed": true,
          "internalType": "address",
          "name": "player",
          "type": "address"
        },
        {
          "indexed": true,
          "internalType": "uint256",
          "name": "timestamp",
          "type": "uint256"
        },
        {
          "indexed": false,
          "internalType": "uint256",
          "name": "score",
          "type": "uint256"
        }
      ],
      "name": "ScoreRecorded",
      "type": "event"
    },
    {
      "inputs": [],
      "name": "approvedCaller",
      "outputs": [
        {
          "internalType": "address",
          "name": "",
          "type": "address"
        }
      ],
      "stateMutability": "view",
      "type": "function"
    },
    {
      "inputs": [],
      "name": "endTournament",
      "outputs": [],
      "stateMutability": "nonpayable",
      "type": "function"
    },
    {
      "inputs": [],
      "name": "gameContractAddress",
      "outputs": [
        {
          "internalType": "address",
          "name": "",
          "type": "address"
        }
      ],
      "stateMutability": "view",
      "type": "function"
    },
    {
      "inputs": [],
      "name": "getLeaderBoard",
      "outputs": [
        {
          "components": [
            {
              "internalType": "address",
              "name": "wallet",
              "type": "address"
            },
            {
              "internalType": "string",
              "name": "username",
              "type": "string"
            },
            {
              "internalType": "uint256",
              "name": "highscore",
              "type": "uint256"
            },
            {
              "internalType": "uint256",
              "name": "prize",
              "type": "uint256"
            }
          ],
          "internalType": "struct DataTypes.LeaderBoardEntry[]",
          "name": "",
          "type": "tuple[]"
        }
      ],
      "stateMutability": "view",
      "type": "function"
    },
    {
      "inputs": [],
      "name": "getRewardInfo",
      "outputs": [
        {
          "components": [
            {
              "internalType": "bool",
              "name": "isSponsored",
              "type": "bool"
            },
            {
              "internalType": "uint256",
              "name": "prizePool",
              "type": "uint256"
            },
            {
              "internalType": "uint256",
              "name": "nWinners",
              "type": "uint256"
            },
            {
              "internalType": "string",
              "name": "sponsorMetadata",
              "type": "string"
            },
            {
              "internalType": "uint256",
              "name": "commissionPercentage",
              "type": "uint256"
            }
          ],
          "internalType": "struct DataTypes.RewardVars",
          "name": "",
          "type": "tuple"
        },
        {
          "internalType": "uint256",
          "name": "",
          "type": "uint256"
        },
        {
          "internalType": "uint256",
          "name": "",
          "type": "uint256"
        }
      ],
      "stateMutability": "view",
      "type": "function"
    },
    {
      "inputs": [],
      "name": "hasEnded",
      "outputs": [
        {
          "internalType": "bool",
          "name": "",
          "type": "bool"
        }
      ],
      "stateMutability": "view",
      "type": "function"
    },
    {
      "inputs": [],
      "name": "id",
      "outputs": [
        {
          "internalType": "uint256",
          "name": "",
          "type": "uint256"
        }
      ],
      "stateMutability": "view",
      "type": "function"
    },
    {
      "inputs": [],
      "name": "joinTournament",
      "outputs": [],
      "stateMutability": "payable",
      "type": "function"
    },
    {
      "inputs": [],
      "name": "joiningFees",
      "outputs": [
        {
          "internalType": "uint256",
          "name": "",
          "type": "uint256"
        }
      ],
      "stateMutability": "view",
      "type": "function"
    },
    {
      "inputs": [],
      "name": "name",
      "outputs": [
        {
          "internalType": "string",
          "name": "",
          "type": "string"
        }
      ],
      "stateMutability": "view",
      "type": "function"
    },
    {
      "inputs": [
        {
          "internalType": "address",
          "name": "",
          "type": "address"
        }
      ],
      "name": "playerStatsMap",
      "outputs": [
        {
          "internalType": "uint256",
          "name": "rank",
          "type": "uint256"
        },
        {
          "internalType": "uint256",
          "name": "highscore",
          "type": "uint256"
        },
        {
          "internalType": "uint256",
          "name": "attemptsLeft",
          "type": "uint256"
        },
        {
          "internalType": "uint256",
          "name": "reFills",
          "type": "uint256"
        },
        {
          "internalType": "uint256",
          "name": "allocatedPrize",
          "type": "uint256"
        },
        {
          "internalType": "uint256",
          "name": "unclaimedPrize",
          "type": "uint256"
        }
      ],
      "stateMutability": "view",
      "type": "function"
    },
    {
      "inputs": [],
      "name": "reFill",
      "outputs": [],
      "stateMutability": "payable",
      "type": "function"
    },
    {
      "inputs": [
        {
          "internalType": "address",
          "name": "_player",
          "type": "address"
        },
        {
          "internalType": "uint256",
          "name": "_score",
          "type": "uint256"
        }
      ],
      "name": "recordScore",
      "outputs": [],
      "stateMutability": "nonpayable",
      "type": "function"
    },
    {
      "inputs": [],
      "name": "rewardVars",
      "outputs": [
        {
          "internalType": "bool",
          "name": "isSponsored",
          "type": "bool"
        },
        {
          "internalType": "uint256",
          "name": "prizePool",
          "type": "uint256"
        },
        {
          "internalType": "uint256",
          "name": "nWinners",
          "type": "uint256"
        },
        {
          "internalType": "string",
          "name": "sponsorMetadata",
          "type": "string"
        },
        {
          "internalType": "uint256",
          "name": "commissionPercentage",
          "type": "uint256"
        }
      ],
      "stateMutability": "view",
      "type": "function"
    },
    {
      "inputs": [],
      "name": "startTime",
      "outputs": [
        {
          "internalType": "uint256",
          "name": "",
          "type": "uint256"
        }
      ],
      "stateMutability": "view",
      "type": "function"
    },
    {
      "inputs": [],
      "name": "timeLimit",
      "outputs": [
        {
          "internalType": "uint256",
          "name": "",
          "type": "uint256"
        }
      ],
      "stateMutability": "view",
      "type": "function"
    },
    {
      "inputs": [],
      "name": "withdrawPrize",
      "outputs": [],
      "stateMutability": "nonpayable",
      "type": "function"
    }
  ],
  "bytecode": "0x60806040523480156200001157600080fd5b5060405162002963380380620029638339810160408190526200003491620003fe565b6001600081905585905583516200005390600290602087019062000267565b506003839055600680546001600160a01b0319166001600160a01b0384169081179091556040805163c08d1fe560e01b8152905163c08d1fe591600480820192602092909190829003018186803b158015620000ae57600080fd5b505afa158015620000c3573d6000803e3d6000fd5b505050506040513d601f19601f82011682018060405250810190620000e99190620003e4565b600490815560065460408051634959d97760e01b815290516001600160a01b0390921692634959d977928282019260209290829003018186803b1580156200013057600080fd5b505afa15801562000145573d6000803e3d6000fd5b505050506040513d601f19601f820116820180604052508101906200016b9190620003e4565b60055560065460408051631127a41d60e31b815290516001600160a01b039092169163893d20e891600480820192602092909190829003018186803b158015620001b457600080fd5b505afa158015620001c9573d6000803e3d6000fd5b505050506040513d601f19601f82011682018060405250810190620001ef9190620003bf565b600780546001600160a01b0319166001600160a01b039290921691909117905580516008805460ff19169115159190911781556020808301516009556040830151600a55606083015180518493926200024e92600b9291019062000267565b50608082015181600401559050505050505050620005ad565b82805462000275906200055a565b90600052602060002090601f016020900481019282620002995760008555620002e4565b82601f10620002b457805160ff1916838001178555620002e4565b82800160010185558215620002e4579182015b82811115620002e4578251825591602001919060010190620002c7565b50620002f2929150620002f6565b5090565b5b80821115620002f25760008155600101620002f7565b80516001600160a01b03811681146200032557600080fd5b919050565b600082601f8301126200033c57600080fd5b81516001600160401b0381111562000358576200035862000597565b60206200036e601f8301601f1916820162000527565b82815285828487010111156200038357600080fd5b60005b83811015620003a357858101830151828201840152820162000386565b83811115620003b55760008385840101525b5095945050505050565b600060208284031215620003d257600080fd5b620003dd826200030d565b9392505050565b600060208284031215620003f757600080fd5b5051919050565b600080600080600060a086880312156200041757600080fd5b855160208701519095506001600160401b03808211156200043757600080fd5b6200044589838a016200032a565b9550604088015194506200045c606089016200030d565b935060808801519150808211156200047357600080fd5b9087019060a0828a0312156200048857600080fd5b62000492620004fc565b82518015158114620004a357600080fd5b808252506020830151602082015260408301516040820152606083015182811115620004ce57600080fd5b620004dc8b8286016200032a565b606083015250608083015160808201528093505050509295509295909350565b60405160a081016001600160401b038111828210171562000521576200052162000597565b60405290565b604051601f8201601f191681016001600160401b038111828210171562000552576200055262000597565b604052919050565b600181811c908216806200056f57607f821691505b602082108114156200059157634e487b7160e01b600052602260045260246000fd5b50919050565b634e487b7160e01b600052604160045260246000fd5b6123a680620005bd6000396000f3fe6080604052600436106100fe5760003560e01c806378e9792511610095578063af640d0f11610064578063af640d0f146102c3578063c08d1fe5146102d9578063c29d72bc146102ef578063ecb70fb714610311578063fbd534821461034257600080fd5b806378e97925146102025780637ce1186114610218578063858dbf7d14610220578063ab632d4a1461024657600080fd5b80634d633a8f116100d15780634d633a8f146101a157806350ed9193146101b657806363df0ef7146101be578063699c8f33146101de57600080fd5b806306fdde031461010357806345446d711461012e57806348d37a58146101665780634959d9771461017d575b600080fd5b34801561010f57600080fd5b50610118610362565b60405161012591906120b3565b60405180910390f35b34801561013a57600080fd5b5060075461014e906001600160a01b031681565b6040516001600160a01b039091168152602001610125565b34801561017257600080fd5b5061017b6103f0565b005b34801561018957600080fd5b5061019360055481565b604051908152602001610125565b3480156101ad57600080fd5b5061017b6106c6565b61017b61094c565b3480156101ca57600080fd5b5060065461014e906001600160a01b031681565b3480156101ea57600080fd5b506101f3610b47565b604051610125939291906120e8565b34801561020e57600080fd5b5061019360035481565b61017b610ddc565b34801561022c57600080fd5b50610235610f0d565b60405161012595949392919061207a565b34801561025257600080fd5b50610296610261366004611e8b565b600f60205260009081526040902080546001820154600283015460038401546004850154600590950154939492939192909186565b604080519687526020870195909552938501929092526060840152608083015260a082015260c001610125565b3480156102cf57600080fd5b5061019360015481565b3480156102e557600080fd5b5061019360045481565b3480156102fb57600080fd5b50610304610fb8565b6040516101259190611fe4565b34801561031d57600080fd5b5060075461033290600160a01b900460ff1681565b6040519015158152602001610125565b34801561034e57600080fd5b5061017b61035d366004611ea6565b6113ef565b6002805461036f906122ad565b80601f016020809104026020016040519081016040528092919081815260200182805461039b906122ad565b80156103e85780601f106103bd576101008083540402835291602001916103e8565b820191906000526020600020905b8154815290600101906020018083116103cb57829003601f168201915b505050505081565b61041f6040518060400160405280600e81526020016d5769746864726177207072697a6560901b81525061167a565b426004546003546104309190612185565b1060405180604001604052806012815260200171544f55524e414d454e545f49535f4c49564560701b815250906104835760405162461bcd60e51b815260040161047a91906120b3565b60405180910390fd5b506104c26040518060400160405280601f81526020017f544f55524e414d454e545f4841535f454e4445442048415320454e444544200081525061167a565b600654600154604051630a62bb0b60e21b815233600482015260248101919091526000916001600160a01b03169063298aec2c9060440160206040518083038186803b15801561051157600080fd5b505afa158015610525573d6000803e3d6000fd5b505050506040513d601f19601f820116820180604052508101906105499190611ed0565b90506105826040518060400160405280601681526020017518da1958dada5b99c81c1b185e595c881a9bda5b995960521b81525061167a565b60408051808201909152601181527014131056515497d393d517d293d2539151607a1b6020820152816105c85760405162461bcd60e51b815260040161047a91906120b3565b506105f76040518060400160405280600d81526020016c141b185e595c881a9bda5b9959609a1b81525061167a565b336000908152600f60209081526040918290208251808401909352600b83526a506c61796572206865726560a81b91830191909152906106369061167a565b61066a6040518060400160405280600e81526020016d756e636c61696d65645072697a6560901b81525082600501546116c0565b6005810154156106c257600581015461068281611705565b61068b47611705565b600060058301819055604051339183156108fc02918491818181858888f193505050501580156106bf573d6000803e3d6000fd5b50505b5050565b60075460408051808201909152601581527410d05313115497d393d517d055551213d492569151605a1b6020820152906001600160a01b0316331461071e5760405162461bcd60e51b815260040161047a91906120b3565b50426004546003546107309190612185565b1060405180604001604052806012815260200171544f55524e414d454e545f49535f4c49564560701b8152509061077a5760405162461bcd60e51b815260040161047a91906120b3565b506007805460ff60a01b1916600160a01b1790556000610798610fb8565b905060005b6107a7600d61174a565b8110156106c2576040518060c001604052808260016107c69190612185565b81526020018383815181106107dd576107dd612344565b6020026020010151604001518152602001600f600085858151811061080457610804612344565b6020026020010151600001516001600160a01b03166001600160a01b03168152602001908152602001600020600201548152602001600f600085858151811061084f5761084f612344565b6020026020010151600001516001600160a01b03166001600160a01b0316815260200190815260200160002060030154815260200183838151811061089657610896612344565b60200260200101516060015181526020018383815181106108b9576108b9612344565b602002602001015160600151815250600f60008484815181106108de576108de612344565b602090810291909101810151516001600160a01b03168252818101929092526040908101600020835181559183015160018301558201516002820155606082015160038201556080820151600482015560a0909101516005909101558061094481612308565b91505061079d565b4260045460035461095d9190612185565b11604051806040016040528060148152602001731513d55493905351539517d21054d7d15391115160621b815250906109a95760405162461bcd60e51b815260040161047a91906120b3565b50600654600154604051630a62bb0b60e21b815233600482015260248101919091526000916001600160a01b03169063298aec2c9060440160206040518083038186803b1580156109f957600080fd5b505afa158015610a0d573d6000803e3d6000fd5b505050506040513d601f19601f82011682018060405250810190610a319190611ed0565b9050806040518060400160405280601181526020017014131056515497d393d517d293d2539151607a1b81525090610a7c5760405162461bcd60e51b815260040161047a91906120b3565b506005543414604051806040016040528060198152602001781393d517d15393d551d217d195539114d7d41493d592511151603a1b81525090610ad25760405162461bcd60e51b815260040161047a91906120b3565b50336000908152600f6020908152604091829020600201548251808401909352600d83526c1055151153541514d7d3115195609a1b9183019190915215610b2c5760405162461bcd60e51b815260040161047a91906120b3565b5050336000908152600f602052604090206003600290910155565b610b7b6040518060a00160405280600015158152602001600081526020016000815260200160608152602001600081525090565b6040805160a0810190915260085460ff16801515825260009182916020820190610beb57610bc5600860040154600554610bb5600d61174a565b610bbf91906121df565b9061175a565b600554610bd2600d61174a565b610bdc91906121df565b610be6919061223d565b610bef565b6009545b8152602001610d25610c89600660009054906101000a90046001600160a01b03166001600160a01b0316625a0e3d6040518163ffffffff1660e01b815260040160206040518083038186803b158015610c4757600080fd5b505afa158015610c5b573d6000803e3d6000fd5b505050506040513d601f19601f82011682018060405250810190610c7f9190611f9f565b610bbf600d61174a565b60085460ff16610d1d5760065460408051625a0e3d60e01b81529051600a926001600160a01b031691625a0e3d916004808301926020929190829003018186803b158015610cd657600080fd5b505afa158015610cea573d6000803e3d6000fd5b505050506040513d601f19601f82011682018060405250810190610d0e9190611f9f565b610d1891906121cb565b611823565b600a54611823565b815260200160086003018054610d3a906122ad565b80601f0160208091040260200160405190810160405280929190818152602001828054610d66906122ad565b8015610db35780601f10610d8857610100808354040283529160200191610db3565b820191906000526020600020905b815481529060010190602001808311610d9657829003601f168201915b5050509183525050600c54602090910152600554610dd1600d61174a565b925092509250909192565b42600454600354610ded9190612185565b11604051806040016040528060148152602001731513d55493905351539517d21054d7d15391115160621b81525090610e395760405162461bcd60e51b815260040161047a91906120b3565b506005543414604051806040016040528060198152602001781393d517d15393d551d217d195539114d7d41493d592511151603a1b81525090610e8f5760405162461bcd60e51b815260040161047a91906120b3565b50610e9b600d3361183b565b50336000818152600f602052604090819020600360029091015560065490516315a4c08360e31b815260048101929092526001600160a01b03169063ad26041890602401600060405180830381600087803b158015610ef957600080fd5b505af11580156106bf573d6000803e3d6000fd5b60088054600954600a54600b805460ff909416949293919291610f2f906122ad565b80601f0160208091040260200160405190810160405280929190818152602001828054610f5b906122ad565b8015610fa85780601f10610f7d57610100808354040283529160200191610fa8565b820191906000526020600020905b815481529060010190602001808311610f8b57829003601f168201915b5050505050908060040154905085565b60606000610fc6600d61174a565b67ffffffffffffffff811115610fde57610fde61235a565b60405190808252806020026020018201604052801561104357816020015b611030604051806080016040528060006001600160a01b031681526020016060815260200160008152602001600081525090565b815260200190600190039081610ffc5790505b509050611050600d61174a565b61105957919050565b60005b611066600d61174a565b81101561119857604080516080810190915280611084600d84611850565b6001600160a01b0390811682526006546020909201911663d84f55ee6110ab600d86611850565b6040516001600160e01b031960e084901b1681526001600160a01b03909116600482015260240160006040518083038186803b1580156110ea57600080fd5b505afa1580156110fe573d6000803e3d6000fd5b505050506040513d6000823e601f3d908101601f191682016040526111269190810190611ef2565b8152602001600f600061113a600d86611850565b6001600160a01b03166001600160a01b03168152602001908152602001600020600101548152602001600081525082828151811061117a5761117a612344565b6020026020010181905250808061119090612308565b91505061105c565b506111ba81600060016111ab600d61174a565b6111b5919061223d565b61185c565b905060006111c6610b47565b5050905060006111de6111d9600d61174a565b6119fb565b9050611205604051806040016040528060038152602001620391d160ed1b815250826116c0565b6112366040518060400160405280600b81526020016a0283934bd32b837b7b61d160ad1b81525083602001516116c0565b6112666040518060400160405280600a8152602001690372bb4b73732b9399d160b51b81525083604001516116c0565b61129a6040518060400160405280600581526020016403837bb9d160dd1b815250611295838560400151611bdc565b6116c0565b60006112e6670de0b6b3a76400006112b6848660400151611bdc565b6112c0919061223d565b6112e06112d5670de0b6b3a76400008661223d565b602087015190611c26565b90611cd6565b905061130d604051806040016040528060038152602001620209d160ed1b815250826116c0565b60005b83604001518110156113c35761133e604051806040016040528060018152602001603160f81b81525061167a565b61136d611366846001848860400151611357919061223d565b611361919061223d565b611bdc565b8390611c26565b85828151811061137f5761137f612344565b602002602001015160600181815250506113b1604051806040016040528060018152602001601960f91b81525061167a565b806113bb81612308565b915050611310565b506113e6604051806040016040528060018152602001603360f81b81525061167a565b50919392505050565b60075460408051808201909152601581527410d05313115497d393d517d055551213d492569151605a1b6020820152906001600160a01b031633146114475760405162461bcd60e51b815260040161047a91906120b3565b50426004546003546114599190612185565b11604051806040016040528060148152602001731513d55493905351539517d21054d7d15391115160621b815250906114a55760405162461bcd60e51b815260040161047a91906120b3565b50600654600154604051630a62bb0b60e21b81526000926001600160a01b03169163298aec2c916114ee9187916004016001600160a01b03929092168252602082015260400190565b60206040518083038186803b15801561150657600080fd5b505afa15801561151a573d6000803e3d6000fd5b505050506040513d601f19601f8201168201806040525081019061153e9190611ed0565b9050806040518060400160405280601181526020017014131056515497d393d517d293d2539151607a1b815250906115895760405162461bcd60e51b815260040161047a91906120b3565b506000600f6000856001600160a01b03166001600160a01b0316815260200190815260200160002060020154116040518060400160405280601081526020016f1393d7d055151153541514d7d311519560821b815250906115fd5760405162461bcd60e51b815260040161047a91906120b3565b506001600160a01b0383166000908152600f602052604081206001810184905560020180549161162c8361229e565b919050555042836001600160a01b03167f4713603fe21be537b9c9ca4c33240e81665fb6e4a681bdd1318c039f16b5aff68460405161166d91815260200190565b60405180910390a3505050565b6116bd8160405160240161168e91906120b3565b60408051601f198184030181529190526020810180516001600160e01b031663104c13eb60e21b179052611dda565b50565b6106c282826040516024016116d69291906120c6565b60408051601f198184030181529190526020810180516001600160e01b0316632d839cb360e21b179052611dda565b6116bd8160405160240161171b91815260200190565b60408051601f198184030181529190526020810180516001600160e01b031663f82c50f160e01b179052611dda565b6000611754825490565b92915050565b6000821580611767575081155b1561177457506000611754565b8161178260026127106121cb565b61178e9060001961223d565b61179891906121cb565b8311156040518060400160405280601c81526020017f4d4154485f4d554c5449504c49434154494f4e5f4f564552464c4f5700000000815250906117ef5760405162461bcd60e51b815260040161047a91906120b3565b506127106117fe6002826121cb565b61180884866121df565b6118129190612185565b61181c91906121cb565b9392505050565b600081831115611834575080611754565b5090919050565b600061181c836001600160a01b038416611dfb565b600061181c8383611e4a565b606081831261186c57508261181c565b600084600261187b86866121fe565b611885919061219d565b61188f9086612144565b8151811061189f5761189f612344565b602090810291909101015160400151905083835b8082136119c6575b828783815181106118ce576118ce612344565b60200260200101516040015111156118f257816118ea816122e8565b9250506118bb565b86818151811061190457611904612344565b602002602001015160400151831115611929578061192181612280565b9150506118f2565b8082136119c157600087838151811061194457611944612344565b6020026020010151905087828151811061196057611960612344565b602002602001015188848151811061197a5761197a612344565b60200260200101819052508088838151811061199857611998612344565b602002602001018190525082806119ae906122e8565b93505081806119bc90612280565b925050505b6118b3565b808612156119db576119d987878361185c565b505b848212156119f0576119ee87838761185c565b505b509495945050505050565b6000600a821015611a8357600654604051633438d19960e21b8152600a60048201526001600160a01b039091169063d0e34664906024015b60206040518083038186803b158015611a4b57600080fd5b505afa158015611a5f573d6000803e3d6000fd5b505050506040513d601f19601f820116820180604052508101906117549190611f9f565b6014821015611abd57600654604051633438d19960e21b8152601460048201526001600160a01b039091169063d0e3466490602401611a33565b601e821015611af757600654604051633438d19960e21b8152601e60048201526001600160a01b039091169063d0e3466490602401611a33565b6028821015611b3157600654604051633438d19960e21b8152602860048201526001600160a01b039091169063d0e3466490602401611a33565b6032821015611b6b57600654604051633438d19960e21b8152603260048201526001600160a01b039091169063d0e3466490602401611a33565b6064821015611ba557600654604051633438d19960e21b8152606460048201526001600160a01b039091169063d0e3466490602401611a33565b600654604051633438d19960e21b81526103e860048201526001600160a01b039091169063d0e3466490602401611a33565b919050565b60008282611bf557670de0b6b3a7640000915050611754565b60015b83811015611c1e57611c0a8286611c26565b915080611c1681612308565b915050611bf8565b509392505050565b6000821580611c33575081155b15611c4057506000611754565b81611c546002670de0b6b3a76400006121cb565b611c609060001961223d565b611c6a91906121cb565b8311156040518060400160405280601c81526020017f4d4154485f4d554c5449504c49434154494f4e5f4f564552464c4f570000000081525090611cc15760405162461bcd60e51b815260040161047a91906120b3565b50670de0b6b3a76400006117fe6002826121cb565b6040805180820190915260158152744d4154485f4449564953494f4e5f42595f5a45524f60581b602082015260009082611d235760405162461bcd60e51b815260040161047a91906120b3565b506000611d316002846121cb565b9050670de0b6b3a7640000611d488260001961223d565b611d5291906121cb565b8411156040518060400160405280601c81526020017f4d4154485f4d554c5449504c49434154494f4e5f4f564552464c4f570000000081525090611da95760405162461bcd60e51b815260040161047a91906120b3565b508281611dbe670de0b6b3a7640000876121df565b611dc89190612185565b611dd291906121cb565b949350505050565b80516a636f6e736f6c652e6c6f67602083016000808483855afa5050505050565b6000818152600183016020526040812054611e4257508154600181810184556000848152602080822090930184905584548482528286019093526040902091909155611754565b506000611754565b6000826000018281548110611e6157611e61612344565b9060005260206000200154905092915050565b80356001600160a01b0381168114611bd757600080fd5b600060208284031215611e9d57600080fd5b61181c82611e74565b60008060408385031215611eb957600080fd5b611ec283611e74565b946020939093013593505050565b600060208284031215611ee257600080fd5b8151801515811461181c57600080fd5b600060208284031215611f0457600080fd5b815167ffffffffffffffff80821115611f1c57600080fd5b818401915084601f830112611f3057600080fd5b815181811115611f4257611f4261235a565b604051601f8201601f19908116603f01168101908382118183101715611f6a57611f6a61235a565b81604052828152876020848701011115611f8357600080fd5b611f94836020830160208801612254565b979650505050505050565b600060208284031215611fb157600080fd5b5051919050565b60008151808452611fd0816020860160208601612254565b601f01601f19169290920160200192915050565b60006020808301818452808551808352604092508286019150828160051b87010184880160005b8381101561206c57888303603f19018552815180516001600160a01b031684528781015160808986018190529061204482870182611fb8565b838a0151878b015260609384015193909601929092525050938601939086019060010161200b565b509098975050505050505050565b851515815284602082015283604082015260a0606082015260006120a160a0830185611fb8565b90508260808301529695505050505050565b60208152600061181c6020830184611fb8565b6040815260006120d96040830185611fb8565b90508260208301529392505050565b6060815283511515606082015260208401516080820152604084015160a08201526000606085015160a060c0840152612125610100840182611fb8565b6080969096015160e08401525050602081019290925260409091015290565b600080821280156001600160ff1b038490038513161561216657612166612318565b600160ff1b839003841281161561217f5761217f612318565b50500190565b6000821982111561219857612198612318565b500190565b6000826121ac576121ac61232e565b600160ff1b8214600019841416156121c6576121c6612318565b500590565b6000826121da576121da61232e565b500490565b60008160001904831182151516156121f9576121f9612318565b500290565b60008083128015600160ff1b85018412161561221c5761221c612318565b6001600160ff1b038401831381161561223757612237612318565b50500390565b60008282101561224f5761224f612318565b500390565b60005b8381101561226f578181015183820152602001612257565b838111156106bf5750506000910152565b6000600160ff1b82141561229657612296612318565b506000190190565b60008161229657612296612318565b600181811c908216806122c157607f821691505b602082108114156122e257634e487b7160e01b600052602260045260246000fd5b50919050565b60006001600160ff1b0382141561230157612301612318565b5060010190565b6000600019821415612301576123015b634e487b7160e01b600052601160045260246000fd5b634e487b7160e01b600052601260045260246000fd5b634e487b7160e01b600052603260045260246000fd5b634e487b7160e01b600052604160045260246000fdfea2646970667358221220561e023b046917e15c95a1478173b5cb88097b9107c050bbd3124073d9b40ca964736f6c63430008070033",
  "linkReferences": {},
  "deployedLinkReferences": {}
}