{
  "_format": "hh-sol-artifact-1",
  "contractName": "Tournament",
  "sourceName": "contracts/Tournament.sol",
  "abi": [
    {
      "inputs": [
        {
          "internalType": "uint256",
          "name": "id_",
          "type": "uint256"
        },
        {
          "internalType": "string",
          "name": "name_",
          "type": "string"
        },
        {
          "internalType": "uint256",
          "name": "startTime_",
          "type": "uint256"
        },
        {
          "internalType": "address",
          "name": "gameContractAddress_",
          "type": "address"
        },
        {
          "components": [
            {
              "internalType": "bool",
              "name": "isSponsored",
              "type": "bool"
            },
            {
              "internalType": "uint256",
              "name": "prizePool",
              "type": "uint256"
            },
            {
              "internalType": "uint256",
              "name": "nWinners",
              "type": "uint256"
            },
            {
              "internalType": "string",
              "name": "sponsorMetadata",
              "type": "string"
            },
            {
              "internalType": "uint256",
              "name": "commissionPercentage",
              "type": "uint256"
            }
          ],
          "internalType": "struct DataTypes.RewardVars",
          "name": "_rewardVars",
          "type": "tuple"
        }
      ],
      "stateMutability": "nonpayable",
      "type": "constructor"
    },
    {
      "inputs": [],
      "name": "approvedCaller",
      "outputs": [
        {
          "internalType": "address",
          "name": "",
          "type": "address"
        }
      ],
      "stateMutability": "view",
      "type": "function"
    },
    {
      "inputs": [],
      "name": "endTournament",
      "outputs": [],
      "stateMutability": "nonpayable",
      "type": "function"
    },
    {
      "inputs": [],
      "name": "gameContractAddress",
      "outputs": [
        {
          "internalType": "address",
          "name": "",
          "type": "address"
        }
      ],
      "stateMutability": "view",
      "type": "function"
    },
    {
      "inputs": [],
      "name": "getLeaderBoard",
      "outputs": [
        {
          "components": [
            {
              "internalType": "address",
              "name": "wallet",
              "type": "address"
            },
            {
              "internalType": "string",
              "name": "username",
              "type": "string"
            },
            {
              "internalType": "uint256",
              "name": "highscore",
              "type": "uint256"
            },
            {
              "internalType": "uint256",
              "name": "prize",
              "type": "uint256"
            }
          ],
          "internalType": "struct DataTypes.LeaderBoardEntry[]",
          "name": "",
          "type": "tuple[]"
        }
      ],
      "stateMutability": "view",
      "type": "function"
    },
    {
      "inputs": [],
      "name": "getRewardInfo",
      "outputs": [
        {
          "components": [
            {
              "internalType": "bool",
              "name": "isSponsored",
              "type": "bool"
            },
            {
              "internalType": "uint256",
              "name": "prizePool",
              "type": "uint256"
            },
            {
              "internalType": "uint256",
              "name": "nWinners",
              "type": "uint256"
            },
            {
              "internalType": "string",
              "name": "sponsorMetadata",
              "type": "string"
            },
            {
              "internalType": "uint256",
              "name": "commissionPercentage",
              "type": "uint256"
            }
          ],
          "internalType": "struct DataTypes.RewardVars",
          "name": "",
          "type": "tuple"
        },
        {
          "internalType": "uint256",
          "name": "",
          "type": "uint256"
        },
        {
          "internalType": "uint256",
          "name": "",
          "type": "uint256"
        }
      ],
      "stateMutability": "view",
      "type": "function"
    },
    {
      "inputs": [],
      "name": "hasEnded",
      "outputs": [
        {
          "internalType": "bool",
          "name": "",
          "type": "bool"
        }
      ],
      "stateMutability": "view",
      "type": "function"
    },
    {
      "inputs": [],
      "name": "id",
      "outputs": [
        {
          "internalType": "uint256",
          "name": "",
          "type": "uint256"
        }
      ],
      "stateMutability": "view",
      "type": "function"
    },
    {
      "inputs": [],
      "name": "joinTournament",
      "outputs": [],
      "stateMutability": "payable",
      "type": "function"
    },
    {
      "inputs": [],
      "name": "joiningFees",
      "outputs": [
        {
          "internalType": "uint256",
          "name": "",
          "type": "uint256"
        }
      ],
      "stateMutability": "view",
      "type": "function"
    },
    {
      "inputs": [],
      "name": "name",
      "outputs": [
        {
          "internalType": "string",
          "name": "",
          "type": "string"
        }
      ],
      "stateMutability": "view",
      "type": "function"
    },
    {
      "inputs": [
        {
          "internalType": "address",
          "name": "",
          "type": "address"
        }
      ],
      "name": "playerStatsMap",
      "outputs": [
        {
          "internalType": "uint256",
          "name": "rank",
          "type": "uint256"
        },
        {
          "internalType": "uint256",
          "name": "highscore",
          "type": "uint256"
        },
        {
          "internalType": "uint256",
          "name": "allocatedPrize",
          "type": "uint256"
        },
        {
          "internalType": "uint256",
          "name": "unclaimedPrize",
          "type": "uint256"
        }
      ],
      "stateMutability": "view",
      "type": "function"
    },
    {
      "inputs": [
        {
          "internalType": "address",
          "name": "_player",
          "type": "address"
        },
        {
          "internalType": "uint256",
          "name": "_score",
          "type": "uint256"
        }
      ],
      "name": "recordScore",
      "outputs": [],
      "stateMutability": "nonpayable",
      "type": "function"
    },
    {
      "inputs": [],
      "name": "rewardVars",
      "outputs": [
        {
          "internalType": "bool",
          "name": "isSponsored",
          "type": "bool"
        },
        {
          "internalType": "uint256",
          "name": "prizePool",
          "type": "uint256"
        },
        {
          "internalType": "uint256",
          "name": "nWinners",
          "type": "uint256"
        },
        {
          "internalType": "string",
          "name": "sponsorMetadata",
          "type": "string"
        },
        {
          "internalType": "uint256",
          "name": "commissionPercentage",
          "type": "uint256"
        }
      ],
      "stateMutability": "view",
      "type": "function"
    },
    {
      "inputs": [],
      "name": "startTime",
      "outputs": [
        {
          "internalType": "uint256",
          "name": "",
          "type": "uint256"
        }
      ],
      "stateMutability": "view",
      "type": "function"
    },
    {
      "inputs": [],
      "name": "timeLimit",
      "outputs": [
        {
          "internalType": "uint256",
          "name": "",
          "type": "uint256"
        }
      ],
      "stateMutability": "view",
      "type": "function"
    },
    {
      "inputs": [],
      "name": "withdrawPrize",
      "outputs": [],
      "stateMutability": "nonpayable",
      "type": "function"
    }
  ],
  "bytecode": "0x60806040523480156200001157600080fd5b50604051620020a4380380620020a48339810160408190526200003491620003fe565b6001600081905585905583516200005390600290602087019062000267565b506003839055600680546001600160a01b0319166001600160a01b0384169081179091556040805163c08d1fe560e01b8152905163c08d1fe591600480820192602092909190829003018186803b158015620000ae57600080fd5b505afa158015620000c3573d6000803e3d6000fd5b505050506040513d601f19601f82011682018060405250810190620000e99190620003e4565b600490815560065460408051634959d97760e01b815290516001600160a01b0390921692634959d977928282019260209290829003018186803b1580156200013057600080fd5b505afa15801562000145573d6000803e3d6000fd5b505050506040513d601f19601f820116820180604052508101906200016b9190620003e4565b60055560065460408051631127a41d60e31b815290516001600160a01b039092169163893d20e891600480820192602092909190829003018186803b158015620001b457600080fd5b505afa158015620001c9573d6000803e3d6000fd5b505050506040513d601f19601f82011682018060405250810190620001ef9190620003bf565b600780546001600160a01b0319166001600160a01b039290921691909117905580516008805460ff19169115159190911781556020808301516009556040830151600a55606083015180518493926200024e92600b9291019062000267565b50608082015181600401559050505050505050620005ad565b82805462000275906200055a565b90600052602060002090601f016020900481019282620002995760008555620002e4565b82601f10620002b457805160ff1916838001178555620002e4565b82800160010185558215620002e4579182015b82811115620002e4578251825591602001919060010190620002c7565b50620002f2929150620002f6565b5090565b5b80821115620002f25760008155600101620002f7565b80516001600160a01b03811681146200032557600080fd5b919050565b600082601f8301126200033c57600080fd5b81516001600160401b0381111562000358576200035862000597565b60206200036e601f8301601f1916820162000527565b82815285828487010111156200038357600080fd5b60005b83811015620003a357858101830151828201840152820162000386565b83811115620003b55760008385840101525b5095945050505050565b600060208284031215620003d257600080fd5b620003dd826200030d565b9392505050565b600060208284031215620003f757600080fd5b5051919050565b600080600080600060a086880312156200041757600080fd5b855160208701519095506001600160401b03808211156200043757600080fd5b6200044589838a016200032a565b9550604088015194506200045c606089016200030d565b935060808801519150808211156200047357600080fd5b9087019060a0828a0312156200048857600080fd5b62000492620004fc565b82518015158114620004a357600080fd5b808252506020830151602082015260408301516040820152606083015182811115620004ce57600080fd5b620004dc8b8286016200032a565b606083015250608083015160808201528093505050509295509295909350565b60405160a081016001600160401b038111828210171562000521576200052162000597565b60405290565b604051601f8201601f191681016001600160401b038111828210171562000552576200055262000597565b604052919050565b600181811c908216806200056f57607f821691505b602082108114156200059157634e487b7160e01b600052602260045260246000fd5b50919050565b634e487b7160e01b600052604160045260246000fd5b611ae780620005bd6000396000f3fe6080604052600436106100f35760003560e01c80637ce118611161008a578063c08d1fe511610059578063c08d1fe5146102ab578063c29d72bc146102c1578063ecb70fb7146102e3578063fbd534821461031457600080fd5b80637ce1186114610205578063858dbf7d1461020d578063ab632d4a14610233578063af640d0f1461029557600080fd5b80634d633a8f116100c65780634d633a8f1461019657806363df0ef7146101ab578063699c8f33146101cb57806378e97925146101ef57600080fd5b806306fdde03146100f857806345446d711461012357806348d37a581461015b5780634959d97714610172575b600080fd5b34801561010457600080fd5b5061010d610334565b60405161011a9190611821565b60405180910390f35b34801561012f57600080fd5b50600754610143906001600160a01b031681565b6040516001600160a01b03909116815260200161011a565b34801561016757600080fd5b506101706103c2565b005b34801561017e57600080fd5b5061018860055481565b60405190815260200161011a565b3480156101a257600080fd5b50610170610475565b3480156101b757600080fd5b50600654610143906001600160a01b031681565b3480156101d757600080fd5b506101e0610651565b60405161011a93929190611834565b3480156101fb57600080fd5b5061018860035481565b6101706108e6565b34801561021957600080fd5b50610222610adb565b60405161011a9594939291906117e8565b34801561023f57600080fd5b5061027561024e366004611600565b600f6020526000908152604090208054600182015460028301546003909301549192909184565b60408051948552602085019390935291830152606082015260800161011a565b3480156102a157600080fd5b5061018860015481565b3480156102b757600080fd5b5061018860045481565b3480156102cd57600080fd5b506102d6610b86565b60405161011a9190611752565b3480156102ef57600080fd5b5060075461030490600160a01b900460ff1681565b604051901515815260200161011a565b34801561032057600080fd5b5061017061032f36600461161b565b610e53565b60028054610341906119ee565b80601f016020809104026020016040519081016040528092919081815260200182805461036d906119ee565b80156103ba5780601f1061038f576101008083540402835291602001916103ba565b820191906000526020600020905b81548152906001019060200180831161039d57829003601f168201915b505050505081565b426004546003546103d391906118d1565b1060405180604001604052806012815260200171544f55524e414d454e545f49535f4c49564560701b815250906104265760405162461bcd60e51b815260040161041d9190611821565b60405180910390fd5b50336000908152600f602052604090206003810154156104725760006003820181905560405133916108fc9181818181818888f19350505050158015610470573d6000803e3d6000fd5b505b50565b60075460408051808201909152601581527410d05313115497d393d517d055551213d492569151605a1b6020820152906001600160a01b031633146104cd5760405162461bcd60e51b815260040161041d9190611821565b50426004546003546104df91906118d1565b1060405180604001604052806012815260200171544f55524e414d454e545f49535f4c49564560701b815250906105295760405162461bcd60e51b815260040161041d9190611821565b506007805460ff60a01b1916600160a01b1790556000610547610b86565b905060005b610556600d610ffb565b81101561047057604051806080016040528082600161057591906118d1565b815260200183838151811061058c5761058c611a85565b60200260200101516040015181526020018383815181106105af576105af611a85565b60200260200101516060015181526020018383815181106105d2576105d2611a85565b602002602001015160600151815250600f60008484815181106105f7576105f7611a85565b602090810291909101810151516001600160a01b031682528181019290925260409081016000208351815591830151600183015582015160028201556060909101516003909101558061064981611a49565b91505061054c565b6106856040518060a00160405280600015158152602001600081526020016000815260200160608152602001600081525090565b6040805160a0810190915260085460ff168015158252600091829160208201906106f5576106cf6008600401546005546106bf600d610ffb565b6106c9919061192b565b9061100b565b6005546106dc600d610ffb565b6106e6919061192b565b6106f09190611989565b6106f9565b6009545b815260200161082f610793600660009054906101000a90046001600160a01b03166001600160a01b0316625a0e3d6040518163ffffffff1660e01b815260040160206040518083038186803b15801561075157600080fd5b505afa158015610765573d6000803e3d6000fd5b505050506040513d601f19601f82011682018060405250810190610789919061170d565b6106c9600d610ffb565b60085460ff166108275760065460408051625a0e3d60e01b81529051600a926001600160a01b031691625a0e3d916004808301926020929190829003018186803b1580156107e057600080fd5b505afa1580156107f4573d6000803e3d6000fd5b505050506040513d601f19601f82011682018060405250810190610818919061170d565b6108229190611917565b6110d4565b600a546110d4565b815260200160086003018054610844906119ee565b80601f0160208091040260200160405190810160405280929190818152602001828054610870906119ee565b80156108bd5780601f10610892576101008083540402835291602001916108bd565b820191906000526020600020905b8154815290600101906020018083116108a057829003601f168201915b5050509183525050600c546020909101526005546108db600d610ffb565b925092509250909192565b426004546003546108f791906118d1565b11604051806040016040528060148152602001731513d55493905351539517d21054d7d15391115160621b815250906109435760405162461bcd60e51b815260040161041d9190611821565b50600654604051630a0bdc1560e11b81523360048201526000916001600160a01b031690631417b82a9060240160006040518083038186803b15801561098857600080fd5b505afa15801561099c573d6000803e3d6000fd5b505050506040513d6000823e601f3d908101601f191682016040526109c49190810190611645565b509050806040518060400160405280601581526020017414131056515497d393d517d49151d254d511549151605a1b81525090610a145760405162461bcd60e51b815260040161041d9190611821565b5060055434146040518060400160405280601981526020017f4e4f545f454e4f5547485f46554e44535f50524f56494445440000000000000081525090610a6e5760405162461bcd60e51b815260040161041d9190611821565b50610a7a600d336110ec565b506006546040516315a4c08360e31b81523360048201526001600160a01b039091169063ad26041890602401600060405180830381600087803b158015610ac057600080fd5b505af1158015610ad4573d6000803e3d6000fd5b5050505050565b60088054600954600a54600b805460ff909416949293919291610afd906119ee565b80601f0160208091040260200160405190810160405280929190818152602001828054610b29906119ee565b8015610b765780601f10610b4b57610100808354040283529160200191610b76565b820191906000526020600020905b815481529060010190602001808311610b5957829003601f168201915b5050505050908060040154905085565b60606000610b94600d610ffb565b67ffffffffffffffff811115610bac57610bac611a9b565b604051908082528060200260200182016040528015610c1157816020015b610bfe604051806080016040528060006001600160a01b031681526020016060815260200160008152602001600081525090565b815260200190600190039081610bca5790505b509050610c1e600d610ffb565b610c2757919050565b60005b610c34600d610ffb565b811015610d6057600654604051630a0bdc1560e11b81523360048201526000916001600160a01b031690631417b82a9060240160006040518083038186803b158015610c7f57600080fd5b505afa158015610c93573d6000803e3d6000fd5b505050506040513d6000823e601f3d908101601f19168201604052610cbb9190810190611645565b9150506040518060800160405280610cdd84600d61110190919063ffffffff16565b6001600160a01b0316815260208101839052604001600f6000610d01600d87611101565b6001600160a01b03166001600160a01b031681526020019081526020016000206001015481526020016000815250838381518110610d4157610d41611a85565b6020026020010181905250508080610d5890611a49565b915050610c2a565b50610d828160006001610d73600d610ffb565b610d7d9190611989565b61110d565b90506000610d8e610651565b505090506000610da6610da1600d610ffb565b6112ac565b90506000620f4240610dbc83856040015161148d565b610dc69190611989565b610dd3620f424084611989565b8460200151610de2919061192b565b610dec9190611917565b905060005b610dfb600d610ffb565b811015610e4957610e0c838261148d565b610e16908361192b565b858281518110610e2857610e28611a85565b60209081029190910101516060015280610e4181611a49565b915050610df1565b5092949350505050565b60075460408051808201909152601581527410d05313115497d393d517d055551213d492569151605a1b6020820152906001600160a01b03163314610eab5760405162461bcd60e51b815260040161041d9190611821565b5042600454600354610ebd91906118d1565b11604051806040016040528060148152602001731513d55493905351539517d21054d7d15391115160621b81525090610f095760405162461bcd60e51b815260040161041d9190611821565b50600654604051630a0bdc1560e11b81523360048201526000916001600160a01b031690631417b82a9060240160006040518083038186803b158015610f4e57600080fd5b505afa158015610f62573d6000803e3d6000fd5b505050506040513d6000823e601f3d908101601f19168201604052610f8a9190810190611645565b509050806040518060400160405280601581526020017414131056515497d393d517d49151d254d511549151605a1b81525090610fda5760405162461bcd60e51b815260040161041d9190611821565b50506001600160a01b039091166000908152600f6020526040902060010155565b6000611005825490565b92915050565b6000821580611018575081155b1561102557506000611005565b816110336002612710611917565b61103f90600019611989565b6110499190611917565b8311156040518060400160405280601c81526020017f4d4154485f4d554c5449504c49434154494f4e5f4f564552464c4f5700000000815250906110a05760405162461bcd60e51b815260040161041d9190611821565b506127106110af600282611917565b6110b9848661192b565b6110c391906118d1565b6110cd9190611917565b9392505050565b6000818311156110e5575080611005565b5090919050565b60006110cd836001600160a01b0384166114c0565b60006110cd838361150f565b606081831261111d5750826110cd565b600084600261112c868661194a565b61113691906118e9565b6111409086611890565b8151811061115057611150611a85565b602090810291909101015160400151905083835b808213611277575b8287838151811061117f5761117f611a85565b60200260200101516040015111156111a3578161119b81611a29565b92505061116c565b8681815181106111b5576111b5611a85565b6020026020010151604001518311156111da57806111d2816119d0565b9150506111a3565b8082136112725760008783815181106111f5576111f5611a85565b6020026020010151905087828151811061121157611211611a85565b602002602001015188848151811061122b5761122b611a85565b60200260200101819052508088838151811061124957611249611a85565b6020026020010181905250828061125f90611a29565b935050818061126d906119d0565b925050505b611164565b8086121561128c5761128a87878361110d565b505b848212156112a15761129f87838761110d565b505b509495945050505050565b6000600a82101561133457600654604051633438d19960e21b8152600a60048201526001600160a01b039091169063d0e34664906024015b60206040518083038186803b1580156112fc57600080fd5b505afa158015611310573d6000803e3d6000fd5b505050506040513d601f19601f82011682018060405250810190611005919061170d565b601482101561136e57600654604051633438d19960e21b8152601460048201526001600160a01b039091169063d0e34664906024016112e4565b601e8210156113a857600654604051633438d19960e21b8152601e60048201526001600160a01b039091169063d0e34664906024016112e4565b60288210156113e257600654604051633438d19960e21b8152602860048201526001600160a01b039091169063d0e34664906024016112e4565b603282101561141c57600654604051633438d19960e21b8152603260048201526001600160a01b039091169063d0e34664906024016112e4565b606482101561145657600654604051633438d19960e21b8152606460048201526001600160a01b039091169063d0e34664906024016112e4565b600654604051633438d19960e21b81526103e860048201526001600160a01b039091169063d0e34664906024016112e4565b919050565b600082815b838110156114b8576114a48286611539565b9150806114b081611a49565b915050611492565b509392505050565b600081815260018301602052604081205461150757508154600181810184556000848152602080822090930184905584548482528286019093526040902091909155611005565b506000611005565b600082600001828154811061152657611526611a85565b9060005260206000200154905092915050565b6000821580611546575081155b1561155357506000611005565b816115676002670de0b6b3a7640000611917565b61157390600019611989565b61157d9190611917565b8311156040518060400160405280601c81526020017f4d4154485f4d554c5449504c49434154494f4e5f4f564552464c4f5700000000815250906115d45760405162461bcd60e51b815260040161041d9190611821565b50670de0b6b3a76400006110af600282611917565b80356001600160a01b038116811461148857600080fd5b60006020828403121561161257600080fd5b6110cd826115e9565b6000806040838503121561162e57600080fd5b611637836115e9565b946020939093013593505050565b6000806040838503121561165857600080fd5b8251801515811461166857600080fd5b602084015190925067ffffffffffffffff8082111561168657600080fd5b818501915085601f83011261169a57600080fd5b8151818111156116ac576116ac611a9b565b604051601f8201601f19908116603f011681019083821181831017156116d4576116d4611a9b565b816040528281528860208487010111156116ed57600080fd5b6116fe8360208301602088016119a0565b80955050505050509250929050565b60006020828403121561171f57600080fd5b5051919050565b6000815180845261173e8160208601602086016119a0565b601f01601f19169290920160200192915050565b60006020808301818452808551808352604092508286019150828160051b87010184880160005b838110156117da57888303603f19018552815180516001600160a01b03168452878101516080898601819052906117b282870182611726565b838a0151878b0152606093840151939096019290925250509386019390860190600101611779565b509098975050505050505050565b851515815284602082015283604082015260a06060820152600061180f60a0830185611726565b90508260808301529695505050505050565b6020815260006110cd6020830184611726565b6060815283511515606082015260208401516080820152604084015160a08201526000606085015160a060c0840152611871610100840182611726565b6080969096015160e08401525050602081019290925260409091015290565b600080821280156001600160ff1b03849003851316156118b2576118b2611a59565b600160ff1b83900384128116156118cb576118cb611a59565b50500190565b600082198211156118e4576118e4611a59565b500190565b6000826118f8576118f8611a6f565b600160ff1b82146000198414161561191257611912611a59565b500590565b60008261192657611926611a6f565b500490565b600081600019048311821515161561194557611945611a59565b500290565b60008083128015600160ff1b85018412161561196857611968611a59565b6001600160ff1b038401831381161561198357611983611a59565b50500390565b60008282101561199b5761199b611a59565b500390565b60005b838110156119bb5781810151838201526020016119a3565b838111156119ca576000848401525b50505050565b6000600160ff1b8214156119e6576119e6611a59565b506000190190565b600181811c90821680611a0257607f821691505b60208210811415611a2357634e487b7160e01b600052602260045260246000fd5b50919050565b60006001600160ff1b03821415611a4257611a42611a59565b5060010190565b6000600019821415611a4257611a425b634e487b7160e01b600052601160045260246000fd5b634e487b7160e01b600052601260045260246000fd5b634e487b7160e01b600052603260045260246000fd5b634e487b7160e01b600052604160045260246000fdfea264697066735822122025b934007afcfa0f39fafa944a3a476f2963d0ce55d06d4bc3a683b8e647898164736f6c63430008070033",
  "linkReferences": {},
  "deployedLinkReferences": {}
}