{
  "_format": "hh-sol-artifact-1",
  "contractName": "Errors",
  "sourceName": "contracts/utils/Errors.sol",
  "abi": [
    {
      "inputs": [],
      "name": "MATH_ADDITION_OVERFLOW",
      "outputs": [
        {
          "internalType": "string",
          "name": "",
          "type": "string"
        }
      ],
      "stateMutability": "view",
      "type": "function"
    },
    {
      "inputs": [],
      "name": "MATH_DIVISION_BY_ZERO",
      "outputs": [
        {
          "internalType": "string",
          "name": "",
          "type": "string"
        }
      ],
      "stateMutability": "view",
      "type": "function"
    },
    {
      "inputs": [],
      "name": "MATH_MULTIPLICATION_OVERFLOW",
      "outputs": [
        {
          "internalType": "string",
          "name": "",
          "type": "string"
        }
      ],
      "stateMutability": "view",
      "type": "function"
    }
  ],
  "bytecode": "0x61015461003a600b82828239805160001a60731461002d57634e487b7160e01b600052600060045260246000fd5b30600052607381538281f3fe730000000000000000000000000000000000000000301460806040526004361061004b5760003560e01c8063029d2344146100505780630f5ee482146100875780634349e3d8146100a8575b600080fd5b61007160405180604001604052806002815260200161068760f31b81525081565b60405161007e91906100c9565b60405180910390f35b61007160405180604001604052806002815260200161343960f01b81525081565b61007160405180604001604052806002815260200161035360f41b81525081565b600060208083528351808285015260005b818110156100f6578581018301518582016040015282016100da565b81811115610108576000604083870101525b50601f01601f191692909201604001939250505056fea264697066735822122030d53fb40ceb5b792aef439f73c12a5292ff7eaf62d27ab71f338aa277537b2d64736f6c63430008070033",
  "linkReferences": {},
  "deployedLinkReferences": {}
}