{
  "_format": "hh-sol-artifact-1",
  "contractName": "Errors",
  "sourceName": "contracts/utils/Errors.sol",
  "abi": [
    {
      "inputs": [],
      "name": "ATTEMPTS_LEFT",
      "outputs": [
        {
          "internalType": "string",
          "name": "",
          "type": "string"
        }
      ],
      "stateMutability": "view",
      "type": "function"
    },
    {
      "inputs": [],
      "name": "CALLER_NOT_AUTHORIZED",
      "outputs": [
        {
          "internalType": "string",
          "name": "",
          "type": "string"
        }
      ],
      "stateMutability": "view",
      "type": "function"
    },
    {
      "inputs": [],
      "name": "MATH_ADDITION_OVERFLOW",
      "outputs": [
        {
          "internalType": "string",
          "name": "",
          "type": "string"
        }
      ],
      "stateMutability": "view",
      "type": "function"
    },
    {
      "inputs": [],
      "name": "MATH_DIVISION_BY_ZERO",
      "outputs": [
        {
          "internalType": "string",
          "name": "",
          "type": "string"
        }
      ],
      "stateMutability": "view",
      "type": "function"
    },
    {
      "inputs": [],
      "name": "MATH_MULTIPLICATION_OVERFLOW",
      "outputs": [
        {
          "internalType": "string",
          "name": "",
          "type": "string"
        }
      ],
      "stateMutability": "view",
      "type": "function"
    },
    {
      "inputs": [],
      "name": "NOT_ENOUGH_FUNDS",
      "outputs": [
        {
          "internalType": "string",
          "name": "",
          "type": "string"
        }
      ],
      "stateMutability": "view",
      "type": "function"
    },
    {
      "inputs": [],
      "name": "NOT_ENOUGH_FUNDS_PROVIDED",
      "outputs": [
        {
          "internalType": "string",
          "name": "",
          "type": "string"
        }
      ],
      "stateMutability": "view",
      "type": "function"
    },
    {
      "inputs": [],
      "name": "NO_ATTEMPTS_LEFT",
      "outputs": [
        {
          "internalType": "string",
          "name": "",
          "type": "string"
        }
      ],
      "stateMutability": "view",
      "type": "function"
    },
    {
      "inputs": [],
      "name": "PLAYER_NOT_JOINED",
      "outputs": [
        {
          "internalType": "string",
          "name": "",
          "type": "string"
        }
      ],
      "stateMutability": "view",
      "type": "function"
    },
    {
      "inputs": [],
      "name": "TOURNAMENT_HAS_ENDED",
      "outputs": [
        {
          "internalType": "string",
          "name": "",
          "type": "string"
        }
      ],
      "stateMutability": "view",
      "type": "function"
    },
    {
      "inputs": [],
      "name": "TOURNAMENT_IS_LIVE",
      "outputs": [
        {
          "internalType": "string",
          "name": "",
          "type": "string"
        }
      ],
      "stateMutability": "view",
      "type": "function"
    },
    {
      "inputs": [],
      "name": "USERNAME_TAKEN",
      "outputs": [
        {
          "internalType": "string",
          "name": "",
          "type": "string"
        }
      ],
      "stateMutability": "view",
      "type": "function"
    }
  ],
  "bytecode": "0x6103c461003a600b82828239805160001a60731461002d57634e487b7160e01b600052600060045260246000fd5b30600052607381538281f3fe73000000000000000000000000000000000000000030146080604052600436106100be5760003560e01c80634349e3d81161007b5780634349e3d814610215578063685cc70914610249578063addacced14610279578063ba162cae146102a5578063cb783f06146102d4578063f28ce1471461030857600080fd5b8063029d2344146100c35780630a8bd97a146101155780630f5ee482146101485780631f04ddc81461017d5780632fac901d146101ac57806334d8ac7e146101e8575b600080fd5b6100ff6040518060400160405280601c81526020017f4d4154485f4d554c5449504c49434154494f4e5f4f564552464c4f570000000081525081565b60405161010c9190610339565b60405180910390f35b6100ff604051806040016040528060148152602001731513d55493905351539517d21054d7d15391115160621b81525081565b6100ff604051806040016040528060168152602001754d4154485f4144444954494f4e5f4f564552464c4f5760501b81525081565b6100ff6040518060400160405280601081526020016f4e4f545f454e4f5547485f46554e445360801b81525081565b6100ff6040518060400160405280601981526020017f4e4f545f454e4f5547485f46554e44535f50524f56494445440000000000000081525081565b6100ff6040518060400160405280600e81526020016d2aa9a2a92720a6a2afaa20a5a2a760911b81525081565b6100ff604051806040016040528060158152602001744d4154485f4449564953494f4e5f42595f5a45524f60581b81525081565b6100ff6040518060400160405280601181526020017014131056515497d393d517d293d2539151607a1b81525081565b6100ff6040518060400160405280600d81526020016c1055151153541514d7d3115195609a1b81525081565b6100ff6040518060400160405280601081526020016f1393d7d055151153541514d7d311519560821b81525081565b6100ff6040518060400160405280601581526020017410d05313115497d393d517d055551213d492569151605a1b81525081565b6100ff60405180604001604052806012815260200171544f55524e414d454e545f49535f4c49564560701b81525081565b600060208083528351808285015260005b818110156103665785810183015185820160400152820161034a565b81811115610378576000604083870101525b50601f01601f191692909201604001939250505056fea26469706673582212202e2575b446aa12a0dc0f3019957eaa6229206408e1cd9c284a59b6e8d0eb6fad64736f6c63430008070033",
  "linkReferences": {},
  "deployedLinkReferences": {}
}