{
  "_format": "hh-sol-artifact-1",
  "contractName": "Errors",
  "sourceName": "contracts/utils/Errors.sol",
  "abi": [
    {
      "inputs": [],
      "name": "CALLER_NOT_AUTHORIZED",
      "outputs": [
        {
          "internalType": "string",
          "name": "",
          "type": "string"
        }
      ],
      "stateMutability": "view",
      "type": "function"
    },
    {
      "inputs": [],
      "name": "MATH_ADDITION_OVERFLOW",
      "outputs": [
        {
          "internalType": "string",
          "name": "",
          "type": "string"
        }
      ],
      "stateMutability": "view",
      "type": "function"
    },
    {
      "inputs": [],
      "name": "MATH_DIVISION_BY_ZERO",
      "outputs": [
        {
          "internalType": "string",
          "name": "",
          "type": "string"
        }
      ],
      "stateMutability": "view",
      "type": "function"
    },
    {
      "inputs": [],
      "name": "MATH_MULTIPLICATION_OVERFLOW",
      "outputs": [
        {
          "internalType": "string",
          "name": "",
          "type": "string"
        }
      ],
      "stateMutability": "view",
      "type": "function"
    },
    {
      "inputs": [],
      "name": "NOT_ENOUGH_FUNDS_PROVIDED",
      "outputs": [
        {
          "internalType": "string",
          "name": "",
          "type": "string"
        }
      ],
      "stateMutability": "view",
      "type": "function"
    },
    {
      "inputs": [],
      "name": "PLAYER_NOT_REGISTERED",
      "outputs": [
        {
          "internalType": "string",
          "name": "",
          "type": "string"
        }
      ],
      "stateMutability": "view",
      "type": "function"
    },
    {
      "inputs": [],
      "name": "TOURNAMENT_HAS_ENDED",
      "outputs": [
        {
          "internalType": "string",
          "name": "",
          "type": "string"
        }
      ],
      "stateMutability": "view",
      "type": "function"
    },
    {
      "inputs": [],
      "name": "TOURNAMENT_IS_LIVE",
      "outputs": [
        {
          "internalType": "string",
          "name": "",
          "type": "string"
        }
      ],
      "stateMutability": "view",
      "type": "function"
    },
    {
      "inputs": [],
      "name": "USERNAME_TAKEN",
      "outputs": [
        {
          "internalType": "string",
          "name": "",
          "type": "string"
        }
      ],
      "stateMutability": "view",
      "type": "function"
    }
  ],
  "bytecode": "0x61031d61003a600b82828239805160001a60731461002d57634e487b7160e01b600052600060045260246000fd5b30600052607381538281f3fe730000000000000000000000000000000000000000301460806040526004361061009d5760003560e01c806334d8ac7e1161007057806334d8ac7e146101985780634349e3d8146101c55780634829676a146101f9578063cb783f061461022d578063f28ce1471461026157600080fd5b8063029d2344146100a25780630a8bd97a146100f45780630f5ee482146101275780632fac901d1461015c575b600080fd5b6100de6040518060400160405280601c81526020017f4d4154485f4d554c5449504c49434154494f4e5f4f564552464c4f570000000081525081565b6040516100eb9190610292565b60405180910390f35b6100de604051806040016040528060148152602001731513d55493905351539517d21054d7d15391115160621b81525081565b6100de604051806040016040528060168152602001754d4154485f4144444954494f4e5f4f564552464c4f5760501b81525081565b6100de6040518060400160405280601981526020017f4e4f545f454e4f5547485f46554e44535f50524f56494445440000000000000081525081565b6100de6040518060400160405280600e81526020016d2aa9a2a92720a6a2afaa20a5a2a760911b81525081565b6100de604051806040016040528060158152602001744d4154485f4449564953494f4e5f42595f5a45524f60581b81525081565b6100de6040518060400160405280601581526020017414131056515497d393d517d49151d254d511549151605a1b81525081565b6100de6040518060400160405280601581526020017410d05313115497d393d517d055551213d492569151605a1b81525081565b6100de60405180604001604052806012815260200171544f55524e414d454e545f49535f4c49564560701b81525081565b600060208083528351808285015260005b818110156102bf578581018301518582016040015282016102a3565b818111156102d1576000604083870101525b50601f01601f191692909201604001939250505056fea26469706673582212203ba9577c47ed15beb206821d9d578f295ceb76a22929f2cfb970328e4345670664736f6c63430008070033",
  "linkReferences": {},
  "deployedLinkReferences": {}
}